:020000040800F2
:1000000000500020A9010008EF010008F1010008DC
:10001000F3010008F5010008F701000800000000E6
:10002000000000000000000000000000F9010008CE
:10003000FB01000800000000FD010008C11C0008D1
:100040000302000805020008070200080902000870
:100050000B0200080D0200080F0200081102000840
:100060001302000815020008170200081902000810
:100070001B0200081D0200082121000821020008BF
:10008000230200083D210008270200082902000879
:100090002B0200082D0200082F0200083102000880
:1000A0003302000835020008370200083902000850
:1000B000913300083D0200083F0200084102000899
:1000C00043020008450200084702000849020008F0
:1000D0004B02000871200008C920000851020008E6
:1000E00053020008550200085702000880B487B088
:1000F00000AF786000237B6100233B610F23FB602E
:100100007B68DB78002B38D0254BDB68DB431B0A90
:1001100003F007037B617B69C3F104033B61FA6869
:100120007B6922FA03F3FB607B685B781A463B69C4
:1001300002FA03F37B617B689B781A46FB681340E5
:100140007A6913437B617B691B017B61154A7B687C
:100150001B787969C9B213440A4683F800237B6887
:100160001B7803F01F020F497B681B785B1101208D
:1001700000FA02F241F823200DE07B681B7803F0BF
:100180001F0208497B681B785B11012000FA02F20C
:10019000203341F8232000BF1C37BD4680BC704788
:1001A00000ED00E000E100E00649074A074B9A42F3
:1001B000BEBF51F8040B42F8040BF8E7044880472F
:1001C00004480047013C0008000000202C010020EA
:1001D00061020008D90100081F49204A002301E0FC
:1001E00041F8043B9142FBD303F07CFAFEE7FEE7C3
:1001F000FEE7FEE7FEE7FEE7FEE7FEE7FEE7FEE7D7
:10020000FEE7FEE7FEE7FEE7FEE7FEE7FEE7FEE7C6
:10021000FEE7FEE7FEE7FEE7FEE7FEE7FEE7FEE7B6
:10022000FEE7FEE7FEE7FEE7FEE7FEE7FEE7FEE7A6
:10023000FEE7FEE7FEE7FEE7FEE7FEE7FEE7FEE796
:10024000FEE7FEE7FEE7FEE7FEE7FEE7FEE7FEE786
:10025000FEE7FEE7FEE7FEE72C0100205701002045
:1002600080B500AF154B1B68144A43F001031360BF
:10027000124B5A681149124B13404B600F4B1B68CD
:100280000E4A23F0847323F4803313600B4B1B68F6
:100290000A4A23F480231360084B5B68074A23F45F
:1002A000FE035360054B4FF41F029A6000F07EF886
:1002B000044B4FF000629A6000BF80BD0010024006
:1002C0000000FFF800ED00E080B485B000AF00232F
:1002D000FB600023BB6000237B602F4B5B6803F057
:1002E0000C03FB60FB68042B07D0082B09D0002B04
:1002F00038D12A4B2A4A1A6038E0284B284A1A601B
:1003000034E0254B5B6803F47013BB60224B5B68E1
:1003100003F480337B60BB689B0C0233BB607B685B
:10032000002B06D1BB681F4A02FB03F31B4A136074
:100330001CE0194B5B6803F40033002B14BF01234E
:100340000023DBB2002B06D0BB68164A02FB03F386
:10035000124A13600AE0BB68114A02FB03F30F4A1A
:10036000136003E00D4B0E4A1A6000BF0A4B5B6836
:100370001B0903F00F030C4AD35CDBB2FB60074B95
:100380001A68FB6822FA03F3044A136000BF1437AB
:10039000BD4680BC704700BF001002400000002036
:1003A00000127A0000093D000400002080B500AF73
:1003B00000F002F800BF80BD80B483B000AF00231E
:1003C0007B6000233B60474B1B68464A43F4803305
:1003D0001360444B1B6803F400333B607B680133BC
:1003E0007B603B68002B05D17B68B3F5A06F01D023
:1003F000012300E00023002B00D0EAE7394B1B6803
:1004000003F40033002B14BF01230023DBB2002BC5
:1004100002D001233B6001E000233B603B68012BDD
:100420000CBF01230023DBB2002B55D02E4B1B68E1
:100430002D4A43F0100313602B4B1B682A4A23F00C
:1004400003031360284B1B68274A43F00203136021
:10045000244B244A5B685360224B224A5B685360FA
:10046000204B5B681F4A43F4806353601D4B5B68FD
:100470001C4A23F47C1353601A4B5B68194A43F4FB
:10048000E8135360174B1B68164A43F080731360E0
:10049000144B1B6803F00073002B0CBF01230023D7
:1004A000DBB2002B00D0F3E70E4B5B680D4A23F064
:1004B000030353600B4B5B680A4A43F0020353602B
:1004C000084B5B6803F00C03082B14BF01230023C7
:1004D000DBB2002B00D0F3E700BF0C37BD4680BC79
:1004E000704700BF001002400020024080B400AFFF
:1004F000134B1B68124A43F001031360104B5A68F8
:100500000F49104B13404B600D4B1B680C4A23F0F6
:10051000847323F480331360094B1B68084A23F467
:1005200080231360064B5B68054A23F4FE03536087
:10053000034B4FF41F029A6000BFBD4680BC70475A
:10054000001002400000FFF880B483B000AF786074
:10055000134B1B68124A23F480331360104B1B6843
:100560000F4A23F4802313607B68B3F5803F03D0E8
:10057000B3F5802F07D00DE0094B1B68084A43F400
:100580008033136006E0064B1B68054A43F4A02342
:10059000136000BF00BF0C37BD4680BC704700BF72
:1005A0000010024080B584B000AF0023BB60002380
:1005B000FB710023FB73312000F052FA0346FB73FA
:1005C000BB680133BB60BB68B3F5A06F04D0FB7B95
:1005D000002B01D1012300E00023002B00D0EAE72B
:1005E000312000F03DFA0346002B14BF0123002305
:1005F000DBB2002B02D00123FB7101E00023FB7171
:10060000FB7918461037BD4680BD000080B485B028
:1006100000AF786039600023FB600A4B5B68FB60C9
:10062000FB6823F47C13FB607A683B681343FA6829
:100630001343FB60034AFB68536000BF1437BD4699
:1006400080BC70470010024080B483B000AF034606
:10065000FB71044AFB79136000BF0C37BD4680BCB8
:10066000704700BF6000424280B485B000AF786040
:100670000023FB60094B5B68FB60FB6823F003030E
:10068000FB60FA687B681343FB60044AFB685360B5
:1006900000BF1437BD4680BC704700BF0010024049
:1006A00080B400AF044B5B68DBB203F00C03DBB239
:1006B0001846BD4680BC70470010024080B485B02B
:1006C00000AF78600023FB60094B5B68FB60FB6850
:1006D00023F0F003FB60FA687B681343FB60044A75
:1006E000FB68536000BF1437BD4680BC704700BF35
:1006F0000010024080B485B000AF78600023FB603A
:10070000094B5B68FB60FB6823F4E063FB60FA68FD
:100710007B681343FB60044AFB68536000BF1437D7
:10072000BD4680BC704700BF0010024080B485B059
:1007300000AF78600023FB60094B5B68FB60FB68DF
:1007400023F46053FB607B68DB00FA681343FB60B3
:10075000034AFB68536000BF1437BD4680BC704736
:100760000010024080B485B000AF78600023FB60C9
:10077000094B5B68FB60FB6823F44043FB60FA684D
:100780007B681343FB60044AFB68536000BF143767
:10079000BD4680BC704700BF0010024080B483B0EB
:1007A00000AF0346FB710C4B00221A700A4B00226B
:1007B0001A70FB79012B02D0042B04D007E0064B02
:1007C00001221A7003E0044B05221A7000BF00BF1B
:1007D0000C37BD4680BC70472010024080B483B007
:1007E00000AF7860054B1A6A04497B6813430B62BB
:1007F00000BF0C37BD4680BC704700BF00100240F0
:1008000080B483B000AF0346FB71044AFB791360E8
:1008100000BF0C37BD4680BC704700BF3C0442425D
:1008200080B487B000AF786000237B6100233B6118
:100830000023FB600023BB604F4B5B6803F00C039D
:100840007B617B69042B07D0082B09D0002B38D1A2
:100850007B684A4A1A6038E07B68484A1A6034E08C
:10086000454B5B6803F470133B61434B5B6803F4D7
:100870008033FB603B699B0C02333B61FB68002BC0
:1008800006D13B693E4A02FB03F27B681A601CE01A
:10089000394B5B6803F40033002B14BF01230023A2
:1008A000DBB2002B06D03B69354A02FB03F27B68C2
:1008B0001A600AE03B69314A02FB03F27B681A6066
:1008C00003E07B682D4A1A6000BF2B4B5B6803F086
:1008D000F0037B617B691B097B612A4A7B691344B6
:1008E0001B78DBB2BB607B681A68BB68DA407B6848
:1008F0005A60214B5B6803F4E0637B617B691B0AF0
:100900007B61204A7B6913441B78DBB2BB607B6848
:100910005A68BB68DA407B689A60174B5B6803F4DF
:1009200060537B617B69DB0A7B61164A7B691344F8
:100930001B78DBB2BB607B685A68BB68DA407B68B7
:10094000DA600D4B5B6803F440437B617B699B0B72
:100950007B610D4A7B6913441B78DBB2BB607B680B
:10096000DA68BB68B2FBF3F27B681A6100BF1C3720
:10097000BD4680BC704700BF0010024000127A00E4
:1009800000093D00140000202400002080B483B042
:1009900000AF78600B46FB70FB78002B06D0094B4C
:1009A0005A6908497B6813434B6106E0054B5A6955
:1009B0007B68DB43034913404B6100BF0C37BD46E6
:1009C00080BC70470010024080B483B000AF7860F4
:1009D0000B46FB70FB78002B06D0094B9A6908493F
:1009E0007B6813438B6106E0054B9A697B68DB43A8
:1009F000034913408B6100BF0C37BD4680BC704774
:100A00000010024080B483B000AF78600B46FB70EA
:100A1000FB78002B06D0094BDA6908497B68134341
:100A2000CB6106E0054BDA697B68DB430349134081
:100A3000CB6100BF0C37BD4680BC70470010024040
:100A400080B483B000AF0346FB71044AFB791360A6
:100A500000BF0C37BD4680BC704700BF4004424217
:100A600080B487B000AF0346FB710023FB60002316
:100A70007B610023FB74FB795B11FB60FB68012B3E
:100A800003D1124B1B687B6109E0FB68022B03D189
:100A90000E4B1B6A7B6102E00C4B5B6A7B61FB794E
:100AA00003F01F03FB607A69FB6822FA03F303F08B
:100AB0000103002B02D00123FB7401E00023FB742F
:100AC000FB7C18461C37BD4680BC704700100240B6
:100AD00080B489B000AF786039600023FB610023E7
:100AE0003B610023BB610023FB6000237B6100238B
:100AF000BB603B68DB7803F00F03FB613B68DB788E
:100B000003F01003002B05D03B689B781A46FB6965
:100B10001343FB613B681B88DBB2002B44D07B682E
:100B20001B687B610023BB61BB69072B39D801229D
:100B3000BB6902FA03F3FB603B681B881A46FB683B
:100B400013403B613A69FB689A4226D1BB699B001E
:100B5000FB600F22FB6802FA03F3BB60BB68DB4358
:100B60007A6913407B61FA69FB6802FA03F37A69D8
:100B700013437B613B68DB78282B05D10122BB69DD
:100B80009A407B685A6108E03B68DB78482B04D1C7
:100B90000122BB699A407B681A61BB690133BB6162
:100BA000C2E77B687A691A603B681B88FF2B46D9CD
:100BB0007B685B687B610023BB61BB69072B3BD80B
:100BC000BB690833012202FA03F3FB603B681B8810
:100BD0001A46FB6813403B613A69FB689A4227D189
:100BE000BB699B00FB600F22FB6802FA03F3BB604A
:100BF000BB68DB437A6913407B61FA69FB6802FAE0
:100C000003F37A6913437B613B68DB78282B05D1BA
:100C1000BB69083301229A407B685A613B68DB78E4
:100C2000482B05D1BB69083301229A407B681A61C1
:100C3000BB690133BB61C0E77B687A695A6000BF5A
:100C40002437BD4680BC704780B485B000AF786063
:100C50000B467B800023FB737B689A687B8813407C
:100C6000002B14BF01230023DBB2002B02D0012391
:100C7000FB7301E00023FB73FB7B18461437BD4672
:100C800080BC704780B483B000AF78600B467B8037
:100C90007A887B681A6100BF0C37BD4680BC7047FC
:100CA00080B483B000AF78600B467B807A887B6825
:100CB0005A6100BF0C37BD4680BC704780B58CB010
:100CC00000AF786039600023FB620023BB62002321
:100CD0007B6200233B620023FB617B68FB617B68D6
:100CE0001B8A9BB2FB62FA6A4CF6FF731340FB62ED
:100CF0003B68DB881A46FB6A1343FB62FB6A9AB2C5
:100D00007B681A827B689B899BB2FB62FA6A4EF60B
:100D1000F3131340FB623B689A883B681B891343BB
:100D20009AB23B685B8913439BB21A46FB6A134332
:100D3000FB62FB6A9AB27B689A817B689B8A9BB252
:100D4000FB62FA6A4FF6FF431340FB623B689B89E4
:100D50001A46FB6A1343FB62FB6A9AB27B689A826B
:100D600007F108031846FFF75BFDFB69314A934220
:100D700002D17B69BB6201E03B69BB627B689B89F6
:100D80009BB21BB29BB2DB0BDBB2002B0CD0BA6A5E
:100D900013469B0013449A001A443B681B685B008F
:100DA000B2FBF3F37B620BE0BA6A13469B00134479
:100DB0009A001A443B681B689B00B2FBF3F37B620A
:100DC0007B6A1D4AA2FB03235B091B01FB62FB6AD2
:100DD0001B09642202FB03F37A6AD31A3B627B6825
:100DE0009B899BB21BB29BB2DB0BDBB2002B0CD0FE
:100DF0003B6ADB003233104AA2FB03235B0903F09A
:100E00000703FA6A1343FB620BE03B6A1B013233B0
:100E1000094AA2FB03235B0903F00F03FA6A134399
:100E2000FB62FB6A9AB27B681A8100BF3037BD460D
:100E300080BD00BF003801401F85EB5180B483B0F6
:100E400000AF78600B46FB70FB78002B08D07B6806
:100E50009B899BB243F400539AB27B689A8107E066
:100E60007B689B899BB223F400539AB27B689A817A
:100E700000BF0C37BD4680BC704780B487B000AF60
:100E800078600B467B8013467B7000233B61002318
:100E9000FB600023BB6000237B617B687B617B88F8
:100EA000DBB25B113B617B8803F01F03FB60012217
:100EB000FB6802FA03F3BB603B69012B03D17B693A
:100EC0000C337B6109E03B69022B03D17B69103352
:100ED0007B6102E07B6914337B617B78002B06D059
:100EE0007B6919687B69BA680A431A6006E07B6906
:100EF0001968BB68DA437B690A401A6000BF1C3777
:100F0000BD4680BC704780B483B000AF78600B46AC
:100F10007B8013467B707B78002B08D07B689B8A94
:100F20009AB27B8813439AB27B689A8209E07B6805
:100F30009B8A9AB27B88DB439BB213409AB27B6850
:100F40009A8200BF0C37BD4680BC704780B483B026
:100F500000AF78607B689B889BB2C3F308039BB2A9
:100F600018460C37BD4680BC7047000080B58AB07B
:100F700000AF786039600023FB8400237B84042366
:100F8000BB84574BFB617B689B88FB84FB8C23F005
:100F90003F03FB8407F108031846FFF741FC3B6958
:100FA000FB61FB694F4AA2FB03239B0C7B84FA8CF9
:100FB0007B8C1343FB847B68FA8C9A807B681B884C
:100FC0009BB223F001039AB27B681A800023FB8452
:100FD0003B681B68444A934215D83B681B685B001A
:100FE000FA69B2FBF3F3BB84BB8C032B01D8042357
:100FF000BB84FA8CBB8C1343FB847B8C01339AB289
:101000007B681A8440E03B68DB884BF6FF729342B2
:1010100009D13B681A6813465B001344FA69B2FBB6
:10102000F3F3BB840EE03B681A6813469B0013443D
:101030009A001344FA69B2FBF3F3BB84BB8C43F40C
:101040008043BB84BB8CC3F30B03002B03D1BB8C4D
:1010500043F00103BB84BA8CFB8C13439BB26FEA51
:1010600043436FEA5343FB847B8C4FF4967202FB3D
:1010700003F31E4A82FB03129211DB17D31A9BB2B1
:1010800001339AB27B681A847B68FA8C9A837B68F6
:101090001B889BB243F001039AB27B681A807B687D
:1010A0001B88FB84FB8C23F4816323F00203FB8405
:1010B0003B689A883B685B8913439AB2FB8C134365
:1010C000FB847B68FA8C1A803B689A893B681B8991
:1010D00013439AB27B681A8100BF2837BD4680BD92
:1010E00000127A0083DE1B43A0860100D34D6210FC
:1010F00080B483B000AF78600B46FB70FB78002BA8
:1011000008D07B681B889BB243F001039AB27B68CE
:101110001A8007E07B681B889BB223F001039AB218
:101120007B681A8000BF0C37BD4680BC704780B416
:1011300083B000AF78600B46FB70FB78002B08D0C3
:101140007B681B889BB243F480739AB27B681A80D9
:1011500007E07B681B889BB223F480739AB27B689C
:101160001A8000BF0C37BD4680BC704780B483B086
:1011700000AF78600B46FB70FB78002B08D07B68D3
:101180001B889BB243F400739AB27B681A8007E015
:101190007B681B889BB223F400739AB27B681A8029
:1011A00000BF0C37BD4680BC704780B483B000AF31
:1011B00078600B46FB70FB789AB27B681A8200BF9E
:1011C0000C37BD4680BC704780B483B000AF7860F8
:1011D0000B46FB701346BB70BB78002B04D0FB782A
:1011E00043F00103FB7003E0FB7823F00103FB7085
:1011F000FB789AB27B681A8200BF0C37BD4680BC70
:10120000704780B487B000AF7860396000233B61DD
:101210000023FB600023BB600023FB757B689B8A77
:101220009BB2FB607B681B8B9BB2BB60BB681B04E3
:10123000BB60FA68BB68134323F07F433B613A69A4
:101240003B6813403A689A4202D10123FB7501E0E2
:101250000023FB75FB7D18461C37BD4680BC7047DC
:1012600080B487B000AF786039600023FB7500233D
:101270003B610023FB607B68FB603B681B0F3B61AD
:101280003B6823F07F433B603B69002B14BF012385
:101290000023DBB2002B03D0FB681433FB6005E0B6
:1012A0003B681B0C3B60FB681833FB60FB681A68EB
:1012B0003B681340002B14BF01230023DBB2002B3B
:1012C00002D00123FB7501E00023FB75FB7D18466E
:1012D0001C37BD4680BC704780B400AF054B9B886F
:1012E0009BB2044A43F010039BB2938000BFBD46FB
:1012F00080BC70470028004080B400AF054B9B883D
:101300009BB2044A23F010039BB2938000BFBD46FA
:1013100080BC70470028004080B582B000AF786084
:10132000FFF7DAFF7B681A0C064B92B21A83054B63
:101330007A6892B29A83FFF7DFFF00BF0837BD4695
:1013400080BD00BF0028004080B582B000AF78604B
:10135000FFF7C2FF7B681B0C9BB2074A03F00F0329
:101360009BB21381044B7A6892B29A81FFF7C4FF53
:1013700000BF0837BD4680BD0028004080B400AFE4
:101380000C4B9B889BB20B4A23F008039BB29380C3
:10139000084B9B889BB203F00803002B0CBF012372
:1013A0000023DBB2002B00D0F2E700BFBD4680BCBB
:1013B000704700BF0028004080B483B000AF0346F0
:1013C000FB71044AFB79136000BF0C37BD4680BC3B
:1013D000704700BF20000E4280B485B000AF786037
:1013E00039600023FB607B681B68FB60FB6823F4AB
:1013F000FF4323F07003FB603B689A683B681B6AFD
:101400001A433B681B691A433B685B691A433B6894
:101410009B691A433B68DB691A433B685B6A1A4362
:101420003B689B6A1343FA681343FB607B68FA6866
:101430001A603B68DA687B685A603B681A687B68A8
:101440009A603B685A687B68DA6000BF1437BD4613
:1014500080BC704780B483B000AF78600B46FB70EF
:10146000FB78002B06D07B681B6843F001027B6889
:101470001A6006E07B681A684FF6FE7313407A68BC
:10148000136000BF0C37BD4680BC704780B485B088
:1014900000AFF860B9601346FB71FB79002B06D0F2
:1014A000FB681A68BB681A43FB681A6006E0FB68B1
:1014B0001A68BB68DB431A40FB681A6000BF143728
:1014C000BD4680BC7047000080B483B000AF786038
:1014D0007B6803F08053002B03D0064A7B6853607F
:1014E00002E0054A7B68536000BF0C37BD4680BCF4
:1014F000704700BF000402400000024080B485B085
:1015000000AF786039600023FB600023FB727B68CA
:101510005B68FB60FB6823F4702323F48073FB603B
:101520003B681A683B681B791B021343FA68134334
:10153000FB607B68FA685A607B689B68FB60FA68AE
:10154000164B1340FB603B68DA683B689B681A43A4
:101550003B685B795B001343FA681343FB607B686D
:10156000FA689A607B68DB6AFB60FB6823F47003AF
:10157000FB603B681B7C013BDAB2FB7A1343FB72D6
:10158000FB7A1B05FA681343FB607B68FA68DA6232
:1015900000BF1437BD4680BC704700BFFDF7F1FFA8
:1015A00080B483B000AF78600B46FB70FB78002BF3
:1015B00006D07B689B6843F001027B689A6005E077
:1015C0007B689B6823F001027B689A6000BF0C3740
:1015D000BD4680BC704780B483B000AF78600B46D6
:1015E000FB70FB78002B06D07B689B6843F480720D
:1015F0007B689A6005E07B689B6823F480727B6857
:101600009A6000BF0C37BD4680BC704780B483B081
:1016100000AF78607B689B6843F008027B689A6043
:1016200000BF0C37BD4680BC704780B485B000AFAA
:1016300078600023FB737B689B6803F00803002B32
:1016400014BF01230023DBB2002B02D00123FB7364
:1016500001E00023FB73FB7B18461437BD4680BCBA
:10166000704780B483B000AF78607B689B6843F0BC
:1016700004027B689A6000BF0C37BD4680BC70478F
:1016800080B485B000AF78600023FB737B689B68F3
:1016900003F00403002B14BF01230023DBB2002B53
:1016A00002D00123FB7301E00023FB73FB7B184690
:1016B0001437BD4680BC704780B483B000AF7860FB
:1016C0000B46FB70FB78002B06D07B689B6843F4CD
:1016D000A0027B689A6005E07B689B6823F4A00207
:1016E0007B689A6000BF0C37BD4680BC704780B4F1
:1016F00085B000AF7860084611461A460346FB7075
:101700000B46BB7013467B700023FB600023BB605D
:10171000FB78092B23D97B68DB68FB60FB78A3F19E
:101720000A0213465B001344072202FA03F3BB606C
:10173000BB68DB43FA681340FB607978FB78A3F160
:101740000A0213465B00134401FA03F3BB60FA6814
:10175000BB681343FB607B68FA68DA601EE07B6855
:101760001B69FB60FA7813465B001344072202FAF8
:1017700003F3BB60BB68DB43FA681340FB60797816
:10178000FA7813465B00134401FA03F3BB60FA686E
:10179000BB681343FB607B68FA681A61BB78062B51
:1017A00021D87B685B6BFB60BB785A1E13469B009D
:1017B00013441F2202FA03F3BB60BB68DB43FA68E1
:1017C0001340FB60F978BB785A1E13469B00134404
:1017D00001FA03F3BB60FA68BB681343FB607B68E4
:1017E000FA685A6347E0BB780C2B21D87B681B6BE7
:1017F000FB60BB78DA1F13469B0013441F2202FADA
:1018000003F3BB60BB68DB43FA681340FB60F97805
:10181000BB78DA1F13469B00134401FA03F3BB6045
:10182000FA68BB681343FB607B68FA681A6322E0BE
:101830007B68DB6AFB60BB78A3F10D0213469B005B
:1018400013441F2202FA03F3BB60BB68DB43FA6850
:101850001340FB60F978BB78A3F10D0213469B009F
:10186000134401FA03F3BB60FA68BB681343FB60DF
:101870007B68FA68DA6200BF1437BD4680BC7047E7
:1018800080B483B000AF78607B68DB6C9BB2184695
:101890000C37BD4680BC704780B483B000AF786021
:1018A0000B46FB70FB78002B06D07B685B6843F42B
:1018B00080627B685A6005E07B685B6823F4806225
:1018C0007B685A6000BF0C37BD4680BC704780B44F
:1018D00085B000AF786039600023FB607B689B684F
:1018E000FB60FB6823F4E043FB60FA683B6813434A
:1018F000FB607B68FA689A6000BF1437BD4680BC05
:10190000704780B487B000AF7860084611461A4629
:101910000346FB700B46BB7013467B7000237B6154
:1019200000233B610023FB60FB78092B23D97B68F4
:10193000DB687B61FB78A3F10A0213465B0013446A
:10194000072202FA03F33B613B69DB437A691340E8
:101950007B617978FB78A3F10A0213465B0013449C
:1019600001FA03F33B617A693B6913437B617B684E
:101970007A69DA601EE07B681B697B61FA7813463E
:101980005B001344072202FA03F33B613B69DB432C
:101990007A6913407B617978FA7813465B001344C7
:1019A00001FA03F33B617A693B6913437B617B680E
:1019B0007A691A617B689B6B7B617B691B0D03F005
:1019C0000303FB60FB68DBB2BA78D31ADBB20233E5
:1019D000DBB21A4613469B0013441F2202FA03F39C
:1019E0003B613B69DB437A6913407B61FA78FB68B2
:1019F000DBB2B978CB1ADBB20233DBB219460B4645
:101A00009B000B4402FA03F33B617A693B69134381
:101A10007B617B687A699A6300BF1C37BD4680BCD6
:101A2000704780B485B000AF78600B46FB70002330
:101A3000FB600023BB607B689B6BFB60FB6823F44F
:101A40004013FB60FB78013BBB60BB681B05FA6879
:101A50001343FB607B68FA689A6300BF1437BD4686
:101A600080BC704780B485B000AF78600B46FB70D7
:101A70000023FB607B68FB60FA78FB681344283323
:101A8000FB60FB681B689BB218461437BD4680BCE0
:101A90007047000080B483B000AF0346FB71FB7950
:101AA000002B06D0084B9B68074A43F40003936061
:101AB00005E0054B9B68044A23F40003936000BFD4
:101AC0000C37BD4680BC70470024014080B483B011
:101AD00000AF78607B681B8F9BB218460C37BD4601
:101AE00080BC704780B485B000AF78600B467B80C7
:101AF0000023FB737B681B8A9AB27B8813409BB2DE
:101B0000002B14BF01230023DBB2002B02D00123E2
:101B1000FB7301E00023FB73FB7B18461437BD46C3
:101B200080BC704780B483B000AF78600B467B8088
:101B30007B88DB439AB27B681A8200BF0C37BD46B4
:101B400080BC704780B485B000AF78600B467B8066
:101B50000023FB730023BB8100237B817B681B8AEE
:101B60009AB27B881340BB817B689B899AB27B8841
:101B700013407B81BB89002B05D07B89002B02D0D1
:101B80000123FB7301E00023FB73FB7B1846143732
:101B9000BD4680BC704780B483B000AF78600B4610
:101BA0007B807B88DB439AB27B681A8200BF0C374C
:101BB000BD4680BC7047000080B485B000AF78603F
:101BC0000023FB60094B1B68FB60FB6803F03803D4
:101BD000FB60FA687B681343FB60044AFB68136090
:101BE00000BF1437BD4680BC704700BF00200240D4
:101BF00080B483B000AF7860084B1B68074A23F0BD
:101C000010031360054B1A6804497B6813430B608B
:101C100000BF0C37BD4680BC704700BF00200240AB
:101C200080B483B000AF03463960FB7197F9073089
:101C3000002B0CDB3B68DBB20E4A97F90710084615
:101C40001B01D9B213180A4683F800230CE03B6845
:101C5000DAB2094997F90730DBB203F00F03043B0E
:101C60001201D2B20B441A7600BF0C37BD4680BCBD
:101C7000704700BF00E100E000ED00E080B582B0F9
:101C800000AF78607B68013BB3F1807F01D3012313
:101C90000FE00A4A7B68013B53600F214FF0FF3091
:101CA000FFF7BEFF054B00229A60044B07221A6023
:101CB000002318460837BD4680BD00BF10E000E095
:101CC00080B400AF064B1B68002B04D0044B1B688C
:101CD000013B034A136000BFBD4680BC704700BF94
:101CE0002C01002080B582B000AF7860FEF7ECFADE
:101CF000154B1B68154AA2FB03239B091846FFF7E7
:101D0000BDFF134BDB6803F08073002B0CBF012376
:101D10000023DBB2002B0ED00D4BDB680C4A43F0E6
:101D20008073D3600B4B00225A600A4B1B68094A30
:101D300043F0010313607B6800221A607B68184639
:101D40000837BD4680BD00BF00000020D34D6210A3
:101D5000F0ED00E0001000E080B483B000AF7860E8
:101D60003960064A3B681360044B1B68002B00D0A7
:101D7000FAE700BF0C37BD4680BC70472C0100203D
:101D800080B584B000AF78603960786800F01EF8E4
:101D90000346DB43FB600C4B1A683B6802FB03F312
:101DA000BB60786800F012F80246FB681344BA681A
:101DB0009A428CBF01230023DBB2002B00D0F0E756
:101DC00000BF1037BD4680BD3001002080B483B015
:101DD00000AF7860034B5B6818460C37BD4680BC8B
:101DE000704700BF001000E080B483B000AF78609F
:101DF00039607B68012B0CD13B684FF6FF72934230
:101E000007D1064B1B68064AA2FB03239B0C054A1D
:101E1000136000BF0C37BD4680BC70470000002037
:101E200083DE1B433001002080B500AF4FF6FF7109
:101E30000120FFF7D9FF80BD80B582B000AFFEF76B
:101E400055FB4FF48030FEF77FFBFEF7ABFB0346FC
:101E5000FB71FB79012B32D11020FFF7C9FE022064
:101E6000FFF7AAFE0020FEF729FC0020FEF75EFC2B
:101E70004FF48060FEF73EFC4FF4E0114FF48030E9
:101E8000FEF7C4FB0120FEF7DFFB3920FEF7E8FD7B
:101E90000346002B0CBF01230023DBB2002B00D034
:101EA000F3E70220FEF7E0FBFEF7FAFB0346082B00
:101EB00014BF01230023DBB2002B01D0F4E7FEE7BF
:101EC00000BF0837BD4680BD80B584B000AF7860E4
:101ED000084611461A4603467B800B467B70134624
:101EE0003B707B68224A934202D10423FB6029E0C5
:101EF0007B68204A934202D10823FB6022E07B6882
:101F00001D4A934202D11023FB601BE07B681B4AF1
:101F1000934202D12023FB6014E07B68184A93426D
:101F200002D14023FB600DE07B68164A934202D148
:101F30008023FB6006E07B68134A934213D14FF481
:101F40008073FB600121F868FEF73EFD7B883B81D2
:101F50007B78FB723B78BB7207F1080319467868FF
:101F6000FEF7B6FD00E000BF1037BD4680BD00BFE4
:101F700000080140000C0140001001400014014025
:101F800000180140001C01400020014080B584B0D1
:101F900000AFF860B9601346FB80FB68BA681A604E
:101FA000FB68FA889A80F98803231022B868FFF743
:101FB0008BFFFB6801229A60FB6818461037BD460C
:101FC00080BD80B582B000AF78607B681A687B689E
:101FD0009B8819461046FEF763FE7B6801229A60D3
:101FE00000BF0837BD4680BD80B582B000AF7860C5
:101FF0007B681A687B689B8819461046FEF742FE8C
:102000007B6800229A6000BF0837BD4680BD80B55E
:1020100082B000AF78607B689B68002B03D0786843
:10202000FFF7E2FF02E07868FFF7CBFF00BF083759
:10203000BD4680BD80B483B000AF0346FB7197F905
:102040000730002B0DDB97F90730DBB203F01F02DE
:10205000064997F907305B09012000FA02F241F8BE
:10206000232000BF0C37BD4680BC704700E100E074
:1020700098B500AF114B1B889BB203F02003002BD7
:1020800014BF01230023DBB2002B15D00C4B1B68BF
:102090001B78032B10D80948FEF758FF03461C464F
:1020A000084B1968064B1B681A78501CC0B2187090
:1020B00013460B44E2B21A7000BF98BD00380140CD
:1020C0003C0100203401002098B500AF114B1B8863
:1020D0009BB203F02003002B14BF01230023DBB2CB
:1020E000002B15D00C4B1B681B78032B10D809480C
:1020F000FEF72CFF03461C46084B1968064B1B686D
:102100001A78501CC0B2187013460B44E2B21A7011
:1021100000BF98BD0044004040010020380100206D
:1021200080B500AF4FF40050FFF7CEF90021024810
:10213000FFF790F900BF80BD4400024080B500AFBA
:102140004FF00070FFF7C0F900210248FFF782F955
:1021500000BF80BD8000024080B58AB002AFF86049
:10216000B9607A607B80FB68002283F8D020BB686E
:10217000012B23D1FB686C33464A1360FB68D033D4
:10218000454A1360012144F20400FEF71DFC0121C1
:102190000120FEF7FBFB2523FB77404BBB614FF48F
:1021A0000073FB824FF48063BB82FB683C4A1A6079
:1021B000FB683C4A9A660E23FB7427E0BB68022B3F
:1021C00024D1FB686C33384A1360FB68D033374A3C
:1021D000136001210420FEF7F7FB01214FF40030CA
:1021E000FEF710FC01210220FEF7D0FB2623FB772F
:1021F0002A4BBB610423FB820823BB82FB682C4A69
:102200001A60FB682B4A9A661123FB74F86800F089
:1022100076F8FB7F1946F86800F09AF8F98A0323EC
:102220001822B869FFF750FEB98A03230422B8695F
:10223000FFF74AFE398D7A88BB8D00930B4679688B
:10224000F86800F039F8FB681B6801211846FEF7B2
:10225000F5FDFB681B68012280211846FEF753FE3E
:10226000FB689B6E012202211846FFF70FF997F9D0
:1022700013301846FFF7DEFEFB681B68012240F2B0
:1022800025511846FEF7F9FDFB6818462037BD4674
:1022900080BD00BF340100203C0100200008014047
:1022A0000038014044000240380100204001002075
:1022B000004400408000024080B588B000AFF86064
:1022C000B96011461A460B46FB801346BB80BB68BB
:1022D0003B61FB88BB82BB88FB823B8D3B83002339
:1022E000BB830C237B83FB681B6807F1100211463C
:1022F0001846FEF7E3FC00BF2037BD4680BD80B521
:102300008EB000AF78607B681B680433FB607B682D
:1023100004333B6110237B616423BB610023FB61B9
:1023200080233B6200237B620023BB620023FB62AD
:1023300000233B6300237B637B689B6E07F10C02E9
:1023400011461846FFF748F800BF3837BD4680BD34
:1023500080B584B000AF78600B46FB70FB783B73B0
:1023600000237B730023BB730123FB7307F10C0372
:102370001846FDF7BBFE00BF1037BD4680BD80B5D7
:1023800084B000AF786039600023FB603A68FB6876
:1023900013441B78002B0DD03A68FB68134419785E
:1023A0007A68FB68134404330A461A70FB680133E9
:1023B000FB60EBE77B689B6E00211846FFF74AF84D
:1023C0007B689B6EFA685A607B689B6E0121184699
:1023D000FFF740F800BF1037BD4680BD80B483B022
:1023E00000AF78607B6893F8D03018460C37BD4654
:1023F00080BC704780B483B000AF78607B686C337A
:1024000018460C37BD4680BC704780B584B000AF1D
:10241000F860B9607A607B80FB68BA681A60FB6814
:102420007A685A60FB687A881A81BB691A78FB68F7
:102430009A72BB695A78FB68DA72BB699A78FB6852
:102440001A73FB691A78FB685A73FB695A78FB6840
:102450009A73FB699A78FB68DA733B6A1A78FB68AF
:102460001A743B6A5A78FB685A743B6A9A78FB681C
:102470009A747988032314227868FFF725FDFB6896
:1024800018461037BD4680BD80B582B000AF786079
:102490000B46FB707B685A687B681B89194610469F
:1024A000FEF7FEFB7B681A687B685B7B194610466B
:1024B000FFF766FCFB78002B07D07B685A687B68C7
:1024C0001B8919461046FEF7DDFB7B681A687B689E
:1024D0009B7B19461046FFF753FC7B685A687B6864
:1024E0001B8919461046FEF7CDFB7B681A687B688E
:1024F000DB7B19461046FFF743FC00BF0837BD469B
:1025000080BD80B584B000AF78607B685A687B6816
:102510001B8919461046FEF7C3FB7B681A687B6867
:102520001B7C19461046FFF72BFC7B685A687B68BA
:102530001B8919461046FEF7A5FB7B681A687B6865
:102540005B7C19461046FFF71BFC7B685A687B686A
:102550001B8919461046FEF777FB0346FB737B6821
:102560001A687B689B7C19461046FFF709FCFB7BC9
:1025700018461037BD4680BD80B584B000AF786086
:102580007B685A687B681B8919461046FEF788FBF2
:102590007B6818687B689B7A1A4613469B00134435
:1025A0005B001946FFF7ECFB7B685A687B681B8968
:1025B00019461046FEF766FB7B6818687B68DB7A75
:1025C0001A4613469B0013445B001946FFF7D8FBDD
:1025D0007B685A687B681B8919461046FEF734FBF6
:1025E0000346FB737B6818687B681B7B1A4613469F
:1025F0009B0013445B001946FFF7C2FBFB7B1846A8
:102600001037BD4680BD80B584B000AF78600B4602
:10261000FB700023FB60FB68072B0EDCFB7803F0EC
:102620000103DBB219467868FFF72EFFFB785B10D9
:10263000FB70FB680133FB60EDE700BF1037BD4660
:1026400080BD80B584B000AF78600023FB730023A9
:10265000BB60BB68072B0EDC7868FFF752FF0346B0
:102660001A46FB7B1344FB73FB7B5B00FB73BB686D
:102670000133BB60EDE7FB7B18461037BD4680BDDC
:1026800090B585B000AF786039607868FFF774FF67
:102690000346002B14BF01230023DBB2002B01D023
:1026A000012315E033217868FFF7ADFF0023FB60BD
:1026B000FB68072B0BDCFB683A68D4187868FFF7D7
:1026C000C0FF03462370FB680133FB60F0E7002383
:1026D00018461437BD4690BD80B483B000AF786013
:1026E00039607B683A68DA627B6800229A637B68AB
:1026F00000221A647B680022DA637B6800229A62F7
:102700007B6818460C37BD4680BC704780B582B0E8
:1027100000AF78607B6800229A637B6800221A64AD
:102720007B680022DA63786800F011F803461846E7
:102730000837BD4680BD80B582B000AF786078684C
:1027400000F005F8034618460837BD4680BD80B541
:102750008AB000AF786000237B627B681B6C002B23
:1027600040F0CB80002387F823307B68DB6A184673
:10277000FFF702FF0346002B14BF01230023DBB247
:10278000002B0AD07B6800229A637B6800221A64BF
:102790007B680022DA630023C3E07B68DB6AF021F8
:1027A0001846FFF730FF0123FB610023BB610023C4
:1027B0007B610123BB747B68DB6A1846FFF7A1FECF
:1027C0000346FB607B68DB6A1846FFF79AFE034608
:1027D000BB60FB68012B02D1BB68012B7AD0FA6881
:1027E000BB689A4202D0FB68FB7427E07B689B6B56
:1027F000FA699A420ED27A687B69134430331A78A8
:10280000BB7C1340DBB2002B14BF01230023DBB2DF
:10281000FB7408E07B689B6BFA699A420CBF01234A
:102820000023DBB2FB74FB7C002B07D1FB69BB618F
:10283000BB69082B02D87B68BA69DA63FB7C012B81
:102840000ED17A687B69134430331A78BB7C13430A
:10285000D9B27A687B69134430330A461A7012E0A1
:102860007A687B69134430331B785AB297F9123077
:10287000DB435BB213405BB2D9B27A687B69134425
:1028800030330A461A707B68DB6AFA7C11461846B8
:10289000FFF7FAFDFB690133FB61BB7C5B00BB7496
:1028A000BB7C002B12D17A687B69134430331A78D1
:1028B00097F823301146184600F0A0FE034687F82B
:1028C00023307B6901337B610123BB747B69072B58
:1028D00000D86EE7FB69402B0FD997F82330002B07
:1028E0000BD17B68BA699A637B689B6B002B02D122
:1028F0007B6801221A6401237B627B6A002B04D06F
:102900007B6893F83030002B0AD17B6800229A63F1
:102910007B6800221A647B680022DA6300237B62F2
:102920007B6A18462837BD4680BD80B584B000AFAD
:1029300078607B6800229A627868FFF7E7FEF860AB
:10294000FB68002B2AD00023BB60BB68072B11D883
:102950007B689B6A7968BA680A44303211787A6871
:10296000DB001A44BB6813440A461A70BB68013383
:10297000BB60EAE77B689B6A5A1C7B689A627B684B
:102980009B6A042B8CBF01230023DBB2002B04D1F4
:102990007868FFF7D0FEF860D2E700BF7B689B6ADB
:1029A00018461037BD4680BD80B588B000AF78604E
:1029B0000B46FB701346BB707B68BA781A71FB78C4
:1029C000012B0CD17B68264A1A60264BFB61C02381
:1029D0007B8301214FF40010FEF714F80FE0FB7821
:1029E000022B0CD17B68204A1A601E4BFB614FF40E
:1029F00040637B8301214FF48000FEF703F801213F
:102A00000820FDF7E1FF01210120FDF7DDFF174B55
:102A1000BB600023BB814BF6FF73FB8115233B8218
:102A20004FF480637B824FF48043BB827B681B68DA
:102A300007F1080211461846FEF798FA798B03232E
:102A40001C22F869FFF740FA7B681B6801211846D1
:102A5000FEF74EFB7B6818462037BD4680BD00BFA1
:102A600000540040000C014000580040A0860100C6
:102A700080B582B000AF78600B46FB707B681B6846
:102A80004FF400311846FEF7EBFB0346002B14BF52
:102A900001230023DBB2002B00D0EFE77B681B682B
:102AA00001211846FEF743FB7B681B681F49184647
:102AB000FEF7A7FB0346002B0CBF01230023DBB26C
:102AC000002B00D0F0E77B6818687B681B795B00FF
:102AD000DBB2FA781946FEF777FBFB78002B0ED1B4
:102AE0007B681B6812491846FEF78BFB0346002BD8
:102AF0000CBF01230023DBB2002B12D0F0E7FB78E0
:102B0000012B0ED17B681B680A491846FEF779FB3A
:102B10000346002B0CBF01230023DBB2002B00D0A7
:102B2000F0E700BF0837BD4680BD00BF01000300CD
:102B3000820007000200030080B582B000AF786019
:102B40000B46FB707B681B68FA7811461846FEF747
:102B50002CFB7B681B6808491846FEF752FB0346AE
:102B6000002B0CBF01230023DBB2002B00D0F0E7C9
:102B700000BF0837BD4680BD8400070080B582B025
:102B800000AF78607B681B6801211846FEF7EEFAFB
:102B900008490948FEF735FB0346002B0CBF01230B
:102BA0000023DBB2002B00D0F2E700BF0837BD46A0
:102BB00080BD00BF840007000054004080B584B091
:102BC00000AFF860B9607A60FB70FB68BA681A60A1
:102BD000FB687A685A60FB6800221A72FB68002260
:102BE0005A72FB78012B06D9FB685B7A43F0080325
:102BF000DAB2FB685A72FB6800229A72FB689B7A11
:102C000043F00403DAB2FB689A72FB680022DA72BE
:102C1000FB68DB7A43F00203DAB2FB68DA72FB6826
:102C20005B6832211846FFF797F8FB681B680021A4
:102C30001846FFF71DFFFB681B6800211846FFF7C9
:102C40007BFFFB681B681846FFF798FFFB685B6813
:102C50004FF47A711846FFF77FF83021F86800F0DA
:102C600044F8FB685B6805211846FFF775F83021CA
:102C7000F86800F03AF8FB685B6805211846FFF732
:102C80006BF83021F86800F030F8FB685B6896213B
:102C90001846FFF775F82021F86800F026F8FB6861
:102CA0005B7A43F02003DBB21946F86800F081F844
:102CB000FB689B7A43F00803DBB21946F86800F022
:102CC00078F8F86800F095F8FB68DB7A43F00403C5
:102CD000DBB21946F86800F06CF8F86800F09BF871
:102CE000FB6818461037BD4680BD80B582B000AF86
:102CF00078600B46FB707B681A7AFB781343FB7095
:102D00007B681B6800211846FFF7B2FE7B681B68D2
:102D1000FA7811461846FFF70FFF7B681A68FB78B0
:102D200043F00403DBB219461046FFF705FF7B684A
:102D30005B6801211846FFF723F87B681A68FB7867
:102D400023F00403DBB219461046FFF7F5FE7B685B
:102D50005B6832211846FFF713F87B681B6818463A
:102D6000FFF70CFF00BF0837BD4680BD80B582B0BD
:102D700000AF78600B46FB701346BB70FB7823F006
:102D80000F03DAB2BB781343DBB219467868FFF75A
:102D9000ACFFFB781B015AB297F9023013435BB2C8
:102DA000DBB219467868FFF7A0FF00BF0837BD46C1
:102DB00080BD80B582B000AF78600B46FB70FB78B9
:102DC000002219467868FFF7D1FF00BF0837BD46DB
:102DD00080BD80B582B000AF78600B46FB70FB7899
:102DE000012219467868FFF7C1FF00BF0837BD46CA
:102DF00080BD80B582B000AF786001217868FFF7B0
:102E0000D8FF7B685B6802211846FEF7A5FF00BF6C
:102E10000837BD4680BD80B582B000AF7860022122
:102E20007868FFF7C6FF7B685B6802211846FEF7EB
:102E300093FF00BF0837BD4680BD80B582B000AFAC
:102E400078600B46FB70FB78002B03D07B68012277
:102E50001A7202E07B6800221A7200217868FFF77C
:102E600044FF00BF0837BD4680BD80B582B000AFCB
:102E7000786039603B681B78002B08D03B685A1C8F
:102E80003A601B7819467868FFF7A3FFF2E700BFA6
:102E90000837BD4680BD000080B584B000AF7860C3
:102EA0003960786800F022F80346002B14BF012334
:102EB0000023DBB2002B11D00B4A07F1080392E884
:102EC000030083E803004FF4FA713868FEF744FF0B
:102ED00007F108031946786800F04CF87B6818463B
:102EE0001037BD4680BD00BFF83A000880B582B0FB
:102EF00000AF786001214FF0C050FDF783FD012045
:102F0000FEF75AFA1A4B1B6A03F40043B3F5004F5D
:102F100014BF01230023DBB2002B23D00120FDF7D7
:102F20008FFD0020FDF78CFD0120FDF737FC104BD5
:102F30001B6A03F00203022B14BF01230023DBB240
:102F4000002B00D0F3E74FF48070FDF747FC47F605
:102F5000FF70FEF7F9F90120FDF752FCFEF70EFABB
:102F6000012300E0002318460837BD4680BD00BF9E
:102F70000010024080B582B000AF786039603868D8
:102F800000F0A4FA03461846FEF7C6F900BF08375A
:102F9000BD4680BD80B586B000AFF860B9607A608C
:102FA000FB70FB682E4A12689A63BB68012B03D141
:102FB000FB682C4A1A6002E0FB682B4A1A60FB6827
:102FC0007A689A60FB68FA781A71FB680022DA6105
:102FD000FB681B79002B07D13B6A042B28BF042315
:102FE0001A46FB68DA601EE0FB681B79012B1AD1D8
:102FF0003B6A012B17D9FB681B681A4A93420FD111
:103000003B6A0C2B28BF0C231A46FB68DA603B6A2C
:10301000012B01D9012200E00022FB68DA6102E005
:10302000FB680122DA6000237B61FB68DB687A6958
:103030009A420DD27A6A7B6913441978FA687B69DF
:10304000134410330A461A707B6901337B61ECE745
:10305000F86800F00BF8FB6818461837BD4680BDCD
:10306000003B0008002401400028014080B598B0D2
:1030700000AF78607B689B681846FDF773FB7B6840
:103080001B68AA4A934202D14FF4007301E04FF447
:10309000806301211846FDF797FC7B68DB69002BF4
:1030A0002AD001210120FDF771FC7B68DB687B6180
:1030B00000233B6100233B637B682033FB604FF4BC
:1030C00080637B628023FB612023BB627B681B687B
:1030D0004C33BB604FF480733B620023BB614FF401
:1030E0000053FB6207F1080319469148FEF774F993
:1030F00001218F48FEF7AEF90023A7F85E300023C8
:10310000A7F85C300023BB657B68DB68BA6D9A4228
:103110002BD27A68BB6D134410331B78BB64BB6C35
:10312000072B0BD80122BB6C02FA03F31AB2B7F9D2
:103130005E3013431BB2A7F85E3012E0BB6C082B65
:1031400006D1B7F85C3043F00103A7F85C3008E023
:10315000BB6C092B05D1B7F85C3043F00203A7F82C
:103160005C30BB6D0133BB65CEE7B7F85E30002B3A
:1031700006D0B7F85E10032300226E48FEF7A4FEC7
:10318000B7F85C30002B06D0B7F85C1003230022A0
:103190006948FEF799FE012387F8393000237B63E5
:1031A0007B68DB68012B01D9012300E0002387F84D
:1031B00038304FF46023FB6300233B647B68DB689B
:1031C000DBB287F844307B681B6807F13402114694
:1031D0001846FEF793F97B681B79002B29D17B6891
:1031E0001A687B68DB68DBB219461046FEF719FCEB
:1031F00000237B657B68DB687A6D9A4211D27B681D
:1032000018687A687B6D1344103319787B6DDBB2D4
:103210000133DAB20123FEF774FB7B6D01337B656A
:10322000E8E77B681B684FF4E0411846FEF74FFB68
:1032300018E000233B657B68DB683A6D9A4211D247
:103240007B6818687A683B6D1344103319783B6DBE
:10325000DBB20133DAB20123FEF749FA3B6D0133E9
:103260003B65E8E70023FB647B68DB68FA6C9A4205
:103270000DD27A68FB6C134410331B78102B02D1EB
:103280000120FEF707FCFB6C0133FB64ECE77B6875
:103290001B6801211846FEF783F97B68DB69002B68
:1032A00005D07B681B6801211846FEF794F97B68FE
:1032B0001B681846FEF7AAF97B681B681846FEF7DC
:1032C000B4F90346002B14BF01230023DBB2002B0B
:1032D00000D0F1E77B681B681846FEF7C2F97B68EF
:1032E0001B681846FEF7CCF90346002B14BF0123D8
:1032F0000023DBB2002B00D0F1E701210B48FEF7E1
:103300004FF97B681B79002B05D17B681B68012175
:103310001846FEF7C1FA7B681B6801211846FEF7C4
:10332000CBF900BF6037BD4680BD00BF002401401F
:103330000800024000080140000C014080B582B046
:1033400000AF786039607B681B79012B10D17B68F6
:10335000DB69002B05D07B683A68103233F81230F5
:1033600011E07B681B681846FEF78AFA03460AE0FC
:103370007B6818687A683B68134438331B781946B1
:10338000FEF770FB034618460837BD4680BD0000B7
:1033900080B500AF04214FF08040FEF7D3FB034619
:1033A000002B14BF01230023DBB2002B3DD00421EE
:1033B0004FF08040FEF7EFFB1D4B1A881D4B1A8023
:1033C0004FF08040FEF782FB03461A46184B1A80E6
:1033D000174B1A88174B1B889A4207D3144B1B882C
:1033E0001A46144B1B88D31A1A4608E0114B1B8847
:1033F000C3F57F43FF330E4A128813441A460E4B1F
:103400001A604FF480614FF08040FEF76BFB03467B
:10341000002B14BF01230023DBB2002B05D04FF497
:1034200080614FF08040FEF77DFB00BF80BD00BF94
:1034300046010020440100204801002080B485B0EE
:1034400000AF786039601F4BBB600023FB60FB68F6
:10345000092B08DC1C4AFB68134430221A70FB68F5
:103460000133FB60F3E7FB685A1EFA60164A00213D
:10347000D154FB68002B01DA134B1EE03A687B68DD
:10348000B3FBF2F102FB01F29B1ABA6813441978FC
:103490000D4AFB6813440A461A703B687A68B2FB0F
:1034A000F3F37B607B68002B03D1FB68064A13446F
:1034B00003E0FB68013BFB60DBE718461437BD46C1
:1034C00080BC7047083B00084C01002080B487B0E6
:1034D00000AF78607B685B79C3F10E03424A82FBE0
:1034E00003125210DB17D31AFB757B68DA88FB7D59
:1034F0009BB2D31A9BB203F59653BB827B685A7971
:10350000FB7D194649000B449B00DBB21344DBB240
:10351000033BFB747B68DB78FB60FA7C1346DB00C3
:1035200013441A0113440233304A82FB031252102F
:10353000DB17D31A1A46FB681344FB60BB8A40F2C0
:103540006D1202FB03F31A46FB681344FB60BB8A4F
:103550009B089BB21A46FB681344FB60BB8A5B4224
:10356000234A82FB03125211DB17D31A1A46FB6857
:103570001344FB60BB8A1E4AA2FB0323DB099BB2F8
:103580001A46FB681344FB60FB68A3F5FA432D3B26
:10359000FB60FA68174B1344FB60FB68164A02FB9A
:1035A00003F3FB607B681B781A464FF4616303FBEF
:1035B00002F31A46FB681344FB607B685B781A468B
:1035C00013461B019B1A9B001A46FB681344FB60C1
:1035D0007B689B781A46FB681344FB60FB681846BF
:1035E0001C37BD4680BC7047ABAAAA2A67666666D0
:1035F0001F85EB5174C2DAFF8051010080B483B0A3
:1036000000AF03460A46FB711346BB71FA79BB79DA
:103610005340DBB21A46034B9B5C18460C37BD4641
:1036200080BC70472800002080B582B000AF786071
:10363000396039687868FEF7A2FE7B68184608375B
:10364000BD4680BD80B586B000AFF860B9607A60D5
:103650002149F868FFF7E8FFF868FEF7BFFE034668
:10366000082B94BF01230023DBB2002B03D064217D
:10367000B868FEF771FB1949F868FFF7D5FF00231A
:103680007B617B69082B22D81549F868FFF7CCFFCE
:10369000F868FEF7AFFE02467B6913441B780A21E7
:1036A0001846FFF7CBFE03461946F868FFF7BCFF44
:1036B000F868FEF79FFE02467B691A4479687B69C9
:1036C0000B4412781A707B6901337B61D9E700BF24
:1036D0001837BD4680BD00BF203B0008443B0008B2
:1036E000503B000880B5FAB004AFFEF7A5FB07F524
:1036F000E2731846FEF7F6FA07F1F0000023019393
:103700000023009300234FF4E1320121FEF724FD52
:1037100007F1E4034FF40052CB491846FEF736FC9C
:1037200007F1DC03272201211846FFF73DF907F5D1
:10373000E27207F1DC0107F1D0000223FFF73EFA45
:1037400007F5E27207F1CC0311461846FFF7A4FB18
:1037500007F1C0031A46002313605360936007F11A
:10376000C00310221A7007F1C00311225A7007F12A
:10377000840007F1C00301930223009301234FF457
:1037800000420121FFF706FC07F1F003AF4918469C
:10379000FFF74AFF07F1D00301211846FFF74DFB61
:1037A00007F1D003AA491846FFF75FFB07F178033A
:1037B000A84A07CA03C31A7007F5E27107F164004B
:1037C00007F178030633029307F17803033301937B
:1037D00007F1780300934FF480739F4AFEF715FEBC
:1037E00007F1F0039D491846FFF71EFF07F15C0241
:1037F00007F1640311461846FEF742FF0346002B0B
:1038000014BF01230023DBB2002B06D007F1F00325
:1038100093491846FFF708FF05E007F1F0039149C7
:103820001846FFF701FF07F1F0038F491846FFF72D
:10383000FBFE0023C7F8D431D7F8D431072B1CD8AE
:1038400007F15C02D7F8D43113441B7810211846D5
:10385000FFF7F4FD024607F1F00311461846FFF7A3
:10386000E3FE07F1F00381491846FFF7DDFED7F8C4
:10387000D4310133C7F8D431DEE707F1640207F130
:10388000180311461846FEF727FF07F1F0037849A1
:103890001846FFF7C9FE07F118031846FFF745F869
:1038A0000346002B14BF01230023DBB2002B51D0B1
:1038B00007F1F0036F491846FFF7B6FE07F118034A
:1038C0009B6A0A211846FFF7B9FD024607F1F0038B
:1038D00011461846FFF7A8FE0023C7F8D03107F1BC
:1038E00018039B6AD7F8D0219A4239D207F1F00326
:1038F00061491846FFF798FE0023C7F8CC31D7F886
:10390000CC31072B20D807F11802D7F8D031DB00D3
:103910001A44D7F8CC3113441B7810211846FFF70E
:103920008DFD024607F1F00311461846FFF77CFEB5
:1039300007F1F0034D491846FFF776FED7F8CC3172
:103940000133C7F8CC31DAE7D7F8D0310133C7F803
:10395000D031C4E707F1F00348491846FFF764FE89
:1039600007F1F00346491846FFF75EFE07F18403AE
:1039700010211846FFF7E2FC034610211846FFF716
:103980005DFD024607F1F00311461846FFF74CFEB5
:1039900003463C491846FFF747FE07F1840311210F
:1039A0001846FFF7CBFC034610211846FFF746FDEB
:1039B000024607F1F00311461846FFF735FE07F5FA
:1039C000E2734FF47A711846FEF7C6F907F1E40383
:1039D0001846FEF71CFB07F1780207F5E27107F1C4
:1039E000F0031846FFF72EFE07F5E271381D07F1C8
:1039F00078030633029307F178030333019307F149
:103A0000780300934FF48073134AFEF7FEFC07F12E
:103A1000F00312491846FFF707FE07F15C0207F1B1
:103A2000640311461846FEF72BFE0346002B14BF15
:103A300001230023DBB2002B26D007F1F003084955
:103A40001846FFF7F1FD25E000100140543B000847
:103A5000703B0008F83B0008000801407C3B000870
:103A6000943B00089C3B0008A03B0008B43B0008C6
:103A7000B83B0008CC3B0008D43B0008D83B00080A
:103A8000E43B0008F43B000807F1F0031649184630
:103A9000FFF7CAFD07F1F00314491846FFF7C4FD0C
:103AA0000023C7F8C831D7F8C831072B87D807F1EA
:103AB0005C02D7F8C83113441B7810211846FFF771
:103AC000BDFC024607F1F00311461846FFF7ACFDB6
:103AD00007F1F00306491846FFF7A6FDD7F8C831ED
:103AE0000133C7F8C831DEE79C3B0008A03B000863
:103AF000B43B00088C3D2500000000010001E207F6
:103B000014181C208C3D25003031323334353637C3
:103B10003839414243444546000000008C3D2500B1
:103B20000D0A5761697420666F722072656365695A
:103B30007665206F662074696D656F7574732E2EBF
:103B40002E0000000D0A52656365697665643A00CF
:103B50000D0A2D0048656C6C6F2E0D0A55534152AD
:103B600054312069732072656164792E0D0A00005A
:103B700048656C6C6F204C43440000000D0A6F6E6A
:103B8000655F776972652073656E643A20307833BB
:103B9000332C2000537563630000000045727200EF
:103BA0000D0A6F6E655F7769726520726573703A92
:103BB000200000002C0000000D0A5365617263684C
:103BC0002073746172743A2000000000666F756E95
:103BD000642000000D0A00006E6F7420666F756E21
:103BE000640000000D0A41444320746573743A2058
:103BF000000000002C2000003C0A32035A05010797
:013C00005A69
:103C010000A24A04000000000000000001020304B9
:103C11000607080900000000010203040102030471
:103C21000607080902040608005EBCE2613FDD8365
:103C3100C29C7E20A3FD1F419DC3217FFCA2401E8B
:103C41005F01E3BD3E6082DC237D9FC1421CFEA07B
:103C5100E1BF5D0380DE3C62BEE0025CDF81633D6B
:103C61007C22C09E1D43A1FF4618FAA427799BC55B
:103C710084DA3866E5BB5907DB856739BAE406584B
:103C81001947A5FB7826C49A653BD987045AB8E63B
:103C9100A7F91B45C6987A24F8A6441A99C7257B2B
:103CA1003A6486D85B05E7B98CD2306EEDB3510F1B
:103CB1004E10F2AC2F7193CD114FADF3702ECC920B
:103CC100D38D6F31B2EC0E50AFF1134DCE90722CFB
:103CD1006D33D18F0C52B0EE326C8ED0530DEFB1EB
:103CE100F0AE4C1291CF2D73CA947628ABF51749DB
:103CF1000856B4EA6937D58B5709EBB536688AD4CB
:103D010095CB2977F4AA4816E9B7550B88D6346ABA
:103D11002B7597C94A14F6A8742AC896154BA9F7AA
:0C3D2100B6E80A54D7896B35291E00084B
:0400000508000000EF
:00000001FF
