:020000040800F2
:1000000000500020A9010008EF010008F1010008DC
:10001000F3010008F5010008F701000800000000E6
:10002000000000000000000000000000F9010008CE
:10003000FB01000800000000FD0100087D1200081F
:100040000302000805020008070200080902000870
:100050000B0200080D0200080F0200081102000840
:100060001302000815020008170200081902000810
:100070001B0200081D0200081F02000821020008E0
:1000800023020008250200082702000829020008B0
:100090002B0200082D0200082F0200083102000880
:1000A0003302000835020008370200083902000850
:1000B0003B0200083D0200083F0200084102000820
:1000C00043020008450200084702000849020008F0
:1000D0004B020008151600084F02000851020008E4
:1000E00053020008550200085702000880B487B088
:1000F00000AF786000237B6100233B610F23FB602E
:100100007B68DB78002B38D0254BDB68DB431B0A90
:1001100003F007037B617B69C3F104033B61FA6869
:100120007B6922FA03F3FB607B685B781A463B69C4
:1001300002FA03F37B617B689B781A46FB681340E5
:100140007A6913437B617B691B017B61154A7B687C
:100150001B787969C9B213440A4683F800237B6887
:100160001B7803F01F020F497B681B785B1101208D
:1001700000FA02F241F823200DE07B681B7803F0BF
:100180001F0208497B681B785B11012000FA02F20C
:10019000203341F8232000BF1C37BD4680BC704788
:1001A00000ED00E000E100E00649074A074B9A42F3
:1001B000BEBF51F8040B42F8040BF8E7044880472F
:1001C0000448004772230008000000202800002097
:1001D00061020008D90100081F49204A002301E0FC
:1001E00041F8043B9142FBD301F050FFFEE7FEE7EC
:1001F000FEE7FEE7FEE7FEE7FEE7FEE7FEE7FEE7D7
:10020000FEE7FEE7FEE7FEE7FEE7FEE7FEE7FEE7C6
:10021000FEE7FEE7FEE7FEE7FEE7FEE7FEE7FEE7B6
:10022000FEE7FEE7FEE7FEE7FEE7FEE7FEE7FEE7A6
:10023000FEE7FEE7FEE7FEE7FEE7FEE7FEE7FEE796
:10024000FEE7FEE7FEE7FEE7FEE7FEE7FEE7FEE786
:10025000FEE7FEE7FEE7FEE7280000204000002062
:1002600080B500AF154B1B68144A43F001031360BF
:10027000124B5A681149124B13404B600F4B1B68CD
:100280000E4A23F0847323F4803313600B4B1B68F6
:100290000A4A23F480231360084B5B68074A23F45F
:1002A000FE035360054B4FF41F029A6000F07EF886
:1002B000044B4FF000629A6000BF80BD0010024006
:1002C0000000FFF800ED00E080B485B000AF00232F
:1002D000FB600023BB6000237B602F4B5B6803F057
:1002E0000C03FB60FB68042B07D0082B09D0002B04
:1002F00038D12A4B2A4A1A6038E0284B284A1A601B
:1003000034E0254B5B6803F47013BB60224B5B68E1
:1003100003F480337B60BB689B0C0233BB607B685B
:10032000002B06D1BB681F4A02FB03F31B4A136074
:100330001CE0194B5B6803F40033002B14BF01234E
:100340000023DBB2002B06D0BB68164A02FB03F386
:10035000124A13600AE0BB68114A02FB03F30F4A1A
:10036000136003E00D4B0E4A1A6000BF0A4B5B6836
:100370001B0903F00F030C4AD35CDBB2FB60074B95
:100380001A68FB6822FA03F3044A136000BF1437AB
:10039000BD4680BC704700BF001002400000002036
:1003A00000127A0000093D000400002080B500AF73
:1003B00000F002F800BF80BD80B483B000AF00231E
:1003C0007B6000233B60474B1B68464A43F4803305
:1003D0001360444B1B6803F400333B607B680133BC
:1003E0007B603B68002B05D17B68B3F5A06F01D023
:1003F000012300E00023002B00D0EAE7394B1B6803
:1004000003F40033002B14BF01230023DBB2002BC5
:1004100002D001233B6001E000233B603B68012BDD
:100420000CBF01230023DBB2002B55D02E4B1B68E1
:100430002D4A43F0100313602B4B1B682A4A23F00C
:1004400003031360284B1B68274A43F00203136021
:10045000244B244A5B685360224B224A5B685360FA
:10046000204B5B681F4A43F4806353601D4B5B68FD
:100470001C4A23F47C1353601A4B5B68194A43F4FB
:10048000E8135360174B1B68164A43F080731360E0
:10049000144B1B6803F00073002B0CBF01230023D7
:1004A000DBB2002B00D0F3E70E4B5B680D4A23F064
:1004B000030353600B4B5B680A4A43F0020353602B
:1004C000084B5B6803F00C03082B14BF01230023C7
:1004D000DBB2002B00D0F3E700BF0C37BD4680BC79
:1004E000704700BF001002400020024080B400AFFF
:1004F000134B1B68124A43F001031360104B5A68F8
:100500000F49104B13404B600D4B1B680C4A23F0F6
:10051000847323F480331360094B1B68084A23F467
:1005200080231360064B5B68054A23F4FE03536087
:10053000034B4FF41F029A6000BFBD4680BC70475A
:10054000001002400000FFF880B483B000AF786074
:10055000134B1B68124A23F480331360104B1B6843
:100560000F4A23F4802313607B68B3F5803F03D0E8
:10057000B3F5802F07D00DE0094B1B68084A43F400
:100580008033136006E0064B1B68054A43F4A02342
:10059000136000BF00BF0C37BD4680BC704700BF72
:1005A0000010024080B584B000AF0023BB60002380
:1005B000FB710023FB73312000F0C6F90346FB7387
:1005C000BB680133BB60BB68B3F5A06F04D0FB7B95
:1005D000002B01D1012300E00023002B00D0EAE72B
:1005E000312000F0B1F90346002B14BF0123002392
:1005F000DBB2002B02D00123FB7101E00023FB7171
:10060000FB7918461037BD4680BD000080B485B028
:1006100000AF786039600023FB600A4B5B68FB60C9
:10062000FB6823F47C13FB607A683B681343FA6829
:100630001343FB60034AFB68536000BF1437BD4699
:1006400080BC70470010024080B483B000AF034606
:10065000FB71044AFB79136000BF0C37BD4680BCB8
:10066000704700BF6000424280B485B000AF786040
:100670000023FB60094B5B68FB60FB6823F003030E
:10068000FB60FA687B681343FB60044AFB685360B5
:1006900000BF1437BD4680BC704700BF0010024049
:1006A00080B400AF044B5B68DBB203F00C03DBB239
:1006B0001846BD4680BC70470010024080B485B02B
:1006C00000AF78600023FB60094B5B68FB60FB6850
:1006D00023F0F003FB60FA687B681343FB60044A75
:1006E000FB68536000BF1437BD4680BC704700BF35
:1006F0000010024080B485B000AF78600023FB603A
:10070000094B5B68FB60FB6823F4E063FB60FA68FD
:100710007B681343FB60044AFB68536000BF1437D7
:10072000BD4680BC704700BF0010024080B485B059
:1007300000AF78600023FB60094B5B68FB60FB68DF
:1007400023F46053FB607B68DB00FA681343FB60B3
:10075000034AFB68536000BF1437BD4680BC704736
:100760000010024080B487B000AF786000237B6146
:1007700000233B610023FB600023BB604F4B5B68A1
:1007800003F00C037B617B69042B07D0082B09D095
:10079000002B38D17B684A4A1A6038E07B68484AA7
:1007A0001A6034E0454B5B6803F470133B61434BC4
:1007B0005B6803F48033FB603B699B0C02333B6155
:1007C000FB68002B06D13B693E4A02FB03F27B68C3
:1007D0001A601CE0394B5B6803F40033002B14BF34
:1007E00001230023DBB2002B06D03B69354A02FB14
:1007F00003F27B681A600AE03B69314A02FB03F2AC
:100800007B681A6003E07B682D4A1A6000BF2B4B9F
:100810005B6803F0F0037B617B691B097B612A4AFB
:100820007B6913441B78DBB2BB607B681A68BB68CA
:10083000DA407B685A60214B5B6803F4E0637B61BC
:100840007B691B0A7B61204A7B6913441B78DBB2FE
:10085000BB607B685A68BB68DA407B689A60174B5C
:100860005B6803F460537B617B69DB0A7B61164A3A
:100870007B6913441B78DBB2BB607B685A68BB683A
:10088000DA407B68DA600D4B5B6803F440437B61C0
:100890007B699B0B7B610D4A7B6913441B78DBB240
:1008A000BB607B68DA68BB68B2FBF3F27B681A61F5
:1008B00000BF1C37BD4680BC704700BF001002401F
:1008C00000127A0000093D001400002024000020DE
:1008D00080B483B000AF78600B46FB70FB78002BD0
:1008E00006D0094B9A6908497B6813438B6106E07F
:1008F000054B9A697B68DB43034913408B6100BF5A
:100900000C37BD4680BC70470010024080B483B0F5
:1009100000AF78600B46FB70FB78002B06D0094BCC
:10092000DA6908497B681343CB6106E0054BDA6955
:100930007B68DB4303491340CB6100BF0C37BD46E6
:1009400080BC70470010024080B487B000AF0346FF
:10095000FB710023FB6000237B610023FB74FB79A8
:100960005B11FB60FB68012B03D1124B1B687B61A1
:1009700009E0FB68022B03D10E4B1B6A7B6102E08E
:100980000C4B5B6A7B61FB7903F01F03FB607A69A8
:10099000FB6822FA03F303F00103002B02D00123CA
:1009A000FB7401E00023FB74FB7C18461C37BD463A
:1009B00080BC70470010024080B489B000AF7860FE
:1009C00039600023FB6100233B610023BB610023EE
:1009D000FB6000237B610023BB603B68DB7803F096
:1009E0000F03FB613B68DB7803F01003002B05D09D
:1009F0003B689B781A46FB691343FB613B681B8885
:100A0000DBB2002B44D07B681B687B610023BB6199
:100A1000BB69072B39D80122BB6902FA03F3FB60DB
:100A20003B681B881A46FB6813403B613A69FB68C8
:100A30009A4226D1BB699B00FB600F22FB6802FA39
:100A400003F3BB60BB68DB437A6913407B61FA69DF
:100A5000FB6802FA03F37A6913437B613B68DB7836
:100A6000282B05D10122BB699A407B685A6108E0B6
:100A70003B68DB78482B04D10122BB699A407B6834
:100A80001A61BB690133BB61C2E77B687A691A608E
:100A90003B681B88FF2B46D97B685B687B61002322
:100AA000BB61BB69072B3BD8BB690833012202FA43
:100AB00003F3FB603B681B881A46FB6813403B61ED
:100AC0003A69FB689A4227D1BB699B00FB600F2201
:100AD000FB6802FA03F3BB60BB68DB437A6913402F
:100AE0007B61FA69FB6802FA03F37A6913437B615D
:100AF0003B68DB78282B05D1BB69083301229A407B
:100B00007B685A613B68DB78482B05D1BB690833A9
:100B100001229A407B681A61BB690133BB61C0E75F
:100B20007B687A695A6000BF2437BD4680BC704735
:100B300080B485B000AF78600B467B800023FB73E8
:100B40007B689A687B881340002B14BF0123002325
:100B5000DBB2002B02D00123FB7301E00023FB7307
:100B6000FB7B18461437BD4680BC704780B483B009
:100B700000AF78600B467B807A887B681A6100BF83
:100B80000C37BD4680BC704780B483B000AF78603E
:100B90000B467B807A887B685A6100BF0C37BD4664
:100BA00080BC704780B58CB000AF7860396000239E
:100BB000FB620023BB6200237B6200233B620023B5
:100BC000FB617B68FB617B681B8A9BB2FB62FA6AF4
:100BD0004CF6FF731340FB623B68DB881A46FB6AE6
:100BE0001343FB62FB6A9AB27B681A827B689B891B
:100BF0009BB2FB62FA6A4EF6F3131340FB623B684A
:100C00009A883B681B8913439AB23B685B891343FC
:100C10009BB21A46FB6A1343FB62FB6A9AB27B687B
:100C20009A817B689B8A9BB2FB62FA6A4FF6FF430C
:100C30001340FB623B689B891A46FB6A1343FB62C5
:100C4000FB6A9AB27B689A8207F108031846FFF79D
:100C500089FDFB69314A934202D17B69BB6201E0A5
:100C60003B69BB627B689B899BB21BB29BB2DB0B6F
:100C7000DBB2002B0CD0BA6A13469B0013449A00D7
:100C80001A443B681B685B00B2FBF3F37B620BE02A
:100C9000BA6A13469B0013449A001A443B681B68C7
:100CA0009B00B2FBF3F37B627B6A1D4AA2FB03232A
:100CB0005B091B01FB62FB6A1B09642202FB03F355
:100CC0007A6AD31A3B627B689B899BB21BB29BB248
:100CD000DB0BDBB2002B0CD03B6ADB003233104A5B
:100CE000A2FB03235B0903F00703FA6A1343FB62C9
:100CF0000BE03B6A1B013233094AA2FB03235B0969
:100D000003F00F03FA6A1343FB62FB6A9AB27B6833
:100D10001A8100BF3037BD4680BD00BF003801409A
:100D20001F85EB5180B483B000AF78600B46FB7039
:100D3000FB78002B08D07B689B899BB243F400535F
:100D40009AB27B689A8107E07B689B899BB223F407
:100D500000539AB27B689A8100BF0C37BD4680BCB5
:100D6000704780B487B000AF78600B467B80134635
:100D70007B7000233B610023FB600023BB600023EA
:100D80007B617B687B617B88DBB25B113B617B882D
:100D900003F01F03FB600122FB6802FA03F3BB6050
:100DA0003B69012B03D17B690C337B6109E03B6913
:100DB000022B03D17B6910337B6102E07B69143322
:100DC0007B617B78002B06D07B6919687B69BA68E8
:100DD0000A431A6006E07B691968BB68DA437B69DD
:100DE0000A401A6000BF1C37BD4680BC704780B403
:100DF00083B000AF78600B467B807B88C3F3080329
:100E00009AB27B689A8000BF0C37BD4680BC7047A1
:100E100080B483B000AF78607B689B889BB2C3F3DB
:100E200008039BB218460C37BD4680BC704780B49F
:100E300085B000AF78600B467B800023FB737B6836
:100E40001B889AB27B8813409BB2002B14BF0123EE
:100E50000023DBB2002B02D00123FB7301E000234F
:100E6000FB73FB7B18461437BD4680BC70470000FF
:100E700080B58AB000AF786039600023FB8400231E
:100E80007B840423BB84574BFB617B689B88FB847A
:100E9000FB8C23F03F03FB8407F108031846FFF7A0
:100EA00061FC3B69FB61FB694F4AA2FB03239B0C7E
:100EB0007B84FA8C7B8C1343FB847B68FA8C9A804E
:100EC0007B681B889BB223F001039AB27B681A806F
:100ED0000023FB843B681B68444A934215D83B6857
:100EE0001B685B00FA69B2FBF3F3BB84BB8C032B7A
:100EF00001D80423BB84FA8CBB8C1343FB847B8C0A
:100F000001339AB27B681A8440E03B68DB884BF679
:100F1000FF72934209D13B681A6813465B00134481
:100F2000FA69B2FBF3F3BB840EE03B681A68134620
:100F30009B0013449A001344FA69B2FBF3F3BB8499
:100F4000BB8C43F48043BB84BB8CC3F30B03002BEB
:100F500003D1BB8C43F00103BB84BA8CFB8C1343DD
:100F60009BB26FEA43436FEA5343FB847B8C4FF49D
:100F7000967202FB03F31E4A82FB03129211DB17E7
:100F8000D31A9BB201339AB27B681A847B68FA8CBD
:100F90009A837B681B889BB243F001039AB27B68FB
:100FA0001A807B681B88FB84FB8C23F4816323F00D
:100FB0000203FB843B689A883B685B8913439AB2BF
:100FC000FB8C1343FB847B68FA8C1A803B689A89FC
:100FD0003B681B8913439AB27B681A8100BF28378C
:100FE000BD4680BD00127A0083DE1B43A08601004F
:100FF000D34D621080B483B000AF78600B46FB70B5
:10100000FB78002B08D07B681B889BB243F0010360
:101010009AB27B681A8007E07B681B889BB223F03A
:1010200001039AB27B681A8000BF0C37BD4680BCB2
:10103000704780B483B000AF78600B46FB70FB78DC
:10104000002B08D07B681B889BB243F480739AB254
:101050007B681A8007E07B681B889BB223F480734F
:101060009AB27B681A8000BF0C37BD4680BC7047BF
:1010700080B483B000AF78600B46FB70FB78002B28
:1010800008D07B681B889BB243F400739AB27B68DC
:101090001A8007E07B681B889BB223F400739AB226
:1010A0007B681A8000BF0C37BD4680BC704780B497
:1010B00083B000AF78600B46FB70FB789AB27B6818
:1010C0001A8200BF0C37BD4680BC704780B483B025
:1010D00000AF78600B46FB701346BB70BB78002BEB
:1010E00004D0FB7843F00103FB7003E0FB7823F0AE
:1010F0000103FB70FB789AB27B681A8200BF0C3741
:10110000BD4680BC704780B487B000AF786039605E
:1011100000233B610023FB600023BB600023FB75C1
:101120007B689B8A9BB2FB607B681B8B9BB2BB601E
:10113000BB681B04BB60FA68BB68134323F07F43A2
:101140003B613A693B6813403A689A4202D10123F5
:10115000FB7501E00023FB75FB7D18461C37BD467F
:1011600080BC704780B487B000AF786039600023DE
:10117000FB7500233B610023FB607B68FB603B68E1
:101180001B0F3B613B6823F07F433B603B69002BB7
:1011900014BF01230023DBB2002B03D0FB68143300
:1011A000FB6005E03B681B0C3B60FB681833FB6091
:1011B000FB681A683B681340002B14BF012300230F
:1011C000DBB2002B02D00123FB7501E00023FB758D
:1011D000FB7D18461C37BD4680BC704780B483B089
:1011E00000AF03463960FB7197F90730002B0DDA29
:1011F0003B68DAB20E4997F90730DBB203F00F0310
:10120000043B1201D2B20B441A760BE03B68DBB20E
:10121000084A97F9071008461B01D9B213180A4665
:1012200083F8002300BF0C37BD4680BC704700BF69
:1012300000ED00E000E100E080B582B000AF786032
:101240007B68B3F1807F01D3012311E07B6823F039
:101250007F43094A013B53600F214FF0FF30FFF7F6
:10126000BDFF054B00229A60034B07221A60002342
:1012700018460837BD4680BD10E000E080B400AFDE
:10128000064B1B68002B04D0044B1B68013B034A30
:10129000136000BFBD4680BC704700BF2C0000201B
:1012A00080B582B000AF78601A4B1B681A4AA2FB67
:1012B00003239A0C7B681A60FFF706F8154B1B682E
:1012C000164AA2FB03239B091846FFF7B5FF144BF0
:1012D000DB6803F08073002B0CBF01230023DBB21B
:1012E000002B0ED00E4BDB680D4A43F08073D360A9
:1012F0000C4B00225A600B4B1B680A4A43F0010357
:101300001360094A7B6813607B6818460837BD463E
:1013100080BD00BF0000002083DE1B43D34D621060
:10132000F0ED00E0001000E02800002080B483B061
:1013300000AF78603960064A3B681360044B1B6855
:10134000002B00D0FAE700BF0C37BD4680BC7047C9
:101350002C00002080B485B000AF786039600C4B61
:101360005A687B681B68396801FB03F31344FB6010
:10137000074B5B681A46FB68D31ADB0FDBB2002B06
:1013800000D0F5E700BF1437BD4680BC704700BFF2
:10139000001000E080B485B000AF786039601F4B6A
:1013A000BB600023FB60FB68092B08DC1C4AFB6860
:1013B000134430221A70FB680133FB60F3E7FB68CB
:1013C0005A1EFA60164A0021D154FB68002B01DA3C
:1013D000134B1EE03A687B68B3FBF2F102FB01F2AB
:1013E0009B1ABA68134419780D4AFB6813440A46DD
:1013F0001A703B687A68B2FBF3F37B607B68002B62
:1014000003D1FB68064A134403E0FB68013BFB6021
:10141000DBE718461437BD4680BC7047BC22000885
:101420003000002080B582B000AFFFF75FF84FF4C6
:101430008030FFF789F8FFF7B5F80346FB71FB79B9
:10144000012B2CD10020FFF739F90020FFF76EF9AE
:101450004FF48060FFF74EF94FF4E0114FF4803005
:10146000FFF7D4F80120FFF7EFF83920FFF76CFA07
:101470000346002B0CBF01230023DBB2002B00D05E
:10148000F3E70220FFF7F0F8FFF70AF90346082B0D
:1014900014BF01230023DBB2002B01D0F4E7FEE7E9
:1014A00000BF0837BD4680BD80B584B000AF78600E
:1014B000084611461A4603467B800B467B7013464E
:1014C0003B707B68224A934202D10423FB6029E0EF
:1014D0007B68204A934202D10823FB6022E07B68AC
:1014E0001D4A934202D11023FB601BE07B681B4A1C
:1014F000934202D12023FB6014E07B68184A934298
:1015000002D14023FB600DE07B68164A934202D172
:101510008023FB6006E07B68134A934213D14FF4AB
:101520008073FB600121F868FFF7D2F97B883B816B
:101530007B78FB723B78BB7207F108031946786829
:10154000FFF73AFA00E000BF1037BD4680BD00BF8C
:1015500000080140000C014000100140001401404F
:1015600000180140001C01400020014080B584B0FB
:1015700000AFF860B9601346FB80FB68BA681A6078
:10158000FB68FA889A80F98803231022B868FFF76D
:101590008BFFFB6801229A60FB6818461037BD4636
:1015A00080BD80B582B000AF78607B681A687B68C8
:1015B0009B8819461046FFF7E7FA7B6801229A607C
:1015C00000BF0837BD4680BD80B582B000AF7860EF
:1015D0007B681A687B689B8819461046FFF7C6FA35
:1015E0007B6800229A6000BF0837BD4680BD80B589
:1015F00082B000AF78607B689B68002B03D078686E
:10160000FFF7E2FF02E07868FFF7CBFF00BF083783
:10161000BD4680BD98B500AF0C4B1B889BB203F054
:101620002003002B14BF01230023DBB2002B0AD0C0
:10163000074B1C680548FFF7EBFB0346DBB2194676
:10164000204600F0B0F800BF98BD00BF0038014050
:101650003C00002080B58AB002AFF860B9607A60C3
:101660007B80FB68002283F86820BB68012B37D1A0
:10167000012144F20400FFF72BF92523FB771B4BD4
:10168000BB614FF40073FB824FF48063BB82FB6845
:10169000174A1A60FB7F3B7400237B740023BB74E2
:1016A0000123FB7407F110031846FEF71FFDF98AAA
:1016B00003231822B869FFF7F7FEB98A032304222F
:1016C000B869FFF7F1FE398D7A88BB8D00930B4620
:1016D0007968F86800F010F8064AFB68136000E0CB
:1016E00000BFFB6818462037BD4680BD000801409A
:1016F000003801403C00002080B588B000AFF860A1
:10170000B96011461A460B46FB801346BB80BB6886
:101710003B61FB88BB82BB88FB823B8D3B83002304
:10172000BB830C237B83FB681B6807F11002114607
:101730001846FFF737FAFB681B6801211846FFF7C8
:10174000F1FAFB681B68012240F225511846FFF7A9
:1017500008FB00BF2037BD4680BD80B582B000AF1A
:10176000786039603B681B78002B18D07B6818685C
:101770003B685A1C3A601B789BB21946FFF737FB4F
:101780007B681B6840211846FFF751FB0346002B7E
:101790000CBF01230023DBB2002BE3D0F0E700BF36
:1017A0000837BD4680BD80B483B000AF78600B467B
:1017B000FB707B6893F86830632B0CD87B6893F8D8
:1017C00068305A1CD1B27A6882F868101A467B6871
:1017D0001344FA781A7100BF0C37BD4680BC7047BD
:1017E00080B483B000AF78607B6893F868301846A7
:1017F0000C37BD4680BC704780B483B000AF7860C2
:101800007B68043318460C37BD4680BC7047000027
:1018100080B584B000AFF860B9607A607B80FB6807
:10182000BA681A60FB687A685A60FB687A881A811D
:10183000FB68104A0A331188927819809A70FB6805
:101840000D4A0D331188927819809A70FB680B4A03
:1018500010331268114619800233120C1A707988FD
:10186000032314227868FFF71FFEFB681846103721
:10187000BD4680BDD0220008D4220008D82200082E
:1018800080B584B000AFF860B9607A607B80FB6897
:10189000BA681A60FB687A685A60FB687A881A81AD
:1018A000BB691A78FB689A72BB695A78FB68DA726E
:1018B000BB699A78FB681A73FB691A78FB685A73DC
:1018C000FB695A78FB689A73FB699A78FB68DA734C
:1018D0003B6A1A78FB681A743B6A5A78FB685A7438
:1018E0003B6A9A78FB689A74798803231422786893
:1018F000FFF7DAFDFB6818461037BD4680BD80B59E
:1019000082B000AF78600B46FB707B685A687B68DA
:101910001B8919461046FFF737F97B681A687B6800
:101920005B7B19461046FFF715FDFB78002B07D0AF
:101930007B685A687B681B8919461046FFF716F9C1
:101940007B681A687B689B7B19461046FFF702FD8F
:101950007B685A687B681B8919461046FFF706F9B1
:101960007B681A687B68DB7B19461046FFF7F2FC40
:1019700000BF0837BD4680BD80B584B000AF786039
:101980007B685A687B681B8919461046FFF7FCF88C
:101990007B681A687B681B7C19461046FFF7DAFCE7
:1019A0007B685A687B681B8919461046FFF7DEF88A
:1019B0007B681A687B685B7C19461046FFF7CAFC97
:1019C0007B685A687B681B8919461046FFF7B0F898
:1019D0000346FB737B681A687B689B7C194610463C
:1019E000FFF7B8FCFB7B18461037BD4680BD80B5BD
:1019F00084B000AF78607B685A687B681B891946A1
:101A00001046FFF7C1F87B6818687B689B7A1A4616
:101A100013469B0013445B001946FFF79BFC7B6851
:101A20005A687B681B8919461046FFF79FF87B6848
:101A300018687B68DB7A1A4613469B0013445B00E8
:101A40001946FFF787FC7B685A687B681B89194633
:101A50001046FFF76DF80346FB737B6818687B68D8
:101A60001B7B1A4613469B0013445B001946FFF785
:101A700071FCFB7B18461037BD4680BD80B584B035
:101A800000AF78600B46FB700023FB60FB68072B00
:101A90000EDCFB7803F00103DBB219467868FFF730
:101AA0002EFFFB785B10FB70FB680133FB60EDE7FA
:101AB00000BF1037BD4680BD80B584B000AF7860F0
:101AC0000023FB730023BB60BB68072B0EDC786828
:101AD000FFF752FF03461A46FB7B1344FB73FB7B65
:101AE0005B00FB73BB680133BB60EDE7FB7B184613
:101AF0001037BD4680BD90B585B000AF78603960C5
:101B00007868FFF774FF0346002B14BF01230023FE
:101B1000DBB2002B01D0012315E033217868FFF7F9
:101B2000ADFF0023FB60FB68072B0BDCFB683A680A
:101B3000D4187868FFF7C0FF03462370FB680133B1
:101B4000FB60F0E7002318461437BD4690BD000047
:101B500080B588B000AF78600B46FB701346BB7051
:101B60007B68BA781A71FB78012B13D17B681D4A08
:101B70001A601D4BFB61C0237B8301210820FEF707
:101B8000A7FE01210120FEF7A3FE01214FF4001062
:101B9000FEF7BCFE154BBB600023BB814BF6FF7309
:101BA000FB8115233B824FF480637B824FF480439B
:101BB000BB827B681B6807F1080211461846FFF7D5
:101BC00057F9798B03231C22F869FFF76DFC7B68BA
:101BD0001B6801211846FFF70DFA7B68184620376D
:101BE000BD4680BD00540040000C0140A0860100AD
:101BF00080B582B000AF78600B46FB707B681B68D5
:101C00004FF400311846FFF7ADFA0346002B14BF1E
:101C100001230023DBB2002B00D0EFE77B681B68B9
:101C200001211846FFF705FA7B681B681F49184613
:101C3000FFF769FA0346002B0CBF01230023DBB238
:101C4000002B00D0F0E77B6818687B681B795B008D
:101C5000DBB2FA781946FFF739FAFB78002B0ED180
:101C60007B681B6812491846FFF74DFA0346002BA4
:101C70000CBF01230023DBB2002B12D0F0E7FB786E
:101C8000012B0ED17B681B680A491846FFF73BFA07
:101C90000346002B0CBF01230023DBB2002B00D036
:101CA000F0E700BF0837BD4680BD00BF010003005C
:101CB000820007000200030080B582B000AF7860A8
:101CC0000B46FB7000217868FFF792FF7B681B686A
:101CD000FA7811461846FFF7EAF97B681B680B494A
:101CE0001846FFF710FA0346002B0CBF0123002310
:101CF000DBB2002B00D0F0E77B681B68012118469F
:101D0000FFF7B6F900BF0837BD4680BD8400070065
:101D100080B584B000AFF860B9607A60FB70FB6892
:101D2000BA681A60FB687A685A60FB6800221A7207
:101D3000FB6800225A72FB78012B06D9FB685B7A9C
:101D400043F00803DAB2FB685A72FB6800229A7209
:101D5000FB689B7A43F00403DAB2FB689A72FB6873
:101D60000022DA72FB68DB7A43F00203DAB2FB6826
:101D7000DA72FB685B6832211846FFF7D7FAFB6816
:101D80001B6800211846FFF797FFFB685B684FF45C
:101D90007A711846FFF7CAFA3021F86800F044F863
:101DA000FB685B6805211846FFF7C0FA3021F86828
:101DB00000F03AF8FB685B6805211846FFF7B6FAB1
:101DC0003021F86800F030F8FB685B68962118460F
:101DD000FFF7C0FA2021F86800F026F8FB685B7A6C
:101DE00043F02003DBB21946F86800F076F8FB6890
:101DF0009B7A43F00803DBB21946F86800F06DF8EF
:101E0000F86800F08AF8FB68DB7A43F00403DBB281
:101E10001946F86800F061F8F86800F090F8FB687F
:101E200018461037BD4680BD80B582B000AF7860DF
:101E30000B46FB707B681A7AFB781343FB707B6858
:101E40001B68FA7811461846FFF736FF7B681A6858
:101E5000FB7843F00403DBB219461046FFF72CFF72
:101E60007B685B6801211846FFF774FA7B681A6883
:101E7000FB7823F00403DBB219461046FFF71CFF82
:101E80007B685B6832211846FFF764FA00BF0837A9
:101E9000BD4680BD80B582B000AF78600B46FB7058
:101EA0001346BB70FB7823F00F03DAB2BB78134301
:101EB000DBB219467868FFF7B7FFFB781B015AB20F
:101EC00097F9023013435BB2DBB219467868FFF72B
:101ED000ABFF00BF0837BD4680BD80B582B000AF04
:101EE00078600B46FB70FB78002219467868FFF794
:101EF000D1FF00BF0837BD4680BD80B582B000AFBE
:101F000078600B46FB70FB78012219467868FFF772
:101F1000C1FF00BF0837BD4680BD80B582B000AFAD
:101F2000786001217868FFF7D8FF7B685B68022141
:101F30001846FFF7FBF900BF0837BD4680BD80B5E6
:101F400082B000AF786002217868FFF7C6FF7B6837
:101F50005B6802211846FFF7E9F900BF0837BD4664
:101F600080BD80B582B000AF78600B46FB70FB7817
:101F7000002B03D07B6801221A7202E07B680022EA
:101F80001A7200217868FFF74FFF00BF0837BD467F
:101F900080BD80B582B000AF786039603B681B7847
:101FA000002B08D03B685A1C3A601B7819467868A9
:101FB000FFF7A3FFF2E700BF0837BD4680BD80B53D
:101FC00082B000AF7860396039687868FFF7C5FB88
:101FD0007B6818460837BD4680BD000080B586B0D6
:101FE00000AF7860244B1B683B61244B1B68FB608F
:101FF00023493869FFF7E3FF3869FFF7F1FB034630
:10200000082B94BF01230023DBB2002B03D06421F3
:10201000F868FFF78BF91B493869FFF7D0FF0023F9
:102020007B617B69082B22DC17493869FFF7C7FF02
:102030003869FFF7E1FB02467B6913441B780A21EC
:102040001846FFF7A7F9034619463869FFF7B7FFA7
:102050003869FFF7D1FB02467B691A447B697968CE
:102060000B4412781A707B6901337B61D9E700BF9A
:102070001837BD4680BD00BF3C000020280000206E
:10208000DC220008002300080C23000880B5BCB047
:1020900004AFFFF7C7F907F1CC031846FFF700F9C3
:1020A00007F16000002301930023009300234FF405
:1020B000E1320121FFF7CEFA07F154034FF4005249
:1020C00073491846FFF752FA07F14C032722012102
:1020D0001846FFF73DFD07F1CC0207F14C0107F16F
:1020E00040000223FFF714FE6A4B1B68C7F8D43088
:1020F000694B1B68C7F8D0306849D7F8D400FFF7A0
:102100005EFF07F1400301211846FFF72AFF07F1A0
:10211000400363491846FFF73CFF07F124004FF4E2
:102120008073604AD7F8D010FFF772FB5E49D7F88A
:10213000D400FFF744FF07F1380207F124031146EA
:102140001846FFF7D8FC0346002B14BF01230023D9
:10215000DBB2002B05D05549D7F8D400FFF72FFF8D
:1021600004E05349D7F8D400FFF729FF5149D7F8C5
:10217000D400FFF724FF0023C7F8DC30D7F8DC30A9
:10218000072B1ADC07F13802D7F8DC3013441B7830
:1021900010211846FFF7FEF803461946D7F8D40079
:1021A000FFF70DFF4449D7F8D400FFF708FFD7F831
:1021B000DC300133C7F8DC30E0E74FF47A71D7F850
:1021C000D000FFF7B3F807F154031846FFF70FFAF2
:1021D00007F118031846FFF701FF381D07F1180330
:1021E0000633029307F118030333019307F1180331
:1021F00000934FF480732B4AD7F8D010FFF740FBC1
:102200002949D7F8D400FFF7DAFE07F1380207F1C1
:10221000240311461846FFF76EFC0346002B14BF3B
:1022200001230023DBB2002B05D02049D7F8D400CE
:10223000FFF7C5FE04E01E49D7F8D400FFF7BFFE44
:102240001C49D7F8D400FFF7BAFE0023C7F8D830EE
:10225000D7F8D830072BB0DC07F13802D7F8D830E0
:1022600013441B7810211846FFF794F803461946CB
:10227000D7F8D400FFF7A3FE0F49D7F8D400FFF733
:102280009EFED7F8D8300133C7F8D830E0E700BF5A
:10229000001001403C00002028000020102300080E
:1022A0002C230008000801403823000850230008B0
:1022B000582300085C2300087023000830313233B3
:1022C0003435363738394142434445460000000032
:1022D0003C0A3200035A050001075A000D0A5761F3
:1022E000697420666F722072656365697665206F18
:1022F000662074696D656F7574732E2E2E00000054
:102300000D0A52656365697665643A000D0A2D0011
:1023100048656C6C6F2E0D0A55534152543120693B
:10232000732072656164792E0D0A000048656C6C3B
:102330006F204C43440000006F6E655F77697265E3
:102340002073656E643A20307833332C200000000F
:102350005375636300000000457272000D0A6F6ED2
:10236000655F7769726520726573703A20000000BE
:022370002C003F
:1023720000A24A0400000000000000000102030461
:102382000607080900000000010203040102030419
:08239200060708090204060811
:0400000508000000EF
:00000001FF
