:020000040800F2
:1000000000500020A9010008EF010008F1010008DC
:10001000F3010008F5010008F701000800000000E6
:10002000000000000000000000000000F9010008CE
:10003000FB01000800000000FD0100083D1F000852
:100040000302000805020008070200080902000870
:100050000B0200080D0200080F0200081102000840
:100060001302000815020008170200081902000810
:100070001B0200081D020008A92300082102000835
:1000800023020008C52300082702000829020008EF
:100090002B0200082D0200082F0200083102000880
:1000A0003302000835020008370200083902000850
:1000B0006D3900083D0200083F02000841020008B7
:1000C00043020008450200084702000849020008F0
:1000D0004B020008E92200084923000851020008E9
:1000E00053020008550200085702000880B487B088
:1000F00000AF786000237B6100233B610F23FB602E
:100100007B68DB78002B38D0254BDB68DB431B0A90
:1001100003F007037B617B69C3F104033B61FA6869
:100120007B6922FA03F3FB607B685B781A463B69C4
:1001300002FA03F37B617B689B781A46FB681340E5
:100140007A6913437B617B691B017B61154A7B687C
:100150001B787969C9B213440A4683F800237B6887
:100160001B7803F01F020F497B681B785B1101208D
:1001700000FA02F241F823200DE07B681B7803F0BF
:100180001F0208497B681B785B11012000FA02F20C
:10019000203341F8232000BF1C37BD4680BC704788
:1001A00000ED00E000E100E00649074A074B9A42F3
:1001B000BEBF51F8040B42F8040BF8E7044880472F
:1001C00004480047A646000800000020280100203F
:1001D00061020008D90100081F49204A002301E0FC
:1001E00041F8043B9142FBD303F062FFFEE7FEE7D8
:1001F000FEE7FEE7FEE7FEE7FEE7FEE7FEE7FEE7D7
:10020000FEE7FEE7FEE7FEE7FEE7FEE7FEE7FEE7C6
:10021000FEE7FEE7FEE7FEE7FEE7FEE7FEE7FEE7B6
:10022000FEE7FEE7FEE7FEE7FEE7FEE7FEE7FEE7A6
:10023000FEE7FEE7FEE7FEE7FEE7FEE7FEE7FEE796
:10024000FEE7FEE7FEE7FEE7FEE7FEE7FEE7FEE786
:10025000FEE7FEE7FEE7FEE728010020530100204D
:1002600080B500AF154B1B68144A43F001031360BF
:10027000124B5A681149124B13404B600F4B1B68CD
:100280000E4A23F0847323F4803313600B4B1B68F6
:100290000A4A23F480231360084B5B68074A23F45F
:1002A000FE035360054B4FF41F029A6000F07EF886
:1002B000044B4FF000629A6000BF80BD0010024006
:1002C0000000FFF800ED00E080B485B000AF00232F
:1002D000FB600023BB6000237B602F4B5B6803F057
:1002E0000C03FB60FB68042B07D0082B09D0002B04
:1002F00038D12A4B2A4A1A6038E0284B284A1A601B
:1003000034E0254B5B6803F47013BB60224B5B68E1
:1003100003F480337B60BB689B0C0233BB607B685B
:10032000002B06D1BB681F4A02FB03F31B4A136074
:100330001CE0194B5B6803F40033002B14BF01234E
:100340000023DBB2002B06D0BB68164A02FB03F386
:10035000124A13600AE0BB68114A02FB03F30F4A1A
:10036000136003E00D4B0E4A1A6000BF0A4B5B6836
:100370001B0903F00F030C4AD35CDBB2FB60074B95
:100380001A68FB6822FA03F3044A136000BF1437AB
:10039000BD4680BC704700BF001002400000002036
:1003A00000127A0000093D000400002080B500AF73
:1003B00000F002F800BF80BD80B483B000AF00231E
:1003C0007B6000233B60474B1B68464A43F4803305
:1003D0001360444B1B6803F400333B607B680133BC
:1003E0007B603B68002B05D17B68B3F5A06F01D023
:1003F000012300E00023002B00D0EAE7394B1B6803
:1004000003F40033002B14BF01230023DBB2002BC5
:1004100002D001233B6001E000233B603B68012BDD
:100420000CBF01230023DBB2002B55D02E4B1B68E1
:100430002D4A43F0100313602B4B1B682A4A23F00C
:1004400003031360284B1B68274A43F00203136021
:10045000244B244A5B685360224B224A5B685360FA
:10046000204B5B681F4A43F4806353601D4B5B68FD
:100470001C4A23F47C1353601A4B5B68194A43F4FB
:10048000E8135360174B1B68164A43F080731360E0
:10049000144B1B6803F00073002B0CBF01230023D7
:1004A000DBB2002B00D0F3E70E4B5B680D4A23F064
:1004B000030353600B4B5B680A4A43F0020353602B
:1004C000084B5B6803F00C03082B14BF01230023C7
:1004D000DBB2002B00D0F3E700BF0C37BD4680BC79
:1004E000704700BF001002400020024080B400AFFF
:1004F000134B1B68124A43F001031360104B5A68F8
:100500000F49104B13404B600D4B1B680C4A23F0F6
:10051000847323F480331360094B1B68084A23F467
:1005200080231360064B5B68054A23F4FE03536087
:10053000034B4FF41F029A6000BFBD4680BC70475A
:10054000001002400000FFF880B483B000AF786074
:10055000134B1B68124A23F480331360104B1B6843
:100560000F4A23F4802313607B68B3F5803F03D0E8
:10057000B3F5802F07D00DE0094B1B68084A43F400
:100580008033136006E0064B1B68054A43F4A02342
:10059000136000BF00BF0C37BD4680BC704700BF72
:1005A0000010024080B584B000AF0023BB60002380
:1005B000FB710023FB73312000F052FA0346FB73FA
:1005C000BB680133BB60BB68B3F5A06F04D0FB7B95
:1005D000002B01D1012300E00023002B00D0EAE72B
:1005E000312000F03DFA0346002B14BF0123002305
:1005F000DBB2002B02D00123FB7101E00023FB7171
:10060000FB7918461037BD4680BD000080B485B028
:1006100000AF786039600023FB600A4B5B68FB60C9
:10062000FB6823F47C13FB607A683B681343FA6829
:100630001343FB60034AFB68536000BF1437BD4699
:1006400080BC70470010024080B483B000AF034606
:10065000FB71044AFB79136000BF0C37BD4680BCB8
:10066000704700BF6000424280B485B000AF786040
:100670000023FB60094B5B68FB60FB6823F003030E
:10068000FB60FA687B681343FB60044AFB685360B5
:1006900000BF1437BD4680BC704700BF0010024049
:1006A00080B400AF044B5B68DBB203F00C03DBB239
:1006B0001846BD4680BC70470010024080B485B02B
:1006C00000AF78600023FB60094B5B68FB60FB6850
:1006D00023F0F003FB60FA687B681343FB60044A75
:1006E000FB68536000BF1437BD4680BC704700BF35
:1006F0000010024080B485B000AF78600023FB603A
:10070000094B5B68FB60FB6823F4E063FB60FA68FD
:100710007B681343FB60044AFB68536000BF1437D7
:10072000BD4680BC704700BF0010024080B485B059
:1007300000AF78600023FB60094B5B68FB60FB68DF
:1007400023F46053FB607B68DB00FA681343FB60B3
:10075000034AFB68536000BF1437BD4680BC704736
:100760000010024080B485B000AF78600023FB60C9
:10077000094B5B68FB60FB6823F44043FB60FA684D
:100780007B681343FB60044AFB68536000BF143767
:10079000BD4680BC704700BF0010024080B483B0EB
:1007A00000AF0346FB710C4B00221A700A4B00226B
:1007B0001A70FB79012B02D0042B04D007E0064B02
:1007C00001221A7003E0044B05221A7000BF00BF1B
:1007D0000C37BD4680BC70472010024080B483B007
:1007E00000AF7860054B1A6A04497B6813430B62BB
:1007F00000BF0C37BD4680BC704700BF00100240F0
:1008000080B483B000AF0346FB71044AFB791360E8
:1008100000BF0C37BD4680BC704700BF3C0442425D
:1008200080B487B000AF786000237B6100233B6118
:100830000023FB600023BB604F4B5B6803F00C039D
:100840007B617B69042B07D0082B09D0002B38D1A2
:100850007B684A4A1A6038E07B68484A1A6034E08C
:10086000454B5B6803F470133B61434B5B6803F4D7
:100870008033FB603B699B0C02333B61FB68002BC0
:1008800006D13B693E4A02FB03F27B681A601CE01A
:10089000394B5B6803F40033002B14BF01230023A2
:1008A000DBB2002B06D03B69354A02FB03F27B68C2
:1008B0001A600AE03B69314A02FB03F27B681A6066
:1008C00003E07B682D4A1A6000BF2B4B5B6803F086
:1008D000F0037B617B691B097B612A4A7B691344B6
:1008E0001B78DBB2BB607B681A68BB68DA407B6848
:1008F0005A60214B5B6803F4E0637B617B691B0AF0
:100900007B61204A7B6913441B78DBB2BB607B6848
:100910005A68BB68DA407B689A60174B5B6803F4DF
:1009200060537B617B69DB0A7B61164A7B691344F8
:100930001B78DBB2BB607B685A68BB68DA407B68B7
:10094000DA600D4B5B6803F440437B617B699B0B72
:100950007B610D4A7B6913441B78DBB2BB607B680B
:10096000DA68BB68B2FBF3F27B681A6100BF1C3720
:10097000BD4680BC704700BF0010024000127A00E4
:1009800000093D00140000202400002080B483B042
:1009900000AF78600B46FB70FB78002B06D0094B4C
:1009A0005A6908497B6813434B6106E0054B5A6955
:1009B0007B68DB43034913404B6100BF0C37BD46E6
:1009C00080BC70470010024080B483B000AF7860F4
:1009D0000B46FB70FB78002B06D0094B9A6908493F
:1009E0007B6813438B6106E0054B9A697B68DB43A8
:1009F000034913408B6100BF0C37BD4680BC704774
:100A00000010024080B483B000AF78600B46FB70EA
:100A1000FB78002B06D0094BDA6908497B68134341
:100A2000CB6106E0054BDA697B68DB430349134081
:100A3000CB6100BF0C37BD4680BC70470010024040
:100A400080B483B000AF0346FB71044AFB791360A6
:100A500000BF0C37BD4680BC704700BF4004424217
:100A600080B487B000AF0346FB710023FB60002316
:100A70007B610023FB74FB795B11FB60FB68012B3E
:100A800003D1124B1B687B6109E0FB68022B03D189
:100A90000E4B1B6A7B6102E00C4B5B6A7B61FB794E
:100AA00003F01F03FB607A69FB6822FA03F303F08B
:100AB0000103002B02D00123FB7401E00023FB742F
:100AC000FB7C18461C37BD4680BC704700100240B6
:100AD00080B489B000AF786039600023FB610023E7
:100AE0003B610023BB610023FB6000237B6100238B
:100AF000BB603B68DB7803F00F03FB613B68DB788E
:100B000003F01003002B05D03B689B781A46FB6965
:100B10001343FB613B681B88DBB2002B44D07B682E
:100B20001B687B610023BB61BB69072B39D801229D
:100B3000BB6902FA03F3FB603B681B881A46FB683B
:100B400013403B613A69FB689A4226D1BB699B001E
:100B5000FB600F22FB6802FA03F3BB60BB68DB4358
:100B60007A6913407B61FA69FB6802FA03F37A69D8
:100B700013437B613B68DB78282B05D10122BB69DD
:100B80009A407B685A6108E03B68DB78482B04D1C7
:100B90000122BB699A407B681A61BB690133BB6162
:100BA000C2E77B687A691A603B681B88FF2B46D9CD
:100BB0007B685B687B610023BB61BB69072B3BD80B
:100BC000BB690833012202FA03F3FB603B681B8810
:100BD0001A46FB6813403B613A69FB689A4227D189
:100BE000BB699B00FB600F22FB6802FA03F3BB604A
:100BF000BB68DB437A6913407B61FA69FB6802FAE0
:100C000003F37A6913437B613B68DB78282B05D1BA
:100C1000BB69083301229A407B685A613B68DB78E4
:100C2000482B05D1BB69083301229A407B681A61C1
:100C3000BB690133BB61C0E77B687A695A6000BF5A
:100C40002437BD4680BC704780B485B000AF786063
:100C50000B467B800023FB737B689A687B8813407C
:100C6000002B14BF01230023DBB2002B02D0012391
:100C7000FB7301E00023FB73FB7B18461437BD4672
:100C800080BC704780B483B000AF78600B467B8037
:100C90007A887B681A6100BF0C37BD4680BC7047FC
:100CA00080B483B000AF78600B467B807A887B6825
:100CB0005A6100BF0C37BD4680BC704780B58CB010
:100CC00000AF786039600023FB620023BB62002321
:100CD0007B6200233B620023FB617B68FB617B68D6
:100CE0001B8A9BB2FB62FA6A4CF6FF731340FB62ED
:100CF0003B68DB881A46FB6A1343FB62FB6A9AB2C5
:100D00007B681A827B689B899BB2FB62FA6A4EF60B
:100D1000F3131340FB623B689A883B681B891343BB
:100D20009AB23B685B8913439BB21A46FB6A134332
:100D3000FB62FB6A9AB27B689A817B689B8A9BB252
:100D4000FB62FA6A4FF6FF431340FB623B689B89E4
:100D50001A46FB6A1343FB62FB6A9AB27B689A826B
:100D600007F108031846FFF75BFDFB69314A934220
:100D700002D17B69BB6201E03B69BB627B689B89F6
:100D80009BB21BB29BB2DB0BDBB2002B0CD0BA6A5E
:100D900013469B0013449A001A443B681B685B008F
:100DA000B2FBF3F37B620BE0BA6A13469B00134479
:100DB0009A001A443B681B689B00B2FBF3F37B620A
:100DC0007B6A1D4AA2FB03235B091B01FB62FB6AD2
:100DD0001B09642202FB03F37A6AD31A3B627B6825
:100DE0009B899BB21BB29BB2DB0BDBB2002B0CD0FE
:100DF0003B6ADB003233104AA2FB03235B0903F09A
:100E00000703FA6A1343FB620BE03B6A1B013233B0
:100E1000094AA2FB03235B0903F00F03FA6A134399
:100E2000FB62FB6A9AB27B681A8100BF3037BD460D
:100E300080BD00BF003801401F85EB5180B483B0F6
:100E400000AF78600B46FB70FB78002B08D07B6806
:100E50009B899BB243F400539AB27B689A8107E066
:100E60007B689B899BB223F400539AB27B689A817A
:100E700000BF0C37BD4680BC704780B487B000AF60
:100E800078600B467B8013467B7000233B61002318
:100E9000FB600023BB6000237B617B687B617B88F8
:100EA000DBB25B113B617B8803F01F03FB60012217
:100EB000FB6802FA03F3BB603B69012B03D17B693A
:100EC0000C337B6109E03B69022B03D17B69103352
:100ED0007B6102E07B6914337B617B78002B06D059
:100EE0007B6919687B69BA680A431A6006E07B6906
:100EF0001968BB68DA437B690A401A6000BF1C3777
:100F0000BD4680BC704780B483B000AF78600B46AC
:100F10007B8013467B707B78002B08D07B689B8A94
:100F20009AB27B8813439AB27B689A8209E07B6805
:100F30009B8A9AB27B88DB439BB213409AB27B6850
:100F40009A8200BF0C37BD4680BC704780B483B026
:100F500000AF78600B467B807B88C3F308039AB2AE
:100F60007B689A8000BF0C37BD4680BC704780B458
:100F700083B000AF78607B689B889BB2C3F30803A3
:100F80009BB218460C37BD4680BC704780B485B014
:100F900000AF78600B467B800023FB737B681B8867
:100FA0009AB27B8813409BB2002B14BF012300230D
:100FB000DBB2002B02D00123FB7301E00023FB73A3
:100FC000FB7B18461437BD4680BC704780B58AB09D
:100FD00000AF786039600023FB8400237B84042306
:100FE000BB84574BFB617B689B88FB84FB8C23F0A5
:100FF0003F03FB8407F108031846FFF711FC3B6928
:10100000FB61FB694F4AA2FB03239B0C7B84FA8C98
:101010007B8C1343FB847B68FA8C9A807B681B88EB
:101020009BB223F001039AB27B681A800023FB84F1
:101030003B681B68444A934215D83B681B685B00B9
:10104000FA69B2FBF3F3BB84BB8C032B01D80423F6
:10105000BB84FA8CBB8C1343FB847B8C01339AB228
:101060007B681A8440E03B68DB884BF6FF72934252
:1010700009D13B681A6813465B001344FA69B2FB56
:10108000F3F3BB840EE03B681A6813469B001344DD
:101090009A001344FA69B2FBF3F3BB84BB8C43F4AC
:1010A0008043BB84BB8CC3F30B03002B03D1BB8CED
:1010B00043F00103BB84BA8CFB8C13439BB26FEAF1
:1010C00043436FEA5343FB847B8C4FF4967202FBDD
:1010D00003F31E4A82FB03129211DB17D31A9BB251
:1010E00001339AB27B681A847B68FA8C9A837B6896
:1010F0001B889BB243F001039AB27B681A807B681D
:101100001B88FB84FB8C23F4816323F00203FB84A4
:101110003B689A883B685B8913439AB2FB8C134304
:10112000FB847B68FA8C1A803B689A893B681B8930
:1011300013439AB27B681A8100BF2837BD4680BD31
:1011400000127A0083DE1B43A0860100D34D62109B
:1011500080B483B000AF78600B46FB70FB78002B47
:1011600008D07B681B889BB243F001039AB27B686E
:101170001A8007E07B681B889BB223F001039AB2B8
:101180007B681A8000BF0C37BD4680BC704780B4B6
:1011900083B000AF78600B46FB70FB78002B08D063
:1011A0007B681B889BB243F480739AB27B681A8079
:1011B00007E07B681B889BB223F480739AB27B683C
:1011C0001A8000BF0C37BD4680BC704780B483B026
:1011D00000AF78600B46FB70FB78002B08D07B6873
:1011E0001B889BB243F400739AB27B681A8007E0B5
:1011F0007B681B889BB223F400739AB27B681A80C9
:1012000000BF0C37BD4680BC704780B483B000AFD0
:1012100078600B46FB70FB789AB27B681A8200BF3D
:101220000C37BD4680BC704780B483B000AF786097
:101230000B46FB701346BB70BB78002B04D0FB78C9
:1012400043F00103FB7003E0FB7823F00103FB7024
:10125000FB789AB27B681A8200BF0C37BD4680BC0F
:10126000704780B487B000AF7860396000233B617D
:101270000023FB600023BB600023FB757B689B8A17
:101280009BB2FB607B681B8B9BB2BB60BB681B0483
:10129000BB60FA68BB68134323F07F433B613A6944
:1012A0003B6813403A689A4202D10123FB7501E082
:1012B0000023FB75FB7D18461C37BD4680BC70477C
:1012C00080B487B000AF786039600023FB750023DD
:1012D0003B610023FB607B68FB603B681B0F3B614D
:1012E0003B6823F07F433B603B69002B14BF012325
:1012F0000023DBB2002B03D0FB681433FB6005E056
:101300003B681B0C3B60FB681833FB60FB681A688A
:101310003B681340002B14BF01230023DBB2002BDA
:1013200002D00123FB7501E00023FB75FB7D18460D
:101330001C37BD4680BC704780B400AF054B9B880E
:101340009BB2044A43F010039BB2938000BFBD469A
:1013500080BC70470028004080B400AF054B9B88DC
:101360009BB2044A23F010039BB2938000BFBD469A
:1013700080BC70470028004080B483B000AF0023D9
:10138000FB80074B9B8BFB80054B1B8B9BB21A048E
:10139000FB88134318460C37BD4680BC704700BF1E
:1013A0000028004080B582B000AF7860FFF7C4FF2E
:1013B0007B681A0C064B92B21A83054B7A6892B27C
:1013C0009A83FFF7C9FF00BF0837BD4680BD00BF45
:1013D0000028004080B582B000AF7860FFF7ACFF16
:1013E0007B681B0C9BB2074A03F00F039BB213816F
:1013F000044B7A6892B29A81FFF7AEFF00BF0837BC
:10140000BD4680BD0028004080B400AF0C4B9B88D7
:101410009BB20B4A23F008039BB29380084B9B8836
:101420009BB203F00803002B0CBF01230023DBB2A7
:10143000002B00D0F2E700BFBD4680BC704700BF64
:101440000028004080B483B000AF0346FB71044A1B
:10145000FB79136000BF0C37BD4680BC704700BFEE
:1014600020000E4280B485B000AF78603960002360
:10147000FB607B681B68FB60FB6823F4FF4323F081
:101480007003FB603B689A683B681B6A1A433B68C1
:101490001B691A433B685B691A433B689B691A43A3
:1014A0003B68DB691A433B685B6A1A433B689B6A8B
:1014B0001343FA681343FB607B68FA681A603B6861
:1014C000DA687B685A603B681A687B689A603B6898
:1014D0005A687B68DA6000BF1437BD4680BC70472D
:1014E00080B483B000AF78600B46FB70FB78002BB4
:1014F00006D07B681B6843F001027B681A6006E037
:101500007B681A684FF6FE7313407A68136000BF59
:101510000C37BD4680BC704780B485B000AFF86022
:10152000B9601346FB71FB79002B06D0FB681A6883
:10153000BB681A43FB681A6006E0FB681A68BB6860
:10154000DB431A40FB681A6000BF1437BD4680BCFD
:101550007047000080B483B000AF78607B6803F010
:101560008053002B03D0064A7B68536002E0054A93
:101570007B68536000BF0C37BD4680BC704700BF1E
:10158000000402400000024080B485B000AF7860E3
:1015900039600023FB600023FB727B685B68FB60A3
:1015A000FB6823F4702323F48073FB603B681A68A4
:1015B0003B681B791B021343FA681343FB607B688B
:1015C000FA685A607B689B68FB60FA68164B1340A8
:1015D000FB603B68DA683B689B681A433B685B7951
:1015E0005B001343FA681343FB607B68FA689A60F8
:1015F0007B68DB6AFB60FB6823F47003FB603B687D
:101600001B7C013BDAB2FB7A1343FB72FB7A1B05AE
:10161000FA681343FB607B68FA68DA6200BF14372C
:10162000BD4680BC704700BFFDF7F1FF80B483B0BA
:1016300000AF78600B46FB70FB78002B06D07B6810
:101640009B6843F001027B689A6005E07B689B68B9
:1016500023F001027B689A6000BF0C37BD4680BC56
:10166000704780B483B000AF78600B46FB70FB78A6
:10167000002B06D07B689B6843F480727B689A607D
:1016800005E07B689B6823F480727B689A6000BFEA
:101690000C37BD4680BC704780B483B000AF786023
:1016A0007B689B6843F008027B689A6000BF0C3738
:1016B000BD4680BC704780B485B000AF7860002321
:1016C000FB737B689B6803F00803002B14BF0123A6
:1016D0000023DBB2002B02D00123FB7301E00023C7
:1016E000FB73FB7B18461437BD4680BC704780B443
:1016F00083B000AF78607B689B6843F004027B682E
:101700009A6000BF0C37BD4680BC704780B485B07E
:1017100000AF78600023FB737B689B6803F00403D1
:10172000002B14BF01230023DBB2002B02D00123C6
:10173000FB7301E00023FB73FB7B18461437BD46A7
:1017400080BC704780B483B000AF78600B46FB70FC
:10175000FB78002B06D07B689B6843F4A0027B6873
:101760009A6005E07B689B6823F4A0027B689A601E
:1017700000BF0C37BD4680BC704780B485B000AF59
:101780007860084611461A460346FB700B46BB704C
:1017900013467B700023FB600023BB60FB78092BA2
:1017A00023D97B68DB68FB60FB78A3F10A02134650
:1017B0005B001344072202FA03F3BB60BB68DB4300
:1017C000FA681340FB607978FB78A3F10A021346AC
:1017D0005B00134401FA03F3BB60FA68BB68134370
:1017E000FB607B68FA68DA601EE07B681B69FB605F
:1017F000FA7813465B001344072202FA03F3BB6036
:10180000BB68DB43FA681340FB607978FA781346CB
:101810005B00134401FA03F3BB60FA68BB6813432F
:10182000FB607B68FA681A61BB78062B21D87B685D
:101830005B6BFB60BB785A1E13469B0013441F2250
:1018400002FA03F3BB60BB68DB43FA681340FB603A
:10185000F978BB785A1E13469B00134401FA03F330
:10186000BB60FA68BB681343FB607B68FA685A6325
:1018700047E0BB780C2B21D87B681B6BFB60BB78E7
:10188000DA1F13469B0013441F2202FA03F3BB60C6
:10189000BB68DB43FA681340FB60F978BB78DA1F5A
:1018A00013469B00134401FA03F3BB60FA68BB685C
:1018B0001343FB607B68FA681A6322E07B68DB6A8B
:1018C000FB60BB78A3F10D0213469B0013441F225B
:1018D00002FA03F3BB60BB68DB43FA681340FB60AA
:1018E000F978BB78A3F10D0213469B00134401FA6B
:1018F00003F3BB60FA68BB681343FB607B68FA685C
:10190000DA6200BF1437BD4680BC704780B483B034
:1019100000AF78607B68DB6C9BB218460C37BD4625
:1019200080BC704780B483B000AF78600B46FB701A
:10193000FB78002B06D07B685B6843F480627B6891
:101940005A6005E07B685B6823F480627B685A60BC
:1019500000BF0C37BD4680BC704780B485B000AF77
:10196000786039600023FB607B689B68FB60FB68E4
:1019700023F4E043FB60FA683B681343FB607B6839
:10198000FA689A6000BF1437BD4680BC704780B4C7
:1019900087B000AF7860084611461A460346FB70D0
:1019A0000B46BB7013467B7000237B6100233B61B9
:1019B0000023FB60FB78092B23D97B68DB687B6104
:1019C000FB78A3F10A0213465B001344072202FAD4
:1019D00003F33B613B69DB437A6913407B617978B0
:1019E000FB78A3F10A0213465B00134401FA03F3E8
:1019F0003B617A693B6913437B617B687A69DA6092
:101A00001EE07B681B697B61FA7813465B00134418
:101A1000072202FA03F33B613B69DB437A69134017
:101A20007B617978FA7813465B00134401FA03F37B
:101A30003B617A693B6913437B617B687A691A6110
:101A40007B689B6B7B617B691B0D03F00303FB6071
:101A5000FB68DBB2BA78D31ADBB20233DBB21A46C8
:101A600013469B0013441F2202FA03F33B613B69B8
:101A7000DB437A6913407B61FA78FB68DBB2B978A3
:101A8000CB1ADBB20233DBB219460B469B000B4488
:101A900002FA03F33B617A693B6913437B617B681C
:101AA0007A699A6300BF1C37BD4680BC704780B41A
:101AB00085B000AF78600B46FB700023FB6000230D
:101AC000BB607B689B6BFB60FB6823F44013FB608F
:101AD000FB78013BBB60BB681B05FA681343FB60E6
:101AE0007B68FA689A6300BF1437BD4680BC7047B4
:101AF00080B485B000AF78600B46FB700023FB60BC
:101B00007B68FB60FA78FB6813442833FB60FB6852
:101B10001B689BB218461437BD4680BC7047000056
:101B200080B483B000AF0346FB71FB79002B06D075
:101B3000084B9B68074A43F40003936005E0054B9C
:101B40009B68044A23F40003936000BF0C37BD4632
:101B500080BC70470024014080B483B000AF78603F
:101B60007B681B8F9BB218460C37BD4680BC704704
:101B700080B485B000AF78600B467B800023FB7398
:101B80007B681B8A9AB27B8813409BB2002B14BFE0
:101B900001230023DBB2002B02D00123FB7301E001
:101BA0000023FB73FB7B18461437BD4680BC70478F
:101BB00080B483B000AF78600B467B807B88DB43CA
:101BC0009AB27B681A8200BF0C37BD4680BC704752
:101BD00080B485B000AF78600B467B800023FB7338
:101BE0000023BB8100237B817B681B8A9AB27B88A0
:101BF0001340BB817B689B899AB27B8813407B81B1
:101C0000BB89002B05D07B89002B02D00123FB73FD
:101C100001E00023FB73FB7B18461437BD4680BCF4
:101C2000704780B483B000AF78600B467B807B88C0
:101C3000DB439AB27B681A8200BF0C37BD4680BC7A
:101C40007047000080B485B000AF78600023FB606F
:101C5000094B1B68FB60FB6803F03803FB60FA6804
:101C60007B681343FB60044AFB68136000BF1437B2
:101C7000BD4680BC704700BF0020024080B483B0E6
:101C800000AF7860084B1B68074A23F0100313600D
:101C9000054B1A6804497B6813430B6000BF0C377F
:101CA000BD4680BC704700BF0020024080B400AF3A
:101CB000044B054A5A60034B044A5A6000BFBD46B4
:101CC00080BC70470020024023016745AB89EFCDFF
:101CD00080B400AF044B1B69034A43F080031361D7
:101CE00000BFBD4680BC70470020024080B584B074
:101CF00000AF78600423FB734FF4302000F0ACF8A1
:101D00000346FB73FB7B042B1BD1104B1B690F4A53
:101D100043F0020313610D4A7B6853610B4B1B694F
:101D20000A4A43F0400313614FF4302000F094F866
:101D30000346FB73054B1A69044941F6FD731340D2
:101D40000B61FB7B18461037BD4680BD002002406A
:101D500080B584B000AF786039600423FB73002342
:101D6000BB604FF4005000F077F80346FB73FB7B39
:101D7000042B2FD11A4B1B69194A43F0010313613D
:101D80007B683A6892B21A804FF4005000F064F811
:101D90000346FB73FB7B042B15D17B680233BB60CE
:101DA0003B681A0CBB6892B21A804FF4005000F0E6
:101DB00053F80346FB730A4B1A69094941F6FE734F
:101DC00013400B6106E0064B1A69054941F6FE73A4
:101DD00013400B61FB7B18461037BD4680BD00BF2A
:101DE0000020024080B483B000AF0423FB71194B84
:101DF000DB6803F00103012B0CBF01230023DBB2DE
:101E0000002B02D00123FB711DE0124BDB6803F0B5
:101E10000403002B14BF01230023DBB2002B02D0EC
:101E20000223FB710FE00B4BDB6803F01003002B68
:101E300014BF01230023DBB2002B02D00323FB716C
:101E400001E00423FB71FB7918460C37BD4680BCCA
:101E5000704700BF0020024080B584B000AF7860BA
:101E60000423FB73FFF7BEFF0346FB73FB7B012BD1
:101E70000AD17B68002B07D0FFF7B4FF0346FB7342
:101E80007B68013B7B60F1E77B68002B01D1052378
:101E9000FB73FB7B18461037BD4680BD80B483B012
:101EA00000AF03463960FB7197F90730002B0CDB5C
:101EB0003B68DBB20E4A97F9071008461B01D9B2FE
:101EC00013180A4683F800230CE03B68DAB209498C
:101ED00097F90730DBB203F00F03043B1201D2B2D3
:101EE0000B441A7600BF0C37BD4680BC704700BF5C
:101EF00000E100E000ED00E080B582B000AF786066
:101F00007B68013BB3F1807F01D301230FE00A4AD4
:101F10007B68013B53600F214FF0FF30FFF7BEFF9E
:101F2000054B00229A60044B07221A6000231846D2
:101F30000837BD4680BD00BF10E000E080B400AFB0
:101F4000064B1B68002B04D0044B1B68013B034A63
:101F5000136000BFBD4680BC704700BF2801002051
:101F600080B582B000AF7860FEF7AEF91A4B1B68FF
:101F70001A4AA2FB03239B091846FFF7BDFF184B23
:101F800000221A60144B1B68164AA2FB03239B0C09
:101F9000154A1360154BDB6803F08073002B0CBFF0
:101FA00001230023DBB2002B0ED0104BDB680F4A5D
:101FB00043F08073D3600E4B00225A600C4B1B68B9
:101FC0000B4A43F0010313607B6800221A607B68B0
:101FD00018460837BD4680BD00000020D34D621072
:101FE0002801002083DE1B432C010020F0ED00E0DF
:101FF000001000E080B483B000AF78603960064A1A
:102000003B681360044B1B68002B00D0FAE700BF4D
:102010000C37BD4680BC70472801002080B584B0D5
:1020200000AF78603960786800F034F8F860184BD9
:102030001B683A6802FB03F3FA681344BB60BA6892
:10204000FB689A4213D2786800F024F80246FB68D5
:10205000934206D3786800F01DF80246BB689342AD
:1020600001D9012300E00023002B0DD0EBE77868B5
:1020700000F010F80246BB6893428CBF0123002396
:10208000DBB2002B00D0F2E700BF1037BD4680BDA9
:102090002C01002080B483B000AF7860034B5B68F4
:1020A00018460C37BD4680BC704700BF001000E0EA
:1020B00080B582B000AFFEF719FA4FF48030FEF71A
:1020C00043FAFEF76FFA0346FB71FB79012B32D11D
:1020D0001020FFF7D3FD0220FFF7B4FD0020FEF72C
:1020E000EDFA0020FEF722FB4FF48060FEF702FBC2
:1020F0004FF4E0114FF48030FEF788FA0120FEF72C
:10210000A3FA3920FEF7ACFC0346002B0CBF0123D9
:102110000023DBB2002B00D0F3E70220FEF7A4FA85
:10212000FEF7BEFA0346082B14BF01230023DBB2DF
:10213000002B01D0F4E7FEE700BF0837BD4680BDA5
:1021400080B584B000AF7860084611461A46034651
:102150007B800B467B7013463B707B68224A934220
:1021600002D10423FB6029E07B68204A934202D11C
:102170000823FB6022E07B681D4A934202D11023B2
:10218000FB601BE07B681B4A934202D12023FB606B
:1021900014E07B68184A934202D14023FB600DE0B3
:1021A0007B68164A934202D18023FB6006E07B687D
:1021B000134A934213D14FF48073FB600121F868F6
:1021C000FEF702FC7B883B817B78FB723B78BB721D
:1021D00007F1080319467868FEF77AFC00E000BFB3
:1021E0001037BD4680BD00BF00080140000C014013
:1021F000001001400014014000180140001C014083
:102200000020014080B584B000AFF860B96013468B
:10221000FB80FB68BA681A60FB68FA889A80F988C4
:1022200003231022B868FFF78BFFFB6801229A6036
:10223000FB6818461037BD4680BD80B582B000AF40
:1022400078607B681A687B689B8819461046FEF7A1
:1022500027FD7B6801229A6000BF0837BD4680BD1C
:1022600080B582B000AF78607B681A687B689B8815
:1022700019461046FEF706FD7B6800229A6000BFF3
:102280000837BD4680BD80B582B000AF78607B68FE
:102290009B68002B03D07868FFF7E2FF02E07868C4
:1022A000FFF7CBFF00BF0837BD4680BD80B483B0C9
:1022B00000AF0346FB7197F90730002B0DDB97F950
:1022C0000730DBB203F01F02064997F907305B09BC
:1022D000012000FA02F241F8232000BF0C37BD466E
:1022E00080BC704700E100E098B500AF134B1B883D
:1022F0009BB203F02003002B14BF01230023DBB2A9
:10230000002B19D00E4B1B681B78632B11D80B4880
:10231000FEF72DFE03461C460A4B1968084B1B6846
:102320001A78501CC0B2187013460B44E2B21A70EF
:1023300002E00248FEF71BFE00BF98BD00380140D6
:10234000380100203001002098B500AF134B1B88E6
:102350009BB203F02003002B14BF01230023DBB248
:10236000002B19D00E4B1B681B78632B11D80B4820
:10237000FEF7FDFD03461C460A4B1968084B1B6817
:102380001A78501CC0B2187013460B44E2B21A708F
:1023900002E00248FEF7EBFD00BF98BD004400409C
:1023A0003C0100203401002080B500AF4FF4005004
:1023B000FFF7D0F800210248FFF792F800BF80BD78
:1023C0004400024080B500AF4FF00070FFF7C2F844
:1023D00000210248FFF784F800BF80BD8000024062
:1023E00080B58AB002AFF860B9607A607B80FB6824
:1023F000002283F8D020FB680A2283F8D120BB6832
:10240000012B23D1FB686C33464A1360FB68D03341
:10241000454A1360012144F20400FEF7D5FA012178
:102420000120FEF7B3FA2523FB77404BBB614FF445
:102430000073FB824FF48063BB82FB683C4A1A60E6
:10244000FB683C4A9A660E23FB7427E0BB68022BAC
:1024500024D1FB686C33384A1360FB68D033374AA9
:10246000136001210420FEF7AFFA01214FF4003080
:10247000FEF7C8FA01210220FEF788FA2623FB772F
:102480002A4BBB610423FB820823BB82FB682C4AD6
:102490001A60FB682B4A9A661123FB74F86800F0F7
:1024A00076F8FB7F1946F86800F09AF8F98A03235A
:1024B0001822B869FFF744FEB98A03230422B869D9
:1024C000FFF73EFE398D7A88BB8D00930B46796805
:1024D000F86800F039F8FB681B6801211846FEF720
:1024E000ADFCFB681B68012280211846FEF70BFD3E
:1024F000FB689B6E012202211846FFF70DF897F941
:1025000013301846FFF7D2FEFB681B68012240F229
:1025100025511846FEF7B1FCFB6818462037BD462A
:1025200080BD00BF300100203801002000080140BC
:102530000038014044000240340100203C010020EA
:10254000004400408000024080B588B000AFF860D1
:10255000B96011461A460B46FB801346BB80BB6828
:102560003B61FB88BB82BB88FB823B8D3B830023A6
:10257000BB830C237B83FB681B6807F110021146A9
:102580001846FEF79BFB00BF2037BD4680BD80B5D7
:102590008EB000AF78607B681B680433FB607B689B
:1025A00004333B6110237B616423BB610023FB6127
:1025B00080233B6200237B620023BB620023FB621B
:1025C00000233B6300237B637B689B6E07F10C0257
:1025D00011461846FEF746FF00BF3837BD4680BD9E
:1025E00080B584B000AF78600B46FB70FB783B731E
:1025F00000237B730023BB730123FB7307F10C03E0
:102600001846FDF773FD00BF1037BD4680BD80B58D
:1026100082B000AF78600B46FB707B681B68FA786D
:1026200092B211461846FEF791FC7B681B68402168
:102630001846FEF7ABFC0346002B0CBF012300231A
:10264000DBB2002B00D0F0E700BF0837BD4680BDED
:1026500080B582B000AF786039603B681B78002B92
:1026600018D07B6818683B685A1C3A601B789BB28C
:102670001946FEF76BFC7B681B6840211846FEF785
:1026800085FC0346002B0CBF01230023DBB2002B8B
:10269000E3D0F0E700BF0837BD4680BD80B483B00B
:1026A00000AF786039603B68012B04D17B680A2257
:1026B00083F8D12006E03B68002B03D17B68102211
:1026C00083F8D1207B6818460C37BD4680BC704724
:1026D00080B582B000AF78600B46FB70FB7819467E
:1026E0007868FFF794FF7B6818460837BD4680BDC1
:1026F00080B582B000AF7860396039687868FFF7DC
:10270000A7FF7B6818460837BD4680BD80B582B0FC
:1027100000AF78600B46FB70F8787B6893F8D13097
:102720000022194601F03EFA034619467868FFF781
:102730008FFF7B6818460837BD4680BD80B582B0E4
:1027400000AF78600B467B8078887B6893F8D13047
:102750000022194601F026FA034619467868FFF769
:1027600077FF7B6818460837BD4680BD80B582B0CC
:1027700000AF786039607B6893F8D1300022194649
:10278000386801F00FFA034619467868FFF760FFD2
:102790007B6818460837BD4680BD000080B584B010
:1027A00000AFF860B9607A607B80FB68BA681A6035
:1027B000FB687A685A60FB687A881A81FB68104A5D
:1027C0000A331188927819809A70FB680D4A0D338C
:1027D0001188927819809A70FB680B4A103312683E
:1027E000114619800233120C1A70798803231422BF
:1027F0007868FFF7A5FCFB6818461037BD4680BD1A
:1028000094450008984500089C45000880B582B0B2
:1028100000AF78600B46FB707B685A687B681B8949
:1028200019461046FEF73CFA7B681A687B685B7BAA
:1028300019461046FFF7F2FBFB78002B07D07B68A8
:102840005A687B681B8919461046FEF71BFA7B689D
:102850001A687B689B7B19461046FFF7DFFB7B6895
:102860005A687B681B8919461046FEF70BFA7B688D
:102870001A687B68DB7B19461046FFF7CFFB00BF69
:102880000837BD4680BD80B584B000AF78607B68F6
:102890005A687B681B8919461046FEF701FA7B6867
:1028A0001A687B681B7C19461046FFF7B7FB7B68EC
:1028B0005A687B681B8919461046FEF7E3F97B6866
:1028C0001A687B685B7C19461046FFF7A7FB7B689C
:1028D0005A687B681B8919461046FEF7B5F903460E
:1028E000FB737B681A687B689B7C19461046FFF770
:1028F00095FBFB7B18461037BD4680BD80B584B084
:1029000000AF78607B685A687B681B89194610465F
:10291000FEF7C6F97B6818687B689B7A1A461346EF
:102920009B0013445B001946FFF778FB7B685A68ED
:102930007B681B8919461046FEF7A4F97B68186866
:102940007B68DB7A1A4613469B0013445B001946EA
:10295000FFF764FB7B685A687B681B891946104641
:10296000FEF772F90346FB737B6818687B681B7B74
:102970001A4613469B0013445B001946FFF74EFBB3
:10298000FB7B18461037BD4680BD80B584B000AFD4
:1029900078600B46FB700023FB60FB68072B0EDCA6
:1029A000FB7803F00103DBB219467868FFF72EFFCE
:1029B000FB785B10FB70FB680133FB60EDE700BF49
:1029C0001037BD4680BD80B584B000AF786000236D
:1029D000FB730023BB60BB68072B11DCFB7B5B1028
:1029E000FB737868FFF74FFF0346DB015AB297F994
:1029F0000F3013435BB2FB73BB680133BB60EAE784
:102A0000FB7B18461037BD4680BD80B584B000AF53
:102A1000786039607868FFF771FF0346002B14BFB8
:102A200001230023DBB2002B01D0012315E0552147
:102A30007868FFF7AAFF0023FB60FB68072B0BDC1D
:102A4000FB683A6813441B7819467868FFF79DFFC6
:102A5000FB680133FB60F0E7002318461037BD46E2
:102A600080BD80B582B000AF78607868FFF746FF20
:102A70000346002B14BF01230023DBB2002B01D03F
:102A8000012304E0CC217868FFF77FFF002318467C
:102A90000837BD4680BD80B586B000AFF860B9602C
:102AA0007A607B80F8687B887A68B968FFF776FE81
:102AB000FB680022DA74FB6800221A75FB680122A9
:102AC0001A7500237B617B69072B0DDC7B693A6AF1
:102AD00013441978FA687B69134415330A461A704F
:102AE0007B6901337B61EEE797F824301946F8687B
:102AF00000F005F8FB6818461837BD4680BD80B564
:102B000082B000AF78600B46FB70786800F095F9F2
:102B10000346002B05D1786800F0EDF80346002B42
:102B200001D0012300E00023002B02D07B680122AA
:102B3000DA74786800F04DF803461A46FB78934241
:102B400014BF01230023DBB2002B07D0FB7819460A
:102B5000786800F012F8786800F06CF800BF083769
:102B6000BD4680BD80B483B000AF78607B68DB7CFD
:102B700018460C37BD4680BC704780B584B000AFA6
:102B800078600B46FB70FB78FB737B6893F8203012
:102B900023F06003DAB27B6883F820207B6893F827
:102BA0002020FB7B1343DAB27B6883F8202078680F
:102BB00000F070F80346002B14BF01230023DBB2A2
:102BC000002B02D07B680122DA7400BF1037BD46AB
:102BD00080BD80B483B000AF78607B6893F820300C
:102BE00003F06003DBB218460C37BD4680BC70476B
:102BF00080B582B000AF7860786800F041F9034694
:102C0000002B05D1786800F076F80346002B01D040
:102C1000012300E00023002B02D07B680122DA743C
:102C20007B685B8C184601F097F903461846083715
:102C3000BD4680BD80B582B000AF7860786800F096
:102C4000BAF80346002B14BF01230023DBB2002B8C
:102C500002D07B680122DA7400BF0837BD4680BD10
:102C600080B582B000AF78607B681B7D002B08D0F8
:102C70007A687B68153319461046FFF7C6FE03468F
:102C800004E07B681846FFF7ECFE03461846083759
:102C9000BD4680BD80B582B000AF78607868FFF730
:102CA000DFFF0346002B14BF01230023DBB2002B00
:102CB00001D001231BE07B684E211846FFF765FE1B
:102CC0007A687B689B7F19461046FFF75EFE7A683C
:102CD0007B68DB7F19461046FFF757FE7A687B68F2
:102CE00093F8203019461046FFF74FFE0023184690
:102CF0000837BD4680BD90B587B000AF7860786872
:102D0000FFF7AEFF0346002B14BF01230023DBB205
:102D1000002B01D001234AE07B68BE211846FFF753
:102D200034FE0023FB750023BB75BB7D082B1CD82C
:102D30007B68BC7D1846FFF746FE03461A4607F13E
:102D40001803234403F80C2CBB7D07F1180213442D
:102D500013F80C2CFB7D1146184601F079F9034657
:102D6000FB75BB7D0133BB75DFE7FB7D002B01D01D
:102D700001231CE07B7B9AB27B685A847B685B8C66
:102D80001B029AB27B685A847B685A8C3B7B9BB24D
:102D900013449AB27B685A84BA7B7B689A77FA7B31
:102DA0007B68DA773A7C7B6883F82020002318461A
:102DB0001C37BD4690BD80B584B000AF78607868A0
:102DC000FFF74EFF0346002B14BF01230023DBB2A5
:102DD000002B01D001232CE07B6848211846FFF727
:102DE000D4FD7B685B7F002B06D17B681B680A21C2
:102DF0001846FFF7FFF81BE00A23FB81FB89002B35
:102E000016D07B681B6801211846FFF7F3F87B6832
:102E10001846FFF738FD0346002B14BF012300239B
:102E2000DBB2002B03D1FB89013BFB81E6E700BF4E
:102E3000002318461037BD4680BD80B582B000AF74
:102E400078607868FFF70CFF0346002B14BF01235E
:102E50000023DBB2002B01D001230DE07B68B421FD
:102E60001846FFF792FD7B681846FFF70CFD0346F6
:102E70001A467B685A77002318460837BD4680BD3E
:102E800080B584B000AF78607868FFF7E9FE03464C
:102E9000002B14BF01230023DBB2002B01D0012340
:102EA00054E07B6844211846FFF76FFD7B685B7F29
:102EB000002B2DD17868FFF78CFE0346202B10D015
:102EC000202B02D8002B05D03FE0402B10D0602BE8
:102ED00016D03AE07B681B685E211846FFF78AF837
:102EE00033E07B681B68BC211846FFF783F82CE0B1
:102EF0007B681B6840F277111846FFF77BF824E0E7
:102F00007B681B6840F2EE211846FFF773F81CE05F
:102F10004FF47A73FB81FB89002B16D07B681B680A
:102F20000A211846FFF766F87B681846FFF7ABFCE6
:102F30000346002B14BF01230023DBB2002B03D177
:102F4000FB890A3BFB81E6E700BF002318461037E8
:102F5000BD4680BD80B588B000AF78600B46FB7081
:102F60001346BB707B68BA781A71FB78012B0CD1C1
:102F70007B68264A1A60264BFB61C0237B830121B4
:102F80004FF40010FDF73EFD0FE0FB78022B0CD153
:102F90007B68204A1A601E4BFB614FF440637B83C1
:102FA00001214FF48000FDF72DFD01210820FDF7E0
:102FB0000BFD01210120FDF707FD174BBB6000232E
:102FC000BB814BF6FF73FB8115233B824FF480637B
:102FD0007B824FF48043BB827B681B6807F1080249
:102FE00011461846FDF7F2FF798B03231C22F8697E
:102FF000FFF7A6F87B681B6801211846FEF7A8F8C2
:103000007B6818462037BD4680BD00BF0054004095
:10301000000C014000580040A086010080B582B03D
:1030200000AF78600B46FB707B681B684FF4003183
:103030001846FEF745F90346002B14BF0123002371
:10304000DBB2002B00D0EFE77B681B68012118463C
:10305000FEF79DF87B681B681F491846FEF701F9CB
:103060000346002B0CBF01230023DBB2002B00D052
:10307000F0E77B6818687B681B795B00DBB2FA7845
:103080001946FEF7D1F8FB78002B0ED17B681B6840
:1030900012491846FEF7E5F80346002B0CBF012342
:1030A0000023DBB2002B12D0F0E7FB78012B0ED10E
:1030B0007B681B680A491846FEF7D3F80346002BC5
:1030C0000CBF01230023DBB2002B00D0F0E700BFD0
:1030D0000837BD4680BD00BF010003008200070025
:1030E0000200030080B582B000AF78600B46FB7031
:1030F0007B681B68FA7811461846FEF786F87B68ED
:103100001B6808491846FEF7ACF80346002B0CBFB5
:1031100001230023DBB2002B00D0F0E700BF08370B
:10312000BD4680BD8400070080B582B000AF7860E6
:103130007B681B6801211846FEF748F808490948D2
:10314000FEF78FF80346002B0CBF01230023DBB2F0
:10315000002B00D0F2E700BF0837BD4680BD00BF9E
:10316000840007000054004080B584B000AFF860D0
:10317000B9607A60FB70FB68BA681A60FB687A68AD
:103180005A60FB6801221A72FB6800225A72FB78AF
:10319000012B06D9FB685B7A43F00803DAB2FB68BF
:1031A0005A72FB6800229A72FB689B7A43F0040310
:1031B000DAB2FB689A72FB680022DA72FB68DB7A8B
:1031C00043F00203DAB2FB68DA72FB685B68322113
:1031D0001846FEF70FFFFB681B6800211846FFF733
:1031E0001DFFFB681B6800211846FFF77BFFFB688B
:1031F0001B681846FFF798FFFB685B684FF47A710D
:103200001846FEF7F7FE3021F86800F044F8FB6836
:103210005B6805211846FEF7EDFE3021F86800F0E6
:103220003AF8FB685B6805211846FEF7E3FE30219B
:10323000F86800F030F8FB685B6896211846FEF7E6
:10324000EDFE2021F86800F026F8FB685B7A43F079
:103250002003DBB21946F86800F084F8FB689B7A1B
:1032600043F00803DBB21946F86800F07BF8F86811
:1032700000F098F8FB68DB7A43F00403DBB21946F0
:10328000F86800F06FF8F86800F09EF8FB681846E0
:103290001037BD4680BD80B582B000AF78600B4668
:1032A000FB707B681B7A002B03D0FB7843F008038C
:1032B000FB707B681B6800211846FFF7AFFE7B6838
:1032C0001B68FA7811461846FFF70CFF7B681A68EE
:1032D000FB7843F00403DBB219461046FFF702FF08
:1032E0007B685B6801211846FEF798FE7B681A68C8
:1032F000FB7823F00403DBB219461046FFF7F2FE19
:103300007B685B6832211846FEF788FE7B681B6885
:103310001846FFF709FF00BF0837BD4680BD80B5DE
:1033200082B000AF78600B46FB701346BB70FB7831
:1033300023F00F03DAB2BB781343DBB21946786887
:10334000FFF7A9FFFB781B015AB297F9023013432C
:103350005BB2DBB219467868FFF79DFF00BF083704
:10336000BD4680BD80B582B000AF78600B46FB7073
:10337000FB78002219467868FFF7D1FF00BF0837B5
:10338000BD4680BD80B582B000AF78600B46FB7053
:10339000FB78012219467868FFF7C1FF00BF0837A4
:1033A000BD4680BD80B582B000AF786001217868ED
:1033B000FFF7D8FF7B685B6802211846FEF71AFE0C
:1033C00000BF0837BD4680BD80B582B000AF7860D1
:1033D00002217868FFF7C6FF7B685B680221184608
:1033E000FEF708FE00BF0837BD4680BD80B582B03D
:1033F00000AF78600B46FB701346BB70FB78002B68
:1034000001D0402200E00022BB781344DBB25BB263
:1034100063F07F035BB2DBB219467868FFF7A2FF67
:1034200000BF0837BD4680BD80B582B000AF786070
:1034300039603B681B78002B08D03B685A1C3A6007
:103440001B7819467868FFF79DFFF2E700BF083741
:10345000BD4680BD80B584B000AF786039607868C3
:1034600000F022F80346002B14BF01230023DBB237
:10347000002B11D00B4A07F1080392E8030083E800
:1034800003004FF4FA713868FEF7B4FD07F1080342
:103490001946786800F04CF87B6818461037BD462E
:1034A00080BD00BFA445000880B582B000AF786041
:1034B00001214FF0C050FDF7A5FA0120FDF7C2FF32
:1034C0001A4B1B6A03F40043B3F5004F14BF0123EA
:1034D0000023DBB2002B23D00120FDF7B1FA00203E
:1034E000FDF7AEFA0120FDF759F9104B1B6A03F006
:1034F0000203022B14BF01230023DBB2002B00D0F8
:10350000F3E74FF48070FDF769F947F6FF70FDF7B8
:1035100061FF0120FDF774F9FDF776FF012300E05C
:10352000002318460837BD4680BD00BF001002408A
:1035300080B582B000AF78603960386800F074FC04
:1035400003461846FDF72EFF00BF0837BD4680BD75
:1035500080B582B000AF78603960FDF70DFF03469B
:103560001946386800F072FB00BF0837BD4680BDC1
:1035700080B586B000AFF860B9607A603B60FB68E8
:103580002E4A12689A63BB68012B03D1FB682C4A50
:103590001A6002E0FB682B4A1A60FB687A689A603E
:1035A000FB683A685A60FB680022DA61FB685B6876
:1035B000002B07D13B6A042B28BF04231A46FB6863
:1035C000DA601DE0FB685B68012B19D13B6A012BB7
:1035D00013D9FB681B681A4A93420AD13B6A0C2B29
:1035E00028BF0C231A46FB68DA60FB680122DA6107
:1035F00006E0FB680122DA6002E0FB683A6ADA6002
:1036000000237B61FB68DB687A699A420DD27A6A93
:103610007B6913441978FA687B69134410330A46AE
:103620001A707B6901337B61ECE7F86800F00CF8F5
:10363000FB6818461837BD4680BD00BFAC45000882
:10364000002401400028014080B598B000AF7860A8
:103650007B689B681846FDF785F87B681B68AA4A5B
:10366000934202D14FF4007301E04FF480630121D3
:103670001846FDF7A9F97B68DB69002B2AD00121E8
:103680000120FDF783F97B68DB687B6100233B61E8
:1036900000233B637B682033FB604FF480637B62D5
:1036A0008023FB612023BB627B681B684C33BB60BB
:1036B0004FF480733B620023BB614FF40053FB6205
:1036C00007F1080319469148FDF7CCFE01218F4808
:1036D000FDF706FF0023A7F85E300023A7F85C3053
:1036E0000023BB657B68DB68BA6D9A422BD27A688F
:1036F000BB6D134410331B78BB64BB6C072B0BD81A
:103700000122BB6C02FA03F31AB2B7F95E3013431D
:103710001BB2A7F85E3012E0BB6C082B06D1B7F8DD
:103720005C3043F00103A7F85C3008E0BB6C092B68
:1037300005D1B7F85C3043F00203A7F85C30BB6DED
:103740000133BB65CEE7B7F85E30002B06D0B7F883
:103750005E10032300226E48FEF7F2FCB7F85C30DF
:10376000002B06D0B7F85C10032300226948FEF74F
:10377000E7FC012387F8393000237B637B68DB6833
:10378000012B01D9012300E0002387F838304FF4E2
:103790006023FB6300233B647B68DB68DBB287F854
:1037A00044307B681B6807F1340211461846FDF768
:1037B000EBFE7B685B68002B29D17B681A687B680D
:1037C000DB68DBB219461046FEF771F900237B6512
:1037D0007B68DB687A6D9A4211D27B6818687A68D8
:1037E0007B6D1344103319787B6DDBB20133DAB291
:1037F0000123FEF7CCF87B6D01337B65E8E77B683E
:103800001B684FF4E0411846FEF7A7F818E00023C4
:103810003B657B68DB683A6D9A4211D27B68186819
:103820007A683B6D1344103319783B6DDBB201337A
:10383000DAB20123FDF7A1FF3B6D01333B65E8E7F9
:103840000023FB647B68DB68FA6C9A420DD27A68CD
:10385000FB6C134410331B78102B02D10120FEF7B0
:103860005FF9FB6C0133FB64ECE77B681B680121AB
:103870001846FDF7DBFE7B68DB69002B05D07B6813
:103880001B6801211846FDF7ECFE7B681B68184693
:10389000FDF702FF7B681B681846FDF70CFF034627
:1038A000002B14BF01230023DBB2002B00D0F1E773
:1038B0007B681B681846FDF71AFF7B681B68184673
:1038C000FDF724FF0346002B14BF01230023DBB2C6
:1038D000002B00D0F1E701210B48FDF7A7FE7B6824
:1038E0005B68002B05D17B681B6801211846FEF739
:1038F00019F87B681B6801211846FDF723FF00BFFC
:103900006037BD4680BD00BF002401400800024072
:1039100000080140000C014080B582B000AF786023
:1039200039607B685B68012B10D17B68DB69002BF9
:1039300005D07B683A68103233F8123011E07B68AA
:103940001B681846FDF7E2FF03460AE07B6818682B
:103950007A683B68134438331B781946FEF7C8F879
:10396000034618460837BD4680BD000080B500AF4D
:1039700004214FF08040FEF72BF90346002B14BFC3
:1039800001230023DBB2002B3DD004214FF0804007
:10399000FEF747F91D4B1A881D4B1A804FF08040E7
:1039A000FEF7DAF803461A46184B1A80174B1A88A6
:1039B000174B1B889A4207D3144B1B881A46144B8B
:1039C0001B88D31A1A4608E0114B1B88C3F57F43A6
:1039D000FF330E4A128813441A460E4B1A604FF4F6
:1039E00080614FF08040FEF7C3F80346002B14BF00
:1039F00001230023DBB2002B05D04FF480614FF090
:103A00008040FEF7D5F800BF80BD00BF4201002016
:103A1000400100204401002080B582B000AF7860F2
:103A20007B68064A1A617B6804229A82786800F0F3
:103A300007F87B6818460837BD4680BD00FC0008C3
:103A400080B487B000AF78607B681B697B617B685E
:103A50003B610023FB817B689B8AFA899A420DD2E5
:103A60007B691A683B691A607B6904337B613B6937
:103A700004333B61FB890133FB81ECE700BF1C375A
:103A8000BD4680BC704780B586B000AF7860FEF759
:103A90000DF97B681B691846FEF728F97B687B6186
:103AA0007B681B693B610023FB817B689B8AFA89E9
:103AB0009A4210D23A697B691B6819461046FEF794
:103AC00047F97B6904337B613B6904333B61FB89C4
:103AD0000133FB81E9E7FEF7FBF800BF1837BD466D
:103AE00080BD80B485B000AFF860B9607A60FB68D3
:103AF000BA681A60FB6840F2D6621A81FB682B2212
:103B00005A81FB687A685A60FB6818461437BD46CC
:103B100080BC704780B584B000AF78607B681A685D
:103B20007B685B6819461046FFF7F6FEF8607B6815
:103B30001B891A46FB68D21A13469B0013445B008C
:103B40001A467B685B89B2FBF3F3193318461037CA
:103B5000BD4680BD80B584B000AF786039607B68B9
:103B60001A687B685B6819461046FFF7D5FEF86057
:103B70003B68193B7A68528902FB03F3084A82FBCF
:103B800003129210DB17D31A9AB2FB689BB213444C
:103B90009AB27B681A8100BF1037BD4680BD00BF56
:103BA0006766666680B487B000AFF860B960134698
:103BB000FB71244B3B6100237B617B69092B08DC93
:103BC000214A7B69134430221A707B6901337B617F
:103BD000F3E77B695A1E7A611B4A0021D1547B6945
:103BE000002B01DA184B27E0BA68FB68B3FBF2F14F
:103BF00002FB01F29B1A3A6913441978124A7B6955
:103C000013440A461A70BB68FA68B2FBF3F3FB6010
:103C1000FB68002B0CD1FB79002B05D0FB79C3F19D
:103C20000A03094A134407E07B69074A134403E087
:103C30007B69013B7B61D2E718461C37BD4680BCDF
:103C4000704700BFB44500084801002080B48DB023
:103C500000AF786039603B6803F52843C033684A99
:103C6000A2FB0323DA0B674B1344FB62FB6A5B087E
:103C7000BB623B687B627B6A634AA2FB03235B09EE
:103C80003B627B6ADAB23B6ADBB219460901CB1AA6
:103C90009B00DBB2D31ADAB27B689A703B6A7B6214
:103CA0007B6A594AA2FB03235B093B627B6ADAB257
:103CB0003B6ADBB219460901CB1A9B00DBB2D31A6F
:103CC000DAB27B685A703B6A7B627B6A4F4AA2FB1E
:103CD00003231B093B627B6ADAB23B6ADBB21946FB
:103CE00049000B44DB00DBB2D31ADAB27B681A70EE
:103CF000BA6A474BA3FB0213D11A49080B4499082F
:103D00000B46DB005B1AD11ACAB27B681A71BB6A18
:103D100003F5FA432C33FB61FB699B0003333D4AF7
:103D2000A2FB0323DB0BBB61BB693B4A02FB03F332
:103D30009B08FA69D31A7B617B699B000333374A7E
:103D4000A2FB0323DB093B613B6940F2B55202FB56
:103D500003F39B087A69D31AFB60FA6813469B0049
:103D6000134402332E4AA2FB0323DB09BB60FB682A
:103D7000D9B2BA681346DB0013441A011344023364
:103D8000284AA2FB03239B08DBB2CB1ADBB2013328
:103D9000DAB27B68DA70BB68DAB2BB682149A1FB92
:103DA0000313DB08DBB2194649000B449B00DBB26E
:103DB000D31ADBB20333DAB27B685A71BB699BB2A8
:103DC0001A46920013441A4691001A460B461344B1
:103DD0009B009AB23B699BB213449AB2BB681149EB
:103DE000A1FB0313DB089BB213449BB2A3F59653CC
:103DF0009AB27B68DA8000BF3437BD4680BC70471A
:103E000007452EC2177B4A0089888888ABAAAAAAD0
:103E100025499224BD066B39B13A020073B06D1684
:103E2000D7802BD6CDCCCCCC80B487B000AF786017
:103E30007B685B79C3F10E03424A82FB0312521086
:103E4000DB17D31AFB757B68DA88FB7D9BB2D31A2C
:103E50009BB203F59653BB827B685A79FB7D19466A
:103E600049000B449B00DBB21344DBB2033BFB7401
:103E70007B68DB78FB60FA7C1346DB0013441A0195
:103E800013440233304A82FB03125210DB17D31A59
:103E90001A46FB681344FB60BB8A40F26D1202FBBA
:103EA00003F31A46FB681344FB60BB8A9B089BB272
:103EB0001A46FB681344FB60BB8A5B42234A82FBC1
:103EC00003125211DB17D31A1A46FB681344FB6026
:103ED000BB8A1E4AA2FB0323DB099BB21A46FB687E
:103EE0001344FB60FB68A3F5FA432D3BFB60FA68C3
:103EF000174B1344FB60FB68164A02FB03F3FB609D
:103F00007B681B781A464FF4616303FB02F31A4681
:103F1000FB681344FB607B685B781A4613461B0101
:103F20009B1A9B001A46FB681344FB607B689B78D6
:103F30001A46FB681344FB60FB6818461C37BD46F5
:103F400080BC7047ABAAAA2A676666661F85EB51DC
:103F500074C2DAFF8051010080B485B000AF03461F
:103F6000FB800023FB60FB8803F47843002B39D0EF
:103F7000FB88DB431B1103F07F03FB60FB6842F20D
:103F8000107202FB03F3FB60FB6803F51C53103354
:103F9000FB60FB8803F00803002B04D0FB68A3F54B
:103FA0009C53083BFB60FB8803F00403002B03D009
:103FB000FB68A3F6C413FB60FB8803F00203002B2D
:103FC00003D0FB68A3F2E243FB60FB8803F001032C
:103FD000002B03D0FB68A3F27123FB60FB685B42FC
:103FE000FB602FE0FB881B1103F07F03FB60FB6885
:103FF00042F2107202FB03F3FB60FB8803F008033C
:10400000002B04D0FB6803F59C530833FB60FB884E
:1040100003F00403002B03D0FB6803F6C413FB601A
:10402000FB8803F00203002B03D0FB6803F2E2439A
:10403000FB60FB8803F00103002B03D0FB6803F255
:104040007123FB60FB6818461437BD4680BC70477F
:1040500080B483B000AF03460A46FB711346BB71C0
:10406000FA79BB795340DBB21A46034B9B5C184686
:104070000C37BD4680BC70472800002080B582B058
:1040800000AF78600B46FB70FB7819467868FFF745
:1040900079F900BF0837BD4680BD80B483B000AF5A
:1040A00078607B681B8918460C37BD4680BC70471A
:1040B00090B5EDB002AFFDF7FBFF07F5CA731846E8
:1040C000FDF74EFF07F1C00000230193002300938A
:1040D00000234FF4E1320121FEF782F907F1B40326
:1040E0004FF4005268491846FEF78CF807F1AC030C
:1040F000272201211846FEF72DFF07F5CA7207F1A6
:10410000AC0107F1A0000223FFF72EF807F5CA72F1
:1041100007F19C0311461846FFF79CF907F1940339
:104120005A4A92E8030083E8030007F5CA7107F1D1
:1041300070006023019307F1940300934FF48073A0
:10414000534AFEF7A8FC07F158031846FFF764FC32
:1041500007F154034F4A12881A8007F1180007F13B
:10416000540301930223009301234FF400420121E1
:10417000FFF7FEF907F1180107F10C0300221846BA
:10418000FFF7AFFC07F1C00343491846FEF7B0FA4A
:1041900007F1A00341491846FFF746F907F1A003CC
:1041A000002201211846FFF721F907F1A0033C493D
:1041B0001846FFF739F93A1D07F19C0311461846D6
:1041C000FFF7C6F907F1C00301211846FEF766FAAA
:1041D00007F1C00333491846FEF78AFA02463B1D31
:1041E000DB7819461046FEF791FA03462E49184629
:1041F000FEF77EFA02463B1D5B7919461046FEF734
:1042000085FA034628491846FEF772FA02463B1D16
:10421000DB8819461046FEF791FA07F1C0032349DF
:104220001846FEF765FA02463B1D1B7819461046F4
:10423000FEF76CFA03461E491846FEF759FA024685
:104240003B1D5B7819461046FEF760FA0346164997
:104250001846FEF74DFA02463B1D9B78194610465C
:10426000FEF754FA07F1C00312491846FEF740FA68
:10427000044607F170031846FEF774FC0346002B52
:104280001CD00D4B1BE000BF001001409C460008F5
:1042900000080140A4460008CC450008F845000885
:1042A000044600080C46000814460008184600089A
:1042B000204600082446000838460008A94B194645
:1042C0002046FEF715FA07F158031B685A1C07F140
:1042D00058031A6007F158031846FFF7D4FB07F19B
:1042E00058031846FFF7ACFB07F1C0039E49184678
:1042F000FEF7FEF9034601211846FEF7CFF9024604
:1043000007F158031B6819461046FEF72FFA0346BB
:1043100096491846FEF7ECF9024607F15803DB68A8
:1043200019461046FEF722FA07F1C00390491846D5
:10433000FEF7DEF907F1C00301211846FEF7AEF9DA
:1043400007F1180300211846FFF7E6FA024607F1C5
:10435000C00311461846FEF709FA0346834918467A
:10436000FEF7C6F907F1180301211846FFF7D4FA42
:10437000024607F1C00311461846FEF7F7F907F1A8
:104380000C031846FFF7C6FB0346C7F8A43107F134
:10439000C00378491846FEF7ABF90346D7F8A411D5
:1043A0001846FEF7E3F9034673491846FEF7A0F9ED
:1043B000044607F10C031846FFF76FFE0346194643
:1043C0002046FEF7BBF907F170031846FEF710FC14
:1043D000024607F10C0311461846FFF7BBFB07F135
:1043E0000C031846FFF796FB0346C7F8A43107F104
:1043F000C00362491846FEF77BF90346D7F8A411BB
:104400001846FEF7B3F903465B491846FEF770F904
:10441000044607F10C031846FFF73FFE0346194612
:104420002046FEF78BF907F5CA7355491846FDF784
:10443000F5FD07F1B4031846FDF725FF07F17003FA
:104440001846FEF7D5FBC7F8A00107F1A003052227
:1044500001211846FEF7CAFF07F1C0034949184673
:10446000FEF746F9D7F8A031002B0BDA07F1A003CD
:104470002D211846FFF702FE07F1C00342491846F6
:10448000FEF736F9D7F8A031404A82FB0312121327
:10449000DB17D31A00220A211846FFF783FBC7F85F
:1044A0009C0107F1A003D7F89C111846FEF7BCFF4A
:1044B00007F1C003D7F89C111846FEF719F907F168
:1044C000A0032E211846FFF7D9FD07F1C0032E21C6
:1044D0001846FEF7FDF8D7F8A0312C4A82FB0312EC
:1044E0001113DA178A1A42F2107101FB02F29A1ABA
:1044F000134604220A211846FFF754FBC7F8980117
:1045000007F1A003D7F898111846FEF78DFF07F1C1
:10451000C003D7F898111846FEF7EAF807F1C00370
:104520001B491846FEF7E4F8044607F1180300217A
:104530001846FFF7F1F9034619462046FEF716F92B
:1045400003460A491846FEF7D3F8044607F1180354
:1045500001211846FFF7E0F9034619462046FEF709
:1045600005F960E73C460008404600085046000850
:104570005446000860460008744600087C4600085F
:1045800040420F008C46000890460008AD8BDB6867
:10459000944600083C0A3200035A050001075A00FD
:1045A0008C3D2500000000010001E20714181C20CA
:1045B0008C3D25003031323334353637383941427D
:1045C00043444546000000008C3D25000A48656CC8
:1045D0006C6F2C2049276D2053544D3332463130B7
:1045E000332E0D0A555341525431206973207265A0
:1045F0006164792E0000000048656C6C6F203D29D5
:104600000000000054656D703A0000000A446174B7
:10461000653A20002E0000000A54696D653A2000BA
:104620003A0000000A4473313862323020737461FA
:104630007465497320000000657272006F6B0000A2
:104640000A466C61736820746573743A2000000038
:104650002C2000000A41444320746573743A200002
:104660000A496E7465726E616C2073656E736F7249
:104670003A20000020763235203D20000A63616C2C
:10468000696272617465643A200000000A000000EB
:104690002D0000000A4144433A2000002882655B57
:0646A000050000201011CE
:1046A60000A24A040000000000000000010203040A
:1046B60006070809000000000102030401020304C2
:1046C6000607080902040608005EBCE2613FDD83B6
:1046D600C29C7E20A3FD1F419DC3217FFCA2401EDC
:1046E6005F01E3BD3E6082DC237D9FC1421CFEA0CC
:1046F600E1BF5D0380DE3C62BEE0025CDF81633DBC
:104706007C22C09E1D43A1FF4618FAA427799BC5AB
:1047160084DA3866E5BB5907DB856739BAE406589B
:104726001947A5FB7826C49A653BD987045AB8E68B
:10473600A7F91B45C6987A24F8A6441A99C7257B7B
:104746003A6486D85B05E7B98CD2306EEDB3510F6B
:104756004E10F2AC2F7193CD114FADF3702ECC925B
:10476600D38D6F31B2EC0E50AFF1134DCE90722C4B
:104776006D33D18F0C52B0EE326C8ED0530DEFB13B
:10478600F0AE4C1291CF2D73CA947628ABF517492B
:104796000856B4EA6937D58B5709EBB536688AD41B
:1047A60095CB2977F4AA4816E9B7550B88D6346A0B
:1047B6002B7597C94A14F6A8742AC896154BA9F7FB
:0847C600B6E80A54D7896B35EF
:0400000508000000EF
:00000001FF
