:020000040800F2
:1000000000500020A9010008EF010008F1010008DC
:10001000F3010008F5010008F701000800000000E6
:10002000000000000000000000000000F9010008CE
:10003000FB01000800000000FD010008FF010008AE
:100040000302000805020008070200080902000870
:100050000B0200080D0200080F0200081102000840
:100060001302000815020008170200081902000810
:100070001B0200081D0200081F02000821020008E0
:1000800023020008250200082702000829020008B0
:100090002B0200082D0200082F0200083102000880
:1000A0003302000835020008370200083902000850
:1000B0003B0200083D0200083F0200084102000820
:1000C00043020008450200084702000849020008F0
:1000D0004B0200084D0200084F02000851020008C0
:1000E00053020008550200085702000880B487B088
:1000F00000AF786000237B6100233B610F23FB602E
:100100007B68DB78002B38D0254BDB68DB431B0A90
:1001100003F007037B617B69C3F104033B61FA6869
:100120007B6922FA03F3FB607B685B781A463B69C4
:1001300002FA03F37B617B689B781A46FB681340E5
:100140007A6913437B617B691B017B61154A7B687C
:100150001B787969C9B213440A4683F800237B6887
:100160001B7803F01F020F497B681B785B1101208D
:1001700000FA02F241F823200DE07B681B7803F0BF
:100180001F0208497B681B785B11012000FA02F20C
:10019000203341F8232000BF1C37BD4680BC704788
:1001A00000ED00E000E100E00649074A074B9A42F3
:1001B000BEBF51F8040B42F8040BF8E7044880472F
:1001C000044800477C1000080000002014000020B4
:1001D00061020008D90100081F49204A002301E0FC
:1001E00041F8043B9142FBD300F016FFFEE7FEE727
:1001F000FEE7FEE7FEE7FEE7FEE7FEE7FEE7FEE7D7
:10020000FEE7FEE7FEE7FEE7FEE7FEE7FEE7FEE7C6
:10021000FEE7FEE7FEE7FEE7FEE7FEE7FEE7FEE7B6
:10022000FEE7FEE7FEE7FEE7FEE7FEE7FEE7FEE7A6
:10023000FEE7FEE7FEE7FEE7FEE7FEE7FEE7FEE796
:10024000FEE7FEE7FEE7FEE7FEE7FEE7FEE7FEE786
:10025000FEE7FEE7FEE7FEE7140000201C0000209A
:1002600080B500AF154B1B68144A43F001031360BF
:10027000124B5A681149124B13404B600F4B1B68CD
:100280000E4A23F0847323F4803313600B4B1B68F6
:100290000A4A23F480231360084B5B68074A23F45F
:1002A000FE035360054B4FF41F029A6000F00CF8F8
:1002B000044B4FF000629A6000BF80BD0010024006
:1002C0000000FFF800ED00E080B500AF00F002F89C
:1002D00000BF80BD80B483B000AF00237B600023EB
:1002E0003B60474B1B68464A43F480331360444BE2
:1002F0001B6803F400333B607B6801337B603B6821
:10030000002B05D17B68B3F5A06F01D0012300E07D
:100310000023002B00D0EAE7394B1B6803F40033BD
:10032000002B14BF01230023DBB2002B02D00123DA
:100330003B6001E000233B603B68012B0CBF0123C5
:100340000023DBB2002B55D02E4B1B682D4A43F007
:10035000100313602B4B1B682A4A23F0030313601E
:10036000284B1B68274A43F002031360244B244A9E
:100370005B685360224B224A5B685360204B5B688A
:100380001F4A43F4806353601D4B5B681C4A23F48F
:100390007C1353601A4B5B68194A43F4E8135360AB
:1003A000174B1B68164A43F080731360144B1B688D
:1003B00003F00073002B0CBF01230023DBB2002BE2
:1003C00000D0F3E70E4B5B680D4A23F00303536044
:1003D0000B4B5B680A4A43F002035360084B5B68AF
:1003E00003F00C03082B14BF01230023DBB2002B06
:1003F00000D0F3E700BF0C37BD4680BC704700BF9C
:10040000001002400020024080B400AF134B1B6874
:10041000124A43F001031360104B5A680F49104B06
:1004200013404B600D4B1B680C4A23F0847323F47C
:1004300080331360094B1B68084A23F48023136040
:10044000064B5B68054A23F4FE035360034B4FF4ED
:100450001F029A6000BFBD4680BC7047001002407A
:100460000000FFF880B483B000AF7860134B1B68C6
:10047000124A23F480331360104B1B680F4A23F495
:10048000802313607B68B3F5803F03D0B3F5802FE2
:1004900007D00DE0094B1B68084A43F48033136012
:1004A00006E0064B1B68054A43F4A023136000BF17
:1004B00000BF0C37BD4680BC704700BF0010024033
:1004C00080B584B000AF0023BB600023FB71002324
:1004D000FB73312000F0A8F90346FB73BB680133BE
:1004E000BB60BB68B3F5A06F04D0FB7B002B01D1D0
:1004F000012300E00023002B00D0EAE7312000F0C8
:1005000093F90346002B14BF01230023DBB2002B19
:1005100002D00123FB7101E00023FB71FB79184637
:100520001037BD4680BD000080B485B000AF786054
:1005300039600023FB600A4B5B68FB60FB6823F4B7
:100540007C13FB607A683B681343FA681343FB60D3
:10055000034AFB68536000BF1437BD4680BC704738
:100560000010024080B483B000AF0346FB71044A20
:10057000FB79136000BF0C37BD4680BC704700BFDD
:100580006000424280B485B000AF78600023FB6019
:10059000094B5B68FB60FB6823F00303FB60FA68B0
:1005A0007B681343FB60044AFB68536000BF143749
:1005B000BD4680BC704700BF0010024080B400AF51
:1005C000044B5B68DBB203F00C03DBB21846BD469C
:1005D00080BC70470010024080B485B000AF7860E6
:1005E0000023FB60094B5B68FB60FB6823F0F003B2
:1005F000FB60FA687B681343FB60044AFB68536046
:1006000000BF1437BD4680BC704700BF00100240D9
:1006100080B485B000AF78600023FB60094B5B6855
:10062000FB60FB6823F4E063FB60FA687B681343BC
:10063000FB60044AFB68536000BF1437BD4680BCB2
:10064000704700BF0010024080B485B000AF7860F2
:100650000023FB60094B5B68FB60FB6823F460537D
:10066000FB607B68DB00FA681343FB60034AFB68AE
:10067000536000BF1437BD4680BC70470010024075
:1006800080B487B000AF786000237B6100233B61BA
:100690000023FB600023BB604F4B5B6803F00C033F
:1006A0007B617B69042B07D0082B09D0002B38D144
:1006B0007B684A4A1A6038E07B68484A1A6034E02E
:1006C000454B5B6803F470133B61434B5B6803F479
:1006D0008033FB603B699B0C02333B61FB68002B62
:1006E00006D13B693E4A02FB03F27B681A601CE0BC
:1006F000394B5B6803F40033002B14BF0123002344
:10070000DBB2002B06D03B69354A02FB03F27B6863
:100710001A600AE03B69314A02FB03F27B681A6007
:1007200003E07B682D4A1A6000BF2B4B5B6803F027
:10073000F0037B617B691B097B612A4A7B69134457
:100740001B78DBB2BB607B681A68BB68DA407B68E9
:100750005A60214B5B6803F4E0637B617B691B0A91
:100760007B61204A7B6913441B78DBB2BB607B68EA
:100770005A68BB68DA407B689A60174B5B6803F481
:1007800060537B617B69DB0A7B61164A7B6913449A
:100790001B78DBB2BB607B685A68BB68DA407B6859
:1007A000DA600D4B5B6803F440437B617B699B0B14
:1007B0007B610D4A7B6913441B78DBB2BB607B68AD
:1007C000DA68BB68B2FBF3F27B681A6100BF1C37C2
:1007D000BD4680BC704700BF0010024000127A0086
:1007E00000093D00000000201000002080B483B00C
:1007F00000AF78600B46FB70FB78002B06D0094BEE
:100800009A6908497B6813438B6106E0054B9A6936
:100810007B68DB43034913408B6100BF0C37BD4647
:1008200080BC70470010024080B487B000AF034620
:10083000FB710023FB6000237B610023FB74FB79C9
:100840005B11FB60FB68012B03D1124B1B687B61C2
:1008500009E0FB68022B03D10E4B1B6A7B6102E0AF
:100860000C4B5B6A7B61FB7903F01F03FB607A69C9
:10087000FB6822FA03F303F00103002B02D00123EB
:10088000FB7401E00023FB74FB7C18461C37BD465B
:1008900080BC70470010024080B489B000AF78601F
:1008A00039600023FB6100233B610023BB6100230F
:1008B000FB6000237B610023BB603B68DB7803F0B7
:1008C0000F03FB613B68DB7803F01003002B05D0BE
:1008D0003B689B781A46FB691343FB613B681B88A6
:1008E000DBB2002B44D07B681B687B610023BB61BB
:1008F000BB69072B39D80122BB6902FA03F3FB60FD
:100900003B681B881A46FB6813403B613A69FB68E9
:100910009A4226D1BB699B00FB600F22FB6802FA5A
:1009200003F3BB60BB68DB437A6913407B61FA6900
:10093000FB6802FA03F37A6913437B613B68DB7857
:10094000282B05D10122BB699A407B685A6108E0D7
:100950003B68DB78482B04D10122BB699A407B6855
:100960001A61BB690133BB61C2E77B687A691A60AF
:100970003B681B88FF2B46D97B685B687B61002343
:10098000BB61BB69072B3BD8BB690833012202FA64
:1009900003F3FB603B681B881A46FB6813403B610E
:1009A0003A69FB689A4227D1BB699B00FB600F2222
:1009B000FB6802FA03F3BB60BB68DB437A69134050
:1009C0007B61FA69FB6802FA03F37A6913437B617E
:1009D0003B68DB78282B05D1BB69083301229A409C
:1009E0007B685A613B68DB78482B05D1BB690833CB
:1009F00001229A407B681A61BB690133BB61C0E781
:100A00007B687A695A6000BF2437BD4680BC704756
:100A100080B483B000AF78600B467B807A887B68B7
:100A20001A6100BF0C37BD4680BC704780B483B0EC
:100A300000AF78600B467B807A887B685A6100BF84
:100A40000C37BD4680BC704780B58CB000AF786075
:100A500039600023FB620023BB6200237B6200231A
:100A60003B620023FB617B68FB617B681B8A9BB256
:100A7000FB62FA6A4CF6FF731340FB623B68DB884B
:100A80001A46FB6A1343FB62FB6A9AB27B681A82BE
:100A90007B689B899BB2FB62FA6A4EF6F3131340A4
:100AA000FB623B689A883B681B8913439AB23B6898
:100AB0005B8913439BB21A46FB6A1343FB62FB6AD2
:100AC0009AB27B689A817B689B8A9BB2FB62FA6AC6
:100AD0004FF6FF431340FB623B689B891A46FB6A53
:100AE0001343FB62FB6A9AB27B689A8207F10803A0
:100AF0001846FFF7C5FDFB69314A934202D17B6975
:100B0000BB6201E03B69BB627B689B899BB21BB205
:100B10009BB2DB0BDBB2002B0CD0BA6A13469B00F6
:100B200013449A001A443B681B685B00B2FBF3F362
:100B30007B620BE0BA6A13469B0013449A001A4486
:100B40003B681B689B00B2FBF3F37B627B6A1D4A28
:100B5000A2FB03235B091B01FB62FB6A1B096422E6
:100B600002FB03F37A6AD31A3B627B689B899BB2D0
:100B70001BB29BB2DB0BDBB2002B0CD03B6ADB0061
:100B80003233104AA2FB03235B0903F00703FA6A1E
:100B90001343FB620BE03B6A1B013233094AA2FBA1
:100BA00003235B0903F00F03FA6A1343FB62FB6A3A
:100BB0009AB27B681A8100BF3037BD4680BD00BF46
:100BC000003801401F85EB5180B483B000AF7860DE
:100BD0000B46FB70FB78002B08D07B689B899BB28F
:100BE00043F400539AB27B689A8107E07B689B8943
:100BF0009BB223F400539AB27B689A8100BF0C37F2
:100C0000BD4680BC704780B487B000AF78600B46AB
:100C10007B8013467B7000233B610023FB60002335
:100C2000BB6000237B617B687B617B88DBB25B11EF
:100C30003B617B8803F01F03FB600122FB6802FA23
:100C400003F3BB603B69012B03D17B690C337B61F0
:100C500009E03B69022B03D17B6910337B6102E021
:100C60007B6914337B617B78002B06D07B69196824
:100C70007B69BA680A431A6006E07B691968BB6839
:100C8000DA437B690A401A6000BF1C37BD4680BC4E
:100C9000704780B483B000AF78600B467B807B8860
:100CA000C3F308039AB27B689A8000BF0C37BD4635
:100CB00080BC704780B485B000AF78600B467B8005
:100CC0000023FB737B681B889AB27B8813409BB21E
:100CD000002B14BF01230023DBB2002B02D0012321
:100CE000FB7301E00023FB73FB7B18461437BD4602
:100CF00080BC704780B588B000AF786007F108030A
:100D00001846FFF7BDFCFB680B4AA2FB03235B0BF5
:100D10007A6802FB03F3FB61FB69002B14BF01231C
:100D20000023DBB2002B03D0FB69013BFB61F3E73F
:100D300000BF2037BD4680BD5917B7D180B582B0FE
:100D400000AFFFF761FB4FF48030FFF78BFBFFF73D
:100D5000B7FB0346FB71FB79012B2CD10020FFF779
:100D60003BFC0020FFF770FC4FF48060FFF750FC65
:100D70004FF4E0114FF48030FFF7D6FB0120FFF76E
:100D8000F1FB3920FFF750FD0346002B0CBF012378
:100D90000023DBB2002B00D0F3E70220FFF7F2FBC9
:100DA000FFF70CFC0346082B14BF01230023DBB222
:100DB000002B01D0F4E7FEE700BF0837BD4680BD39
:100DC00080B584B000AF7860084611461A460346E5
:100DD0007B800B467B7013463B707B68224A9342B4
:100DE00002D10423FB6029E07B68204A934202D1B0
:100DF0000823FB6022E07B681D4A934202D1102346
:100E0000FB601BE07B681B4A934202D12023FB60FE
:100E100014E07B68184A934202D14023FB600DE046
:100E20007B68164A934202D18023FB6006E07B6810
:100E3000134A934213D14FF48073FB600121F86889
:100E4000FFF7D4FC7B883B817B78FB723B78BB72DD
:100E500007F1080319467868FFF71EFD00E000BFA0
:100E60001037BD4680BD00BF00080140000C0140A6
:100E7000001001400014014000180140001C014016
:100E80000020014080B584B000AFF860B96013461F
:100E9000FB80FB68BA681A60FB68FA889A80F98858
:100EA00003231022B868FFF78BFFFB6801229A60CA
:100EB000FB6818461037BD4680BD80B582B000AFD4
:100EC00078607B681A687B689B8819461046FFF734
:100ED000ADFD7B6801229A6000BF0837BD4680BD2A
:100EE00080B582B000AF78607B681A687B689B88A9
:100EF00019461046FFF78CFD7B6800229A6000BF00
:100F00000837BD4680BD80B582B000AF78607B6891
:100F10009B68002B03D07868FFF7E2FF02E0786857
:100F2000FFF7CBFF00BF0837BD4680BD80B586B058
:100F300000AF012144F20400FFF758FC25233B7564
:100F400000237B750023BB750123FB7507F1140398
:100F50001846FFF7CBF84FF400733B821823FB745D
:100F60000323BB7407F1100319461748FFF794FCDD
:100F70004FF480633B820423FB7407F1100319468E
:100F80001148FFF789FC4FF4E1333B600023BB803D
:100F90000023FB8000233B810023BB810C237B814A
:100FA0003B4619460948FFF74FFD01210748FFF767
:100FB0000BFE012240F225510448FFF724FE00BF3A
:100FC0001837BD4680BD00BF000801400038014011
:100FD00080B582B000AF78607B681B78002B15D09D
:100FE0007B685A1C7A601B789BB219460948FFF748
:100FF00050FE40210748FFF75DFE0346002B0CBF63
:1010000001230023DBB2002BE6D0F2E700BF083754
:10101000BD4680BD0038014080B584B000AFFFF709
:101020008DFE3B1D4FF400520A491846FFF72AFF78
:10103000094A3B1D1360FFF779FF0848FFF7C8FF17
:101040004FF4FA60FFF756FE3B1D1846FFF75BFFB3
:10105000F6E700BF001001401800002060100008F3
:101060002048656C6C6F2E0D0A5553415254312047
:0C10700069732072656164792E0D0A001E
:10107C000000000001020304010203040607080932
:04108C00020406084C
:0400000508000000EF
:00000001FF
