:020000040800F2
:1000000000500020A9010008EF010008F1010008DC
:10001000F3010008F5010008F701000800000000E6
:10002000000000000000000000000000F9010008CE
:10003000FB01000800000000FD0100083915000860
:100040000302000805020008070200080902000870
:100050000B0200080D0200080F0200081102000840
:100060001302000815020008170200081902000810
:100070001B0200081D020008A9190008210200083F
:1000800023020008C51900082702000829020008F9
:100090002B0200082D0200082F0200083102000880
:1000A0003302000835020008370200083902000850
:1000B000BD2400083D0200083F020008410200087C
:1000C00043020008450200084702000849020008F0
:1000D0004B020008E91800084919000851020008FD
:1000E00053020008550200085702000880B487B088
:1000F00000AF786000237B6100233B610F23FB602E
:100100007B68DB78002B38D0254BDB68DB431B0A90
:1001100003F007037B617B69C3F104033B61FA6869
:100120007B6922FA03F3FB607B685B781A463B69C4
:1001300002FA03F37B617B689B781A46FB681340E5
:100140007A6913437B617B691B017B61154A7B687C
:100150001B787969C9B213440A4683F800237B6887
:100160001B7803F01F020F497B681B785B1101208D
:1001700000FA02F241F823200DE07B681B7803F0BF
:100180001F0208497B681B785B11012000FA02F20C
:10019000203341F8232000BF1C37BD4680BC704788
:1001A00000ED00E000E100E00649074A074B9A42F3
:1001B000BEBF51F8040B42F8040BF8E7044880472F
:1001C000044800478C2D0008000000202C0000206F
:1001D00061020008D90100081F49204A002301E0FC
:1001E00041F8043B9142FBD302F0FEF9FEE7FEE743
:1001F000FEE7FEE7FEE7FEE7FEE7FEE7FEE7FEE7D7
:10020000FEE7FEE7FEE7FEE7FEE7FEE7FEE7FEE7C6
:10021000FEE7FEE7FEE7FEE7FEE7FEE7FEE7FEE7B6
:10022000FEE7FEE7FEE7FEE7FEE7FEE7FEE7FEE7A6
:10023000FEE7FEE7FEE7FEE7FEE7FEE7FEE7FEE796
:10024000FEE7FEE7FEE7FEE7FEE7FEE7FEE7FEE786
:10025000FEE7FEE7FEE7FEE72C0000204C00002052
:1002600080B500AF154B1B68144A43F001031360BF
:10027000124B5A681149124B13404B600F4B1B68CD
:100280000E4A23F0847323F4803313600B4B1B68F6
:100290000A4A23F480231360084B5B68074A23F45F
:1002A000FE035360054B4FF41F029A6000F07EF886
:1002B000044B4FF000629A6000BF80BD0010024006
:1002C0000000FFF800ED00E080B485B000AF00232F
:1002D000FB600023BB6000237B602F4B5B6803F057
:1002E0000C03FB60FB68042B07D0082B09D0002B04
:1002F00038D12A4B2A4A1A6038E0284B284A1A601B
:1003000034E0254B5B6803F47013BB60224B5B68E1
:1003100003F480337B60BB689B0C0233BB607B685B
:10032000002B06D1BB681F4A02FB03F31B4A136074
:100330001CE0194B5B6803F40033002B14BF01234E
:100340000023DBB2002B06D0BB68164A02FB03F386
:10035000124A13600AE0BB68114A02FB03F30F4A1A
:10036000136003E00D4B0E4A1A6000BF0A4B5B6836
:100370001B0903F00F030C4AD35CDBB2FB60074B95
:100380001A68FB6822FA03F3044A136000BF1437AB
:10039000BD4680BC704700BF001002400000002036
:1003A00000127A0000093D000400002080B500AF73
:1003B00000F002F800BF80BD80B483B000AF00231E
:1003C0007B6000233B60474B1B68464A43F4803305
:1003D0001360444B1B6803F400333B607B680133BC
:1003E0007B603B68002B05D17B68B3F5A06F01D023
:1003F000012300E00023002B00D0EAE7394B1B6803
:1004000003F40033002B14BF01230023DBB2002BC5
:1004100002D001233B6001E000233B603B68012BDD
:100420000CBF01230023DBB2002B55D02E4B1B68E1
:100430002D4A43F0100313602B4B1B682A4A23F00C
:1004400003031360284B1B68274A43F00203136021
:10045000244B244A5B685360224B224A5B685360FA
:10046000204B5B681F4A43F4806353601D4B5B68FD
:100470001C4A23F47C1353601A4B5B68194A43F4FB
:10048000E8135360174B1B68164A43F080731360E0
:10049000144B1B6803F00073002B0CBF01230023D7
:1004A000DBB2002B00D0F3E70E4B5B680D4A23F064
:1004B000030353600B4B5B680A4A43F0020353602B
:1004C000084B5B6803F00C03082B14BF01230023C7
:1004D000DBB2002B00D0F3E700BF0C37BD4680BC79
:1004E000704700BF001002400020024080B400AFFF
:1004F000134B1B68124A43F001031360104B5A68F8
:100500000F49104B13404B600D4B1B680C4A23F0F6
:10051000847323F480331360094B1B68084A23F467
:1005200080231360064B5B68054A23F4FE03536087
:10053000034B4FF41F029A6000BFBD4680BC70475A
:10054000001002400000FFF880B483B000AF786074
:10055000134B1B68124A23F480331360104B1B6843
:100560000F4A23F4802313607B68B3F5803F03D0E8
:10057000B3F5802F07D00DE0094B1B68084A43F400
:100580008033136006E0064B1B68054A43F4A02342
:10059000136000BF00BF0C37BD4680BC704700BF72
:1005A0000010024080B584B000AF0023BB60002380
:1005B000FB710023FB73312000F0E4F90346FB7369
:1005C000BB680133BB60BB68B3F5A06F04D0FB7B95
:1005D000002B01D1012300E00023002B00D0EAE72B
:1005E000312000F0CFF90346002B14BF0123002374
:1005F000DBB2002B02D00123FB7101E00023FB7171
:10060000FB7918461037BD4680BD000080B485B028
:1006100000AF786039600023FB600A4B5B68FB60C9
:10062000FB6823F47C13FB607A683B681343FA6829
:100630001343FB60034AFB68536000BF1437BD4699
:1006400080BC70470010024080B483B000AF034606
:10065000FB71044AFB79136000BF0C37BD4680BCB8
:10066000704700BF6000424280B485B000AF786040
:100670000023FB60094B5B68FB60FB6823F003030E
:10068000FB60FA687B681343FB60044AFB685360B5
:1006900000BF1437BD4680BC704700BF0010024049
:1006A00080B400AF044B5B68DBB203F00C03DBB239
:1006B0001846BD4680BC70470010024080B485B02B
:1006C00000AF78600023FB60094B5B68FB60FB6850
:1006D00023F0F003FB60FA687B681343FB60044A75
:1006E000FB68536000BF1437BD4680BC704700BF35
:1006F0000010024080B485B000AF78600023FB603A
:10070000094B5B68FB60FB6823F4E063FB60FA68FD
:100710007B681343FB60044AFB68536000BF1437D7
:10072000BD4680BC704700BF0010024080B485B059
:1007300000AF78600023FB60094B5B68FB60FB68DF
:1007400023F46053FB607B68DB00FA681343FB60B3
:10075000034AFB68536000BF1437BD4680BC704736
:100760000010024080B487B000AF786000237B6146
:1007700000233B610023FB600023BB604F4B5B68A1
:1007800003F00C037B617B69042B07D0082B09D095
:10079000002B38D17B684A4A1A6038E07B68484AA7
:1007A0001A6034E0454B5B6803F470133B61434BC4
:1007B0005B6803F48033FB603B699B0C02333B6155
:1007C000FB68002B06D13B693E4A02FB03F27B68C3
:1007D0001A601CE0394B5B6803F40033002B14BF34
:1007E00001230023DBB2002B06D03B69354A02FB14
:1007F00003F27B681A600AE03B69314A02FB03F2AC
:100800007B681A6003E07B682D4A1A6000BF2B4B9F
:100810005B6803F0F0037B617B691B097B612A4AFB
:100820007B6913441B78DBB2BB607B681A68BB68CA
:10083000DA407B685A60214B5B6803F4E0637B61BC
:100840007B691B0A7B61204A7B6913441B78DBB2FE
:10085000BB607B685A68BB68DA407B689A60174B5C
:100860005B6803F460537B617B69DB0A7B61164A3A
:100870007B6913441B78DBB2BB607B685A68BB683A
:10088000DA407B68DA600D4B5B6803F440437B61C0
:100890007B699B0B7B610D4A7B6913441B78DBB240
:1008A000BB607B68DA68BB68B2FBF3F27B681A61F5
:1008B00000BF1C37BD4680BC704700BF001002401F
:1008C00000127A0000093D001400002024000020DE
:1008D00080B483B000AF78600B46FB70FB78002BD0
:1008E00006D0094B5A6908497B6813434B6106E0FF
:1008F000054B5A697B68DB43034913404B6100BFDA
:100900000C37BD4680BC70470010024080B483B0F5
:1009100000AF78600B46FB70FB78002B06D0094BCC
:100920009A6908497B6813438B6106E0054B9A6915
:100930007B68DB43034913408B6100BF0C37BD4626
:1009400080BC70470010024080B483B000AF786074
:100950000B46FB70FB78002B06D0094BDA6908497F
:100960007B681343CB6106E0054BDA697B68DB43A8
:1009700003491340CB6100BF0C37BD4680BC7047B4
:100980000010024080B487B000AF0346FB71002323
:10099000FB6000237B610023FB74FB795B11FB6030
:1009A000FB68012B03D1124B1B687B6109E0FB68DC
:1009B000022B03D10E4B1B6A7B6102E00C4B5B6A7E
:1009C0007B61FB7903F01F03FB607A69FB6822FA05
:1009D00003F303F00103002B02D00123FB7401E0B9
:1009E0000023FB74FB7C18461C37BD4680BC704757
:1009F0000010024080B489B000AF786039600023F5
:100A0000FB6100233B610023BB610023FB600023EB
:100A10007B610023BB603B68DB7803F00F03FB6165
:100A20003B68DB7803F01003002B05D03B689B7814
:100A30001A46FB691343FB613B681B88DBB2002B42
:100A400044D07B681B687B610023BB61BB69072BBB
:100A500039D80122BB6902FA03F3FB603B681B88AB
:100A60001A46FB6813403B613A69FB689A4226D1FB
:100A7000BB699B00FB600F22FB6802FA03F3BB60BB
:100A8000BB68DB437A6913407B61FA69FB6802FA51
:100A900003F37A6913437B613B68DB78282B05D12C
:100AA0000122BB699A407B685A6108E03B68DB78A9
:100AB000482B04D10122BB699A407B681A61BB694B
:100AC0000133BB61C2E77B687A691A603B681B88A7
:100AD000FF2B46D97B685B687B610023BB61BB69E8
:100AE000072B3BD8BB690833012202FA03F3FB60F2
:100AF0003B681B881A46FB6813403B613A69FB68F8
:100B00009A4227D1BB699B00FB600F22FB6802FA67
:100B100003F3BB60BB68DB437A6913407B61FA690E
:100B2000FB6802FA03F37A6913437B613B68DB7865
:100B3000282B05D1BB69083301229A407B685A6192
:100B40003B68DB78482B05D1BB69083301229A400A
:100B50007B681A61BB690133BB61C0E77B687A6956
:100B60005A6000BF2437BD4680BC704780B483B054
:100B700000AF78600B467B807A887B681A6100BF83
:100B80000C37BD4680BC704780B483B000AF78603E
:100B90000B467B807A887B685A6100BF0C37BD4664
:100BA00080BC704780B58CB000AF7860396000239E
:100BB000FB620023BB6200237B6200233B620023B5
:100BC000FB617B68FB617B681B8A9BB2FB62FA6AF4
:100BD0004CF6FF731340FB623B68DB881A46FB6AE6
:100BE0001343FB62FB6A9AB27B681A827B689B891B
:100BF0009BB2FB62FA6A4EF6F3131340FB623B684A
:100C00009A883B681B8913439AB23B685B891343FC
:100C10009BB21A46FB6A1343FB62FB6A9AB27B687B
:100C20009A817B689B8A9BB2FB62FA6A4FF6FF430C
:100C30001340FB623B689B891A46FB6A1343FB62C5
:100C4000FB6A9AB27B689A8207F108031846FFF79D
:100C500089FDFB69314A934202D17B69BB6201E0A5
:100C60003B69BB627B689B899BB21BB29BB2DB0B6F
:100C7000DBB2002B0CD0BA6A13469B0013449A00D7
:100C80001A443B681B685B00B2FBF3F37B620BE02A
:100C9000BA6A13469B0013449A001A443B681B68C7
:100CA0009B00B2FBF3F37B627B6A1D4AA2FB03232A
:100CB0005B091B01FB62FB6A1B09642202FB03F355
:100CC0007A6AD31A3B627B689B899BB21BB29BB248
:100CD000DB0BDBB2002B0CD03B6ADB003233104A5B
:100CE000A2FB03235B0903F00703FA6A1343FB62C9
:100CF0000BE03B6A1B013233094AA2FB03235B0969
:100D000003F00F03FA6A1343FB62FB6A9AB27B6833
:100D10001A8100BF3037BD4680BD00BF003801409A
:100D20001F85EB5180B483B000AF78600B46FB7039
:100D3000FB78002B08D07B689B899BB243F400535F
:100D40009AB27B689A8107E07B689B899BB223F407
:100D500000539AB27B689A8100BF0C37BD4680BCB5
:100D6000704780B487B000AF78600B467B80134635
:100D70007B7000233B610023FB600023BB600023EA
:100D80007B617B687B617B88DBB25B113B617B882D
:100D900003F01F03FB600122FB6802FA03F3BB6050
:100DA0003B69012B03D17B690C337B6109E03B6913
:100DB000022B03D17B6910337B6102E07B69143322
:100DC0007B617B78002B06D07B6919687B69BA68E8
:100DD0000A431A6006E07B691968BB68DA437B69DD
:100DE0000A401A6000BF1C37BD4680BC704780B403
:100DF00083B000AF78600B467B8013467B707B78B6
:100E0000002B08D07B689B8A9AB27B8813439AB2E6
:100E10007B689A8209E07B689B8A9AB27B88DB4375
:100E20009BB213409AB27B689A8200BF0C37BD46D2
:100E300080BC704780B483B000AF78600B467B8085
:100E40007B88C3F308039AB27B689A8000BF0C3793
:100E5000BD4680BC704780B483B000AF78607B68CB
:100E60009B889BB2C3F308039BB218460C37BD4660
:100E700080BC704780B485B000AF78600B467B8043
:100E80000023FB737B681B889AB27B8813409BB25C
:100E9000002B14BF01230023DBB2002B02D001235F
:100EA000FB7301E00023FB73FB7B18461437BD4640
:100EB00080BC704780B58AB000AF7860396000238D
:100EC000FB8400237B840423BB84574BFB617B683A
:100ED0009B88FB84FB8C23F03F03FB8407F1080312
:100EE0001846FFF73FFC3B69FB61FB694F4AA2FBD9
:100EF00003239B0C7B84FA8C7B8C1343FB847B68E1
:100F0000FA8C9A807B681B889BB223F001039AB20B
:100F10007B681A800023FB843B681B68444A934229
:100F200015D83B681B685B00FA69B2FBF3F3BB841E
:100F3000BB8C032B01D80423BB84FA8CBB8C1343DA
:100F4000FB847B8C01339AB27B681A8440E03B6857
:100F5000DB884BF6FF72934209D13B681A6813464F
:100F60005B001344FA69B2FBF3F3BB840EE03B6809
:100F70001A6813469B0013449A001344FA69B2FBA3
:100F8000F3F3BB84BB8C43F48043BB84BB8CC3F3BF
:100F90000B03002B03D1BB8C43F00103BB84BA8C41
:100FA000FB8C13439BB26FEA43436FEA5343FB84CA
:100FB0007B8C4FF4967202FB03F31E4A82FB0312F2
:100FC0009211DB17D31A9BB201339AB27B681A8451
:100FD0007B68FA8C9A837B681B889BB243F0010381
:100FE0009AB27B681A807B681B88FB84FB8C23F495
:100FF000816323F00203FB843B689A883B685B892A
:1010000013439AB2FB8C1343FB847B68FA8C1A80DF
:101010003B689A893B681B8913439AB27B681A81A3
:1010200000BF2837BD4680BD00127A0083DE1B4317
:10103000A0860100D34D621080B483B000AF786009
:101040000B46FB70FB78002B08D07B681B889BB29B
:1010500043F001039AB27B681A8007E07B681B8823
:101060009BB223F001039AB27B681A8000BF0C3751
:10107000BD4680BC704780B483B000AF78600B463B
:10108000FB70FB78002B08D07B681B889BB243F475
:1010900080739AB27B681A8007E07B681B889BB2DA
:1010A00023F480739AB27B681A8000BF0C37BD4668
:1010B00080BC704780B483B000AF78600B46FB7093
:1010C000FB78002B08D07B681B889BB243F400732D
:1010D0009AB27B681A8007E07B681B889BB223F476
:1010E00000739AB27B681A8000BF0C37BD4680BC83
:1010F000704780B483B000AF78600B46FB70FB781C
:101100009AB27B681A8200BF0C37BD4680BC70471C
:1011100080B483B000AF78600B46FB701346BB70A1
:10112000BB78002B04D0FB7843F00103FB7003E095
:10113000FB7823F00103FB70FB789AB27B681A827C
:1011400000BF0C37BD4680BC704780B487B000AF8D
:101150007860396000233B610023FB600023BB60A3
:101160000023FB757B689B8A9BB2FB607B681B8BB3
:101170009BB2BB60BB681B04BB60FA68BB681343CF
:1011800023F07F433B613A693B6813403A689A42D7
:1011900002D10123FB7501E00023FB75FB7D18469E
:1011A0001C37BD4680BC704780B487B000AF786004
:1011B00039600023FB7500233B610023FB607B68E3
:1011C000FB603B681B0F3B613B6823F07F433B6048
:1011D0003B69002B14BF01230023DBB2002B03D09B
:1011E000FB681433FB6005E03B681B0C3B60FB684D
:1011F0001833FB60FB681A683B681340002B14BF70
:1012000001230023DBB2002B02D00123FB7501E098
:101210000023FB75FB7D18461C37BD4680BC70471C
:1012200080B485B000AF786039600023FB607B68D4
:101230001B68FB60FB6823F4FF4323F07003FB6033
:101240003B689A683B681B6A1A433B681B691A43F0
:101250003B685B691A433B689B691A433B68DB69DF
:101260001A433B685B6A1A433B689B6A1343FA68FC
:101270001343FB607B68FA681A603B68DA687B6836
:101280005A603B681A687B689A603B685A687B685A
:10129000DA6000BF1437BD4680BC704780B483B0AD
:1012A00000AF78600B46FB70FB78002B06D07B68A4
:1012B0001B6843F001027B681A6006E07B681A68CD
:1012C0004FF6FE7313407A68136000BF0C37BD46BB
:1012D00080BC704780B485B000AFF860B960134639
:1012E000FB71FB79002B06D0FB681A68BB681A43B8
:1012F000FB681A6006E0FB681A68BB68DB431A40AB
:10130000FB681A6000BF1437BD4680BC7047000000
:1013100080B483B000AF78607B6803F08053002B0B
:1013200003D0064A7B68536002E0054A7B6853603D
:1013300000BF0C37BD4680BC704700BF00040240B0
:101340000000024080B483B000AF78607B681B8FE0
:101350009BB218460C37BD4680BC704780B485B040
:1013600000AF78600B467B800023FB737B681B8A91
:101370009AB27B8813409BB2002B14BF0123002339
:10138000DBB2002B02D00123FB7301E00023FB73CF
:10139000FB7B18461437BD4680BC704780B483B0D1
:1013A00000AF78600B467B807B88DB439AB27B681A
:1013B0001A8200BF0C37BD4680BC704780B485B030
:1013C00000AF78600B467B800023FB730023BB815A
:1013D00000237B817B681B8A9AB27B881340BB8188
:1013E0007B689B899AB27B8813407B81BB89002BE9
:1013F00005D07B89002B02D00123FB7301E0002381
:10140000FB73FB7B18461437BD4680BC704780B425
:1014100083B000AF78600B467B807B88DB439AB259
:101420007B681A8200BF0C37BD4680BC7047000045
:1014300080B485B000AF78600023FB60094B1B6867
:10144000FB60FB6803F03803FB60FA687B681343BA
:10145000FB60044AFB68136000BF1437BD4680BCC4
:10146000704700BF0020024080B483B000AF7860B6
:10147000084B1B68074A23F010031360054B1A68DA
:1014800004497B6813430B6000BF0C37BD4680BC2A
:10149000704700BF0020024080B483B000AF034615
:1014A0003960FB7197F90730002B0CDB3B68DBB22E
:1014B0000E4A97F9071008461B01D9B213180A46BD
:1014C00083F800230CE03B68DAB2094997F907304A
:1014D000DBB203F00F03043B1201D2B20B441A76C5
:1014E00000BF0C37BD4680BC704700BF00E100E084
:1014F00000ED00E080B582B000AF78607B68013B12
:10150000B3F1807F01D301230FE00A4A7B68013BDE
:1015100053600F214FF0FF30FFF7BEFF054B002255
:101520009A60044B07221A60002318460837BD460C
:1015300080BD00BF10E000E080B400AF064B1B6828
:10154000002B04D0044B1B68013B034A136000BF0F
:10155000BD4680BC704700BF2C00002080B582B023
:1015600000AF7860FEF7B0FE154B1B68154AA2FB72
:1015700003239B091846FFF7BDFF134BDB6803F0FD
:101580008073002B0CBF01230023DBB2002B0ED095
:101590000D4BDB680C4A43F08073D3600B4B002289
:1015A0005A600A4B1B68094A43F0010313607B68C9
:1015B00000221A607B6818460837BD4680BD00BF10
:1015C00000000020D34D6210F0ED00E0001000E0BC
:1015D00080B483B000AF78603960064A3B6813601E
:1015E000044B1B68002B00D0FAE700BF0C37BD4648
:1015F00080BC70472C00002080B584B000AF7860BC
:101600003960786800F01EF80346DB43FB600C4B42
:101610001A683B6802FB03F3BB60786800F012F8BD
:101620000246FB681344BA689A428CBF0123002328
:10163000DBB2002B00D0F0E700BF1037BD4680BD05
:101640003000002080B483B000AF7860034B5B684B
:1016500018460C37BD4680BC704700BF001000E044
:1016600080B483B000AF786039607B68012B0CD107
:101670003B684FF6FF72934207D1064B1B68064A40
:10168000A2FB03239B0C054A136000BF0C37BD4629
:1016900080BC70470000002083DE1B433000002028
:1016A00080B500AF4FF6FF710120FFF7D9FF80BD75
:1016B00080B582B000AFFEF719FF4FF48030FEF71F
:1016C00043FFFEF76FFF0346FB71FB79012B32D11D
:1016D0001020FFF7C9FE0220FFF7AAFE0020FEF748
:1016E000EDFF0020FFF722F84FF48060FFF702F8CB
:1016F0004FF4E0114FF48030FEF788FF0120FEF731
:10170000A3FF3920FFF73EF90346002B0CBF01234E
:101710000023DBB2002B00D0F3E70220FEF7A4FF8A
:10172000FEF7BEFF0346082B14BF01230023DBB2E4
:10173000002B01D0F4E7FEE700BF0837BD4680BDAF
:1017400080B584B000AF7860084611461A4603465B
:101750007B800B467B7013463B707B68224A93422A
:1017600002D10423FB6029E07B68204A934202D126
:101770000823FB6022E07B681D4A934202D11023BC
:10178000FB601BE07B681B4A934202D12023FB6075
:1017900014E07B68184A934202D14023FB600DE0BD
:1017A0007B68164A934202D18023FB6006E07B6887
:1017B000134A934213D14FF48073FB600121F86800
:1017C000FFF7A4F87B883B817B78FB723B78BB7288
:1017D00007F1080319467868FFF70CF900E000BF2D
:1017E0001037BD4680BD00BF00080140000C01401D
:1017F000001001400014014000180140001C01408D
:101800000020014080B584B000AFF860B960134695
:10181000FB80FB68BA681A60FB68FA889A80F988CE
:1018200003231022B868FFF78BFFFB6801229A6040
:10183000FB6818461037BD4680BD80B582B000AF4A
:1018400078607B681A687B689B8819461046FFF7AA
:101850009BF97B6801229A6000BF0837BD4680BDB6
:1018600080B582B000AF78607B681A687B689B881F
:1018700019461046FFF77AF97B6800229A6000BF8C
:101880000837BD4680BD80B582B000AF78607B6808
:101890009B68002B03D07868FFF7E2FF02E07868CE
:1018A000FFF7CBFF00BF0837BD4680BD80B483B0D3
:1018B00000AF0346FB7197F90730002B0DDB97F95A
:1018C0000730DBB203F01F02064997F907305B09C6
:1018D000012000FA02F241F8232000BF0C37BD4678
:1018E00080BC704700E100E098B500AF134B1B8847
:1018F0009BB203F02003002B14BF01230023DBB2B3
:10190000002B19D00E4B1B681B78632B11D80B488A
:10191000FFF7A1FA03461C460A4B1968084B1B68DF
:101920001A78501CC0B2187013460B44E2B21A70F9
:1019300002E00248FFF78FFA00BF98BD003801406F
:101940003C0000203400002098B500AF134B1B88EA
:101950009BB203F02003002B14BF01230023DBB252
:10196000002B19D00E4B1B681B78632B11D80B482A
:10197000FFF771FA03461C460A4B1968084B1B68AF
:101980001A78501CC0B2187013460B44E2B21A7099
:1019900002E00248FFF75FFA00BF98BD0044004034
:1019A000400000203800002080B500AF4FF4005008
:1019B000FFF7AEFC00210248FFF770FC00BF80BDBE
:1019C0004400024080B500AF4FF00070FFF7A0FC6C
:1019D00000210248FFF762FC00BF80BD800002408A
:1019E00080B58AB002AFF860B9607A607B80FB682E
:1019F000002283F8D020BB68012B23D1FB686C3315
:101A0000464A1360FB68D033454A1360012144F213
:101A10000400FEF77BFF01210120FEF759FF25237B
:101A2000FB77404BBB614FF40073FB824FF4806344
:101A3000BB82FB683C4A1A60FB683C4A9A660E23EC
:101A4000FB7427E0BB68022B24D1FB686C33384A57
:101A50001360FB68D033374A136001210420FEF77E
:101A600055FF01214FF40030FEF76EFF01210220E7
:101A7000FEF72EFF2623FB772A4BBB610423FB8254
:101A80000823BB82FB682C4A1A60FB682B4A9A66C3
:101A90001123FB74F86800F076F8FB7F1946F868AC
:101AA00000F09AF8F98A03231822B869FFF748FE74
:101AB000B98A03230422B869FFF742FE398D7A8878
:101AC000BB8D00930B467968F86800F039F8FB6825
:101AD0001B6801211846FFF725F9FB681B680122E6
:101AE00080211846FFF783F9FB689B6E01220221D3
:101AF0001846FFF7EFFB97F913301846FFF7D6FEAD
:101B0000FB681B68012240F225511846FFF729F9AE
:101B1000FB6818462037BD4680BD00BF340000205A
:101B20003C00002000080140003801404400024011
:101B300038000020400000200044004080000240A7
:101B400080B588B000AFF860B96011461A460B4600
:101B5000FB801346BB80BB683B61FB88BB82BB88B4
:101B6000FB823B8D3B830023BB830C237B83FB6881
:101B70001B6807F1100211461846FFF713F800BF63
:101B80002037BD4680BD80B58EB000AF78607B68E1
:101B90001B680433FB607B6804333B6110237B616B
:101BA0006423BB610023FB6180233B6200237B62D3
:101BB0000023BB620023FB6200233B6300237B63A3
:101BC0007B689B6E07F10C0211461846FFF728FB55
:101BD00000BF3837BD4680BD80B584B000AF7860A7
:101BE0000B46FB70FB783B7300237B730023BB73B6
:101BF0000123FB7307F10C031846FEF777FA00BFC9
:101C00001037BD4680BD80B582B000AF78603960C6
:101C10003B681B78002B18D07B6818683B685A1CFF
:101C20003A601B789BB21946FFF704F97B681B6882
:101C300040211846FFF71EF90346002B0CBF012375
:101C40000023DBB2002BE3D0F0E700BF0837BD462E
:101C500080BD80B584B000AF786039600023FB6040
:101C60003A68FB6813441B78002B0DD03A68FB6878
:101C7000134419787A68FB68134404330A461A70CF
:101C8000FB680133FB60EBE77B689B6E0021184625
:101C9000FFF704FB7B689B6EFA685A607B689B6E5B
:101CA00001211846FFF7FAFA00BF1037BD4680BD84
:101CB00080B586B000AFF860B9607A6000237B61C0
:101CC0007A697B689A420DD2BA687B6913441978A5
:101CD000FA687B69134404330A461A707B6901333E
:101CE0007B61EDE7FB689B6E00211846FFF7D6FA93
:101CF000FB689B6E7A685A60FB689B6E01211846F0
:101D0000FFF7CCFA00BF1837BD4680BD80B483B062
:101D100000AF78607B68002283F8D02000BF0C37CA
:101D2000BD4680BC704780B483B000AF78607B68EC
:101D300093F8D03018460C37BD4680BC704780B44D
:101D400083B000AF78607B686C3318460C37BD46B3
:101D500080BC704780B588B000AF78600B46FB70E0
:101D60001346BB707B68BA781A71FB78012B0CD1D3
:101D70007B68264A1A60264BFB61C0237B830121C6
:101D80004FF40010FEF7E0FD0FE0FB78022B0CD1C2
:101D90007B68204A1A601E4BFB614FF440637B83D3
:101DA00001214FF48000FEF7CFFD01210820FEF74E
:101DB000ADFD01210120FEF7A9FD174BBB600023FB
:101DC000BB814BF6FF73FB8115233B824FF480638D
:101DD0007B824FF48043BB827B681B6807F108025B
:101DE00011461846FFF766F8798B03231C22F86921
:101DF000FFF7A6FC7B681B6801211846FFF71CF95A
:101E00007B6818462037BD4680BD00BF00540040A7
:101E1000000C014000580040A086010080B582B04F
:101E200000AF78600B46FB707B681B684FF4003195
:101E30001846FFF7B9F90346002B14BF012300230E
:101E4000DBB2002B00D0EFE77B681B68012118464E
:101E5000FFF711F97B681B681F491846FFF775F9F2
:101E60000346002B0CBF01230023DBB2002B00D064
:101E7000F0E77B6818687B681B795B00DBB2FA7857
:101E80001946FFF745F9FB78002B0ED17B681B68DC
:101E900012491846FFF759F90346002B0CBF0123DE
:101EA0000023DBB2002B12D0F0E7FB78012B0ED120
:101EB0007B681B680A491846FFF747F90346002B61
:101EC0000CBF01230023DBB2002B00D0F0E700BFE2
:101ED0000837BD4680BD00BF010003008200070037
:101EE0000200030080B582B000AF78600B46FB7043
:101EF0007B681B68FA7811461846FFF7FAF87B688A
:101F00001B6808491846FFF720F90346002B0CBF51
:101F100001230023DBB2002B00D0F0E700BF08371D
:101F2000BD4680BD8400070080B582B000AF7860F8
:101F30007B681B6801211846FFF7BCF8084909486F
:101F4000FFF703F90346002B0CBF01230023DBB28C
:101F5000002B00D0F2E700BF0837BD4680BD00BFB0
:101F6000840007000054004080B584B000AFF860E2
:101F7000B9607A60FB70FB68BA681A60FB687A68BF
:101F80005A60FB6800221A72FB6800225A72FB78C2
:101F9000012B06D9FB685B7A43F00803DAB2FB68D1
:101FA0005A72FB6800229A72FB689B7A43F0040322
:101FB000DAB2FB689A72FB680022DA72FB68DB7A9D
:101FC00043F00203DAB2FB68DA72FB685B68322125
:101FD0001846FFF7FDFAFB681B6800211846FFF75B
:101FE0001DFFFB681B6800211846FFF77BFFFB689D
:101FF0001B681846FFF798FFFB685B684FF47A711F
:102000001846FFF7E5FA3021F86800F044F8FB685D
:102010005B6805211846FFF7DBFA3021F86800F00D
:102020003AF8FB685B6805211846FFF7D1FA3021C2
:10203000F86800F030F8FB685B6896211846FFF7F7
:10204000DBFA2021F86800F026F8FB685B7A43F0A1
:102050002003DBB21946F86800F084F8FB689B7A2D
:1020600043F00803DBB21946F86800F07BF8F86823
:1020700000F098F8FB68DB7A43F00403DBB2194602
:10208000F86800F06FF8F86800F09EF8FB681846F2
:102090001037BD4680BD80B582B000AF78600B467A
:1020A000FB707B681B7A002B03D0FB7843F008039E
:1020B000FB707B681B6800211846FFF7AFFE7B684A
:1020C0001B68FA7811461846FFF70CFF7B681A6800
:1020D000FB7843F00403DBB219461046FFF702FF1A
:1020E0007B685B6801211846FFF786FA7B681A68EF
:1020F000FB7823F00403DBB219461046FFF7F2FE2B
:102100007B685B6832211846FFF776FA7B681B68AC
:102110001846FFF709FF00BF0837BD4680BD80B5F0
:1021200082B000AF78600B46FB701346BB70FB7843
:1021300023F00F03DAB2BB781343DBB21946786899
:10214000FFF7A9FFFB781B015AB297F9023013433E
:102150005BB2DBB219467868FFF79DFF00BF083716
:10216000BD4680BD80B582B000AF78600B46FB7085
:10217000FB78002219467868FFF7D1FF00BF0837C7
:10218000BD4680BD80B582B000AF78600B46FB7065
:10219000FB78012219467868FFF7C1FF00BF0837B6
:1021A000BD4680BD80B582B000AF786001217868FF
:1021B000FFF7D8FF7B685B6802211846FFF708FA33
:1021C00000BF0837BD4680BD80B582B000AF7860E3
:1021D00002217868FFF7C6FF7B685B68022118461A
:1021E000FFF7F6F900BF0837BD4680BD80B582B065
:1021F00000AF78600B46FB701346BB70FB78002B7A
:1022000001D0402200E00022BB781344DBB25BB275
:1022100063F07F035BB2DBB219467868FFF7A2FF79
:1022200000BF0837BD4680BD80B582B000AF786082
:102230000B46FB70FB78002B07D07B689B7A43F042
:102240000403DAB27B689A7206E07B689B7A23F01B
:102250000403DAB27B689A727B689B7A43F00803C6
:10226000DBB219467868FFF77DFF00BF0837BD462F
:1022700080BD80B582B000AF78600B46FB70FB7804
:10228000002B07D07B689B7A43F00203DAB27B68AD
:102290009A7206E07B689B7A23F00203DAB27B68CD
:1022A0009A727B689B7A43F00803DBB21946786820
:1022B000FFF758FF00BF0837BD4680BD80B582B02C
:1022C00000AF78600B46FB70FB78002B07D07B6873
:1022D0009B7A43F00103DAB27B689A7206E07B686E
:1022E0009B7A23F00103DAB27B689A727B689B7A4F
:1022F00043F00803DBB219467868FFF733FF00BFED
:102300000837BD4680BD80B584B000AF78600B460D
:10231000FB701346BB700023FB73BB78002B03D00C
:10232000FB7B43F00403FB73FB78002B03D0FB7BA8
:1023300043F00803FB73FB7B43F01003DBB2194649
:102340007868FFF70FFF00BF1037BD4680BD80B52E
:1023500082B000AF78600B46FB70FB78002B07D093
:102360007B68DB7A43F00203DAB27B68DA7206E05C
:102370007B68DB7A23F00203DAB27B68DA727B686F
:10238000DB7A43F00403DBB219467868FFF7EAFE14
:1023900000BF0837BD4680BD80B582B000AF786011
:1023A0000B46FB70FB78002B07D07B68DB7A43F091
:1023B0000103DAB27B68DA7206E07B68DB7A23F02D
:1023C0000103DAB27B68DA727B68DB7A43F00403DC
:1023D000DBB219467868FFF7C5FE00BF0837BD4677
:1023E00080BD80B586B000AFF8600B467A60FB72A6
:1023F000FB7A03F00703FB72FB7ADB005BB243F06E
:1024000040035BB2DBB21946F868FFF7ABFE00236E
:102410007B617B69072B0BDC7B697A6813441B7833
:102420001946F868FFF7AEFE7B6901337B61F0E780
:1024300000BF1837BD4680BD80B582B000AF786060
:102440000B46FB70FB78002B03D07B6801221A72CD
:1024500002E07B6800221A727B681B680021184624
:10246000FFF7DCFC7B681A687B681B7A002B01D0C5
:10247000082300E0002319461046FFF733FD7B6870
:102480001B681846FFF750FD00BF0837BD4680BDEA
:1024900080B582B000AF786039603B681B78002B54
:1024A00008D03B685A1C3A601B7819467868FFF7D9
:1024B00069FEF2E700BF0837BD4680BD80B500AFBA
:1024C00004214FF08040FEF779FF0346002B14BF34
:1024D00001230023DBB2002B3DD004214FF08040CC
:1024E000FEF795FF1D4B1A881D4B1A804FF0804058
:1024F000FEF728FF03461A46184B1A80174B1A8816
:10250000174B1B889A4207D3144B1B881A46144B4F
:102510001B88D31A1A4608E0114B1B88C3F57F436A
:10252000FF330E4A128813441A460E4B1A604FF4BA
:1025300080614FF08040FEF711FF0346002B14BF6F
:1025400001230023DBB2002B05D04FF480614FF054
:102550008040FEF723FF00BF80BD00BF4600002083
:10256000440000204800002080B582B000AF7860B1
:10257000396039687868FFF76CFB7B681846083764
:10258000BD4680BD80B582B000AF78600B46FB7061
:10259000FB7819467868FFF7F5FD00BF0837BD46A0
:1025A00080BD80B483B000AF786039607B681B78F1
:1025B000002B12D03B681B78002B0ED07B681A785A
:1025C0003B681B789A4201D0002307E07B68013307
:1025D0007B603B6801333B60E8E7012318460C371A
:1025E000BD4680BC7047000090B5C3B002AFFFF796
:1025F0005FF807F1FC031846FEF7B0FF07F128006B
:10260000002301930023009300234FF4E1320121C2
:10261000FFF7E6F907F11C034FF40052C5491846CD
:10262000FFF7F0F807F11403272201211846FFF7FE
:1026300091FB07F1FC0207F1140107F108000223E6
:10264000FFF792FC07F12803BB491846FFF78CFF00
:1026500007F1080301211846FFF7EEFE07F1080312
:10266000B6491846FFF714FF07F1080300220121BD
:102670001846FFF7BBFD07F10803B1491846FFF7FD
:1026800007FF07F1FC034FF47A711846FEF7A0FF2D
:1026900007F12803AB491846FFF7B5FA07F12803FD
:1026A0001846FFF740FB0346002B14BF012300230D
:1026B000DBB2002B00F073823B461A460023136006
:1026C00053603B4604221A703B460E225A703B462A
:1026D0000E229A703B460E22DA703B461F221A7178
:1026E0003B4604229A7107F1280397491846FFF7E1
:1026F0008AFA07F128031846FFF721FB044607F181
:1027000028031846FFF70FFB024607F1280321466E
:102710001846FFF7CDFA07F128031846FFF70FFB1D
:10272000034619468948FFF73CFF0346002B14BFB8
:1027300001230023DBB2002B05D007F11C03184650
:10274000FFF77BF825E207F128031846FFF7F7FAB1
:10275000034619467E48FFF724FF0346002B14BFAB
:1027600001230023DBB2002B05D007F11C03184620
:10277000FFF776F80DE207F128031846FFF7DFFAB6
:10278000034619467348FFF70CFF0346002B14BF9E
:1027900001230023DBB2002B05D007F11C031846F0
:1027A000FFF771F8F5E107F128031846FFF7C7FABC
:1027B000034619466848FFF7F4FE0346002B14BF92
:1027C00001230023DBB2002B05D007F108031846D4
:1027D000FFF7E8FCDDE107F128031846FFF7AFFA41
:1027E000034619465D48FFF7DCFE0346002B14BF85
:1027F00001230023DBB2002B05D007F108031846A4
:10280000FFF7E2FCC5E107F128031846FFF797FA46
:10281000034619465248FFF7C4FE0346002B14BF77
:1028200001230023DBB2002B10D007F12803184648
:10283000FFF785FA034610331B78303BDAB207F115
:10284000080311461846FFF7F7FDA2E107F1280338
:102850001846FFF774FA034619464248FFF7A1FEEF
:102860000346002B14BF01230023DBB2002B1AD038
:1028700007F128031846FFF762FA03460E331B7868
:10288000303BDCB207F128031846FFF758FA03463D
:102890000F331B78303BDAB207F1080321461846A4
:1028A000FFF7A4FC75E107F128031846FFF747FA84
:1028B000034619462C48FFF774FE0346002B14BF4D
:1028C00001230023DBB2002B10D007F128031846A8
:1028D000FFF735FA03460E331B78303BDAB207F1C7
:1028E000080311461846FFF79FFC52E107F1280341
:1028F0001846FFF724FA034619461C48FFF751FE15
:102900000346002B14BF01230023DBB2002B2FD082
:1029100007F128031846FFF712FA03460D331B7818
:10292000303BDAB207F1080311461846FFF7A1FC65
:102930002FE100BF001001401C2C0008382C0008BB
:102940004C2C0008582C0008742C0008802C00081F
:10295000882C0008902C00089C2C0008A82C00084B
:10296000B42C0008C82C0008D82C0008E82C00085B
:1029700007F128031846FFF7E2F9034619468F4886
:10298000FFF70FFE0346002B14BF01230023DBB229
:10299000002B10D007F128031846FFF7D0F90346A3
:1029A00012331B78303BDAB207F1080311461846A0
:1029B000FFF784FCEDE007F128031846FFF7BFF9A5
:1029C000034619467E48FFF7ECFD0346002B14BF73
:1029D00001230023DBB2002B1AD007F1280318468D
:1029E000FFF7ADF903460A331B78303BDCB207F141
:1029F00028031846FFF7A3F903460B331B78303B37
:102A0000DAB207F1080321461846FFF77CFCC0E064
:102A100007F128031846FFF792F90346194669485B
:102A2000FFF7BFFD0346002B14BF01230023DBB2D9
:102A3000002B10D007F128031846FFF780F9034652
:102A40000F331B78303BDAB207F108031146184602
:102A5000FFF77DFC9DE007F128031846FFF76FF9AB
:102A6000034619465848FFF79CFD0346002B14BF48
:102A700001230023DBB2002B10D007F128031846F6
:102A8000FFF75DF9034611331B78303BDAB207F1EB
:102A9000080311461846FFF77FFC7AE007F1280388
:102AA0001846FFF74CF9034619464848FFF779FDE9
:102AB0000346002B14BF01230023DBB2002B0ED0F2
:102AC00007F128031846FFF73AF9034608331A7846
:102AD00007F1080311461846FFF754FD59E007F1C6
:102AE00028031846FFF72BF9034619463848FFF725
:102AF00058FD0346002B14BF01230023DBB2002B3B
:102B00000ED007F128031846FFF719F9034603F121
:102B1000080207F1080311461846FFF7B9FC38E030
:102B200007F128031846FFF70AF903461946294812
:102B3000FFF737FD0346002B14BF01230023DBB250
:102B4000002B07D03A4607F1080301211846FFF78A
:102B500048FC1EE007F128031846FFF7F0F803468B
:102B600019461D48FFF71DFD0346002B14BF012326
:102B70000023DBB2002B06D007F108030121184621
:102B8000FFF700FD05E007F1280314491846FFF799
:102B90003AF807F128031846FFF7B8F805E007F1FF
:102BA00028030F491846FFF72EF807F1FC034FF4EE
:102BB0007A711846FEF70CFD63E500BFF82C00089B
:102BC0000C2D0008182D0008282D00083C2D0008A9
:102BD000482D0008542D0008642D0008742D0008AD
:102BE000842D00088C3D25000D0A5761697420660C
:102BF0006F722072656365697665206F66207469FF
:102C00006D656F7574732E2E2E0000000D0A5265CF
:102C10006365697665643A000D0A2D0048656C6C41
:102C20006F2E0D0A5553415254312069732072653D
:102C30006164792E0D0A000048656C6C6F204B6151
:102C4000746572696E61203D29000000476F6F64F2
:102C5000206E6967687421000D0A576169742066E7
:102C60006F72207265636569766520636D642E2ED0
:102C70002E0000002052656365697665643A200085
:102C80006C65642E6F6E00006C65642E6F66660066
:102C90006C65642E696E7665727400006C63642ED8
:102CA000636C6561720000006C63642E686F6D6513
:102CB000000000006C63642E6261636B6C6967687E
:102CC00074536574000000006C63642E6375727346
:102CD0006F72476F546F00006C63642E6469737089
:102CE0006C617953657400006C63642E6375727354
:102CF0006F725365740000006C63642E63757273A9
:102D00006F72426C696E6B53657400006C63642E65
:102D10007363726F6C6C00006C63642E74657874FE
:102D2000466C6F77536574006C63642E6175746FC5
:102D30005363726F6C6C5365740000006C63642E97
:102D400070757463000000006C63642E707574739A
:102D5000000000006C63642E62656C6C4C6F6164F3
:102D6000000000006C63642E62656C6C5072696ECA
:102D70007400000020756E6B6E20636D642121214C
:0C2D800000000000206E6F20636D6400F6
:102D8C0000A24A040000000000000000010203043D
:102D9C0006070809000000000102030401020304F5
:0C2DAC000607080902040608A11600082A
:0400000508000000EF
:00000001FF
