:020000040800F2
:1000000000500020A9010008EF010008F1010008DC
:10001000F3010008F5010008F701000800000000E6
:10002000000000000000000000000000F9010008CE
:10003000FB01000800000000FD010008D9140008C1
:100040000302000805020008070200080902000870
:100050000B0200080D0200080F0200081102000840
:100060001302000815020008170200081902000810
:100070001B0200081D0200083919000821020008AF
:100080002302000855190008270200082902000869
:100090002B0200082D0200082F0200083102000880
:1000A0003302000835020008370200083902000850
:1000B0004D2100083D0200083F02000841020008EF
:1000C00043020008450200084702000849020008F0
:1000D0004B02000889180008E118000851020008C6
:1000E00053020008550200085702000880B487B088
:1000F00000AF786000237B6100233B610F23FB602E
:100100007B68DB78002B38D0254BDB68DB431B0A90
:1001100003F007037B617B69C3F104033B61FA6869
:100120007B6922FA03F3FB607B685B781A463B69C4
:1001300002FA03F37B617B689B781A46FB681340E5
:100140007A6913437B617B691B017B61154A7B687C
:100150001B787969C9B213440A4683F800237B6887
:100160001B7803F01F020F497B681B785B1101208D
:1001700000FA02F241F823200DE07B681B7803F0BF
:100180001F0208497B681B785B11012000FA02F20C
:10019000203341F8232000BF1C37BD4680BC704788
:1001A00000ED00E000E100E00649074A074B9A42F3
:1001B000BEBF51F8040B42F8040BF8E7044880472F
:1001C0000448004744230008000000202C000020C1
:1001D00061020008D90100081F49204A002301E0FC
:1001E00041F8043B9142FBD302F014F8FEE7FEE72E
:1001F000FEE7FEE7FEE7FEE7FEE7FEE7FEE7FEE7D7
:10020000FEE7FEE7FEE7FEE7FEE7FEE7FEE7FEE7C6
:10021000FEE7FEE7FEE7FEE7FEE7FEE7FEE7FEE7B6
:10022000FEE7FEE7FEE7FEE7FEE7FEE7FEE7FEE7A6
:10023000FEE7FEE7FEE7FEE7FEE7FEE7FEE7FEE796
:10024000FEE7FEE7FEE7FEE7FEE7FEE7FEE7FEE786
:10025000FEE7FEE7FEE7FEE72C0000204C00002052
:1002600080B500AF154B1B68144A43F001031360BF
:10027000124B5A681149124B13404B600F4B1B68CD
:100280000E4A23F0847323F4803313600B4B1B68F6
:100290000A4A23F480231360084B5B68074A23F45F
:1002A000FE035360054B4FF41F029A6000F07EF886
:1002B000044B4FF000629A6000BF80BD0010024006
:1002C0000000FFF800ED00E080B485B000AF00232F
:1002D000FB600023BB6000237B602F4B5B6803F057
:1002E0000C03FB60FB68042B07D0082B09D0002B04
:1002F00038D12A4B2A4A1A6038E0284B284A1A601B
:1003000034E0254B5B6803F47013BB60224B5B68E1
:1003100003F480337B60BB689B0C0233BB607B685B
:10032000002B06D1BB681F4A02FB03F31B4A136074
:100330001CE0194B5B6803F40033002B14BF01234E
:100340000023DBB2002B06D0BB68164A02FB03F386
:10035000124A13600AE0BB68114A02FB03F30F4A1A
:10036000136003E00D4B0E4A1A6000BF0A4B5B6836
:100370001B0903F00F030C4AD35CDBB2FB60074B95
:100380001A68FB6822FA03F3044A136000BF1437AB
:10039000BD4680BC704700BF001002400000002036
:1003A00000127A0000093D000400002080B500AF73
:1003B00000F002F800BF80BD80B483B000AF00231E
:1003C0007B6000233B60474B1B68464A43F4803305
:1003D0001360444B1B6803F400333B607B680133BC
:1003E0007B603B68002B05D17B68B3F5A06F01D023
:1003F000012300E00023002B00D0EAE7394B1B6803
:1004000003F40033002B14BF01230023DBB2002BC5
:1004100002D001233B6001E000233B603B68012BDD
:100420000CBF01230023DBB2002B55D02E4B1B68E1
:100430002D4A43F0100313602B4B1B682A4A23F00C
:1004400003031360284B1B68274A43F00203136021
:10045000244B244A5B685360224B224A5B685360FA
:10046000204B5B681F4A43F4806353601D4B5B68FD
:100470001C4A23F47C1353601A4B5B68194A43F4FB
:10048000E8135360174B1B68164A43F080731360E0
:10049000144B1B6803F00073002B0CBF01230023D7
:1004A000DBB2002B00D0F3E70E4B5B680D4A23F064
:1004B000030353600B4B5B680A4A43F0020353602B
:1004C000084B5B6803F00C03082B14BF01230023C7
:1004D000DBB2002B00D0F3E700BF0C37BD4680BC79
:1004E000704700BF001002400020024080B400AFFF
:1004F000134B1B68124A43F001031360104B5A68F8
:100500000F49104B13404B600D4B1B680C4A23F0F6
:10051000847323F480331360094B1B68084A23F467
:1005200080231360064B5B68054A23F4FE03536087
:10053000034B4FF41F029A6000BFBD4680BC70475A
:10054000001002400000FFF880B483B000AF786074
:10055000134B1B68124A23F480331360104B1B6843
:100560000F4A23F4802313607B68B3F5803F03D0E8
:10057000B3F5802F07D00DE0094B1B68084A43F400
:100580008033136006E0064B1B68054A43F4A02342
:10059000136000BF00BF0C37BD4680BC704700BF72
:1005A0000010024080B584B000AF0023BB60002380
:1005B000FB710023FB73312000F0E4F90346FB7369
:1005C000BB680133BB60BB68B3F5A06F04D0FB7B95
:1005D000002B01D1012300E00023002B00D0EAE72B
:1005E000312000F0CFF90346002B14BF0123002374
:1005F000DBB2002B02D00123FB7101E00023FB7171
:10060000FB7918461037BD4680BD000080B485B028
:1006100000AF786039600023FB600A4B5B68FB60C9
:10062000FB6823F47C13FB607A683B681343FA6829
:100630001343FB60034AFB68536000BF1437BD4699
:1006400080BC70470010024080B483B000AF034606
:10065000FB71044AFB79136000BF0C37BD4680BCB8
:10066000704700BF6000424280B485B000AF786040
:100670000023FB60094B5B68FB60FB6823F003030E
:10068000FB60FA687B681343FB60044AFB685360B5
:1006900000BF1437BD4680BC704700BF0010024049
:1006A00080B400AF044B5B68DBB203F00C03DBB239
:1006B0001846BD4680BC70470010024080B485B02B
:1006C00000AF78600023FB60094B5B68FB60FB6850
:1006D00023F0F003FB60FA687B681343FB60044A75
:1006E000FB68536000BF1437BD4680BC704700BF35
:1006F0000010024080B485B000AF78600023FB603A
:10070000094B5B68FB60FB6823F4E063FB60FA68FD
:100710007B681343FB60044AFB68536000BF1437D7
:10072000BD4680BC704700BF0010024080B485B059
:1007300000AF78600023FB60094B5B68FB60FB68DF
:1007400023F46053FB607B68DB00FA681343FB60B3
:10075000034AFB68536000BF1437BD4680BC704736
:100760000010024080B487B000AF786000237B6146
:1007700000233B610023FB600023BB604F4B5B68A1
:1007800003F00C037B617B69042B07D0082B09D095
:10079000002B38D17B684A4A1A6038E07B68484AA7
:1007A0001A6034E0454B5B6803F470133B61434BC4
:1007B0005B6803F48033FB603B699B0C02333B6155
:1007C000FB68002B06D13B693E4A02FB03F27B68C3
:1007D0001A601CE0394B5B6803F40033002B14BF34
:1007E00001230023DBB2002B06D03B69354A02FB14
:1007F00003F27B681A600AE03B69314A02FB03F2AC
:100800007B681A6003E07B682D4A1A6000BF2B4B9F
:100810005B6803F0F0037B617B691B097B612A4AFB
:100820007B6913441B78DBB2BB607B681A68BB68CA
:10083000DA407B685A60214B5B6803F4E0637B61BC
:100840007B691B0A7B61204A7B6913441B78DBB2FE
:10085000BB607B685A68BB68DA407B689A60174B5C
:100860005B6803F460537B617B69DB0A7B61164A3A
:100870007B6913441B78DBB2BB607B685A68BB683A
:10088000DA407B68DA600D4B5B6803F440437B61C0
:100890007B699B0B7B610D4A7B6913441B78DBB240
:1008A000BB607B68DA68BB68B2FBF3F27B681A61F5
:1008B00000BF1C37BD4680BC704700BF001002401F
:1008C00000127A0000093D001400002024000020DE
:1008D00080B483B000AF78600B46FB70FB78002BD0
:1008E00006D0094B5A6908497B6813434B6106E0FF
:1008F000054B5A697B68DB43034913404B6100BFDA
:100900000C37BD4680BC70470010024080B483B0F5
:1009100000AF78600B46FB70FB78002B06D0094BCC
:100920009A6908497B6813438B6106E0054B9A6915
:100930007B68DB43034913408B6100BF0C37BD4626
:1009400080BC70470010024080B483B000AF786074
:100950000B46FB70FB78002B06D0094BDA6908497F
:100960007B681343CB6106E0054BDA697B68DB43A8
:1009700003491340CB6100BF0C37BD4680BC7047B4
:100980000010024080B487B000AF0346FB71002323
:10099000FB6000237B610023FB74FB795B11FB6030
:1009A000FB68012B03D1124B1B687B6109E0FB68DC
:1009B000022B03D10E4B1B6A7B6102E00C4B5B6A7E
:1009C0007B61FB7903F01F03FB607A69FB6822FA05
:1009D00003F303F00103002B02D00123FB7401E0B9
:1009E0000023FB74FB7C18461C37BD4680BC704757
:1009F0000010024080B489B000AF786039600023F5
:100A0000FB6100233B610023BB610023FB600023EB
:100A10007B610023BB603B68DB7803F00F03FB6165
:100A20003B68DB7803F01003002B05D03B689B7814
:100A30001A46FB691343FB613B681B88DBB2002B42
:100A400044D07B681B687B610023BB61BB69072BBB
:100A500039D80122BB6902FA03F3FB603B681B88AB
:100A60001A46FB6813403B613A69FB689A4226D1FB
:100A7000BB699B00FB600F22FB6802FA03F3BB60BB
:100A8000BB68DB437A6913407B61FA69FB6802FA51
:100A900003F37A6913437B613B68DB78282B05D12C
:100AA0000122BB699A407B685A6108E03B68DB78A9
:100AB000482B04D10122BB699A407B681A61BB694B
:100AC0000133BB61C2E77B687A691A603B681B88A7
:100AD000FF2B46D97B685B687B610023BB61BB69E8
:100AE000072B3BD8BB690833012202FA03F3FB60F2
:100AF0003B681B881A46FB6813403B613A69FB68F8
:100B00009A4227D1BB699B00FB600F22FB6802FA67
:100B100003F3BB60BB68DB437A6913407B61FA690E
:100B2000FB6802FA03F37A6913437B613B68DB7865
:100B3000282B05D1BB69083301229A407B685A6192
:100B40003B68DB78482B05D1BB69083301229A400A
:100B50007B681A61BB690133BB61C0E77B687A6956
:100B60005A6000BF2437BD4680BC704780B483B054
:100B700000AF78600B467B807A887B681A6100BF83
:100B80000C37BD4680BC704780B483B000AF78603E
:100B90000B467B807A887B685A6100BF0C37BD4664
:100BA00080BC704780B58CB000AF7860396000239E
:100BB000FB620023BB6200237B6200233B620023B5
:100BC000FB617B68FB617B681B8A9BB2FB62FA6AF4
:100BD0004CF6FF731340FB623B68DB881A46FB6AE6
:100BE0001343FB62FB6A9AB27B681A827B689B891B
:100BF0009BB2FB62FA6A4EF6F3131340FB623B684A
:100C00009A883B681B8913439AB23B685B891343FC
:100C10009BB21A46FB6A1343FB62FB6A9AB27B687B
:100C20009A817B689B8A9BB2FB62FA6A4FF6FF430C
:100C30001340FB623B689B891A46FB6A1343FB62C5
:100C4000FB6A9AB27B689A8207F108031846FFF79D
:100C500089FDFB69314A934202D17B69BB6201E0A5
:100C60003B69BB627B689B899BB21BB29BB2DB0B6F
:100C7000DBB2002B0CD0BA6A13469B0013449A00D7
:100C80001A443B681B685B00B2FBF3F37B620BE02A
:100C9000BA6A13469B0013449A001A443B681B68C7
:100CA0009B00B2FBF3F37B627B6A1D4AA2FB03232A
:100CB0005B091B01FB62FB6A1B09642202FB03F355
:100CC0007A6AD31A3B627B689B899BB21BB29BB248
:100CD000DB0BDBB2002B0CD03B6ADB003233104A5B
:100CE000A2FB03235B0903F00703FA6A1343FB62C9
:100CF0000BE03B6A1B013233094AA2FB03235B0969
:100D000003F00F03FA6A1343FB62FB6A9AB27B6833
:100D10001A8100BF3037BD4680BD00BF003801409A
:100D20001F85EB5180B483B000AF78600B46FB7039
:100D3000FB78002B08D07B689B899BB243F400535F
:100D40009AB27B689A8107E07B689B899BB223F407
:100D500000539AB27B689A8100BF0C37BD4680BCB5
:100D6000704780B487B000AF78600B467B80134635
:100D70007B7000233B610023FB600023BB600023EA
:100D80007B617B687B617B88DBB25B113B617B882D
:100D900003F01F03FB600122FB6802FA03F3BB6050
:100DA0003B69012B03D17B690C337B6109E03B6913
:100DB000022B03D17B6910337B6102E07B69143322
:100DC0007B617B78002B06D07B6919687B69BA68E8
:100DD0000A431A6006E07B691968BB68DA437B69DD
:100DE0000A401A6000BF1C37BD4680BC704780B403
:100DF00083B000AF78600B467B8013467B707B78B6
:100E0000002B08D07B689B8A9AB27B8813439AB2E6
:100E10007B689A8209E07B689B8A9AB27B88DB4375
:100E20009BB213409AB27B689A8200BF0C37BD46D2
:100E300080BC704780B483B000AF78607B689B88CB
:100E40009BB2C3F308039BB218460C37BD4680BC67
:100E50007047000080B58AB000AF78603960002329
:100E6000FB8400237B840423BB84574BFB617B689A
:100E70009B88FB84FB8C23F03F03FB8407F1080372
:100E80001846FFF76FFC3B69FB61FB694F4AA2FB09
:100E900003239B0C7B84FA8C7B8C1343FB847B6841
:100EA000FA8C9A807B681B889BB223F001039AB26C
:100EB0007B681A800023FB843B681B68444A93428A
:100EC00015D83B681B685B00FA69B2FBF3F3BB847F
:100ED000BB8C032B01D80423BB84FA8CBB8C13433B
:100EE000FB847B8C01339AB27B681A8440E03B68B8
:100EF000DB884BF6FF72934209D13B681A681346B0
:100F00005B001344FA69B2FBF3F3BB840EE03B6869
:100F10001A6813469B0013449A001344FA69B2FB03
:100F2000F3F3BB84BB8C43F48043BB84BB8CC3F31F
:100F30000B03002B03D1BB8C43F00103BB84BA8CA1
:100F4000FB8C13439BB26FEA43436FEA5343FB842A
:100F50007B8C4FF4967202FB03F31E4A82FB031252
:100F60009211DB17D31A9BB201339AB27B681A84B1
:100F70007B68FA8C9A837B681B889BB243F00103E1
:100F80009AB27B681A807B681B88FB84FB8C23F4F5
:100F9000816323F00203FB843B689A883B685B898A
:100FA00013439AB2FB8C1343FB847B68FA8C1A8040
:100FB0003B689A893B681B8913439AB27B681A8104
:100FC00000BF2837BD4680BD00127A0083DE1B4378
:100FD000A0860100D34D621080B483B000AF78606A
:100FE0000B46FB70FB78002B08D07B681B889BB2FC
:100FF00043F001039AB27B681A8007E07B681B8884
:101000009BB223F001039AB27B681A8000BF0C37B1
:10101000BD4680BC704780B483B000AF78600B469B
:10102000FB70FB78002B08D07B681B889BB243F4D5
:1010300080739AB27B681A8007E07B681B889BB23A
:1010400023F480739AB27B681A8000BF0C37BD46C8
:1010500080BC704780B483B000AF78600B46FB70F3
:10106000FB78002B08D07B681B889BB243F400738D
:101070009AB27B681A8007E07B681B889BB223F4D6
:1010800000739AB27B681A8000BF0C37BD4680BCE3
:10109000704780B483B000AF78600B46FB70FB787C
:1010A0009AB27B681A8200BF0C37BD4680BC70477D
:1010B00080B483B000AF78600B46FB701346BB7002
:1010C000BB78002B04D0FB7843F00103FB7003E0F6
:1010D000FB7823F00103FB70FB789AB27B681A82DD
:1010E00000BF0C37BD4680BC704780B487B000AFEE
:1010F0007860396000233B610023FB600023BB6004
:101100000023FB757B689B8A9BB2FB607B681B8B13
:101110009BB2BB60BB681B04BB60FA68BB6813432F
:1011200023F07F433B613A693B6813403A689A4237
:1011300002D10123FB7501E00023FB75FB7D1846FE
:101140001C37BD4680BC704780B487B000AF786064
:1011500039600023FB7500233B610023FB607B6843
:10116000FB603B681B0F3B613B6823F07F433B60A8
:101170003B69002B14BF01230023DBB2002B03D0FB
:10118000FB681433FB6005E03B681B0C3B60FB68AD
:101190001833FB60FB681A683B681340002B14BFD0
:1011A00001230023DBB2002B02D00123FB7501E0F9
:1011B0000023FB75FB7D18461C37BD4680BC70477D
:1011C00080B485B000AF786039600023FB607B6835
:1011D0001B68FB60FB6823F4FF4323F07003FB6094
:1011E0003B689A683B681B6A1A433B681B691A4351
:1011F0003B685B691A433B689B691A433B68DB6940
:101200001A433B685B6A1A433B689B6A1343FA685C
:101210001343FB607B68FA681A603B68DA687B6896
:101220005A603B681A687B689A603B685A687B68BA
:10123000DA6000BF1437BD4680BC704780B483B00D
:1012400000AF78600B46FB70FB78002B06D07B6804
:101250001B6843F001027B681A6006E07B681A682D
:101260004FF6FE7313407A68136000BF0C37BD461B
:1012700080BC704780B485B000AFF860B960134699
:10128000FB71FB79002B06D0FB681A68BB681A4318
:10129000FB681A6006E0FB681A68BB68DB431A400B
:1012A000FB681A6000BF1437BD4680BC7047000061
:1012B00080B483B000AF78607B6803F08053002B6C
:1012C00003D0064A7B68536002E0054A7B6853609E
:1012D00000BF0C37BD4680BC704700BF0004024011
:1012E0000000024080B483B000AF78607B681B8F41
:1012F0009BB218460C37BD4680BC704780B485B0A1
:1013000000AF78600B467B800023FB737B681B8AF1
:101310009AB27B8813409BB2002B14BF0123002399
:10132000DBB2002B02D00123FB7301E00023FB732F
:10133000FB7B18461437BD4680BC704780B483B031
:1013400000AF78600B467B807B88DB439AB27B687A
:101350001A8200BF0C37BD4680BC704780B485B090
:1013600000AF78600B467B800023FB730023BB81BA
:1013700000237B817B681B8A9AB27B881340BB81E8
:101380007B689B899AB27B8813407B81BB89002B49
:1013900005D07B89002B02D00123FB7301E00023E1
:1013A000FB73FB7B18461437BD4680BC704780B486
:1013B00083B000AF78600B467B807B88DB439AB2BA
:1013C0007B681A8200BF0C37BD4680BC70470000A6
:1013D00080B485B000AF78600023FB60094B1B68C8
:1013E000FB60FB6803F03803FB60FA687B6813431B
:1013F000FB60044AFB68136000BF1437BD4680BC25
:10140000704700BF0020024080B483B000AF786016
:10141000084B1B68074A23F010031360054B1A683A
:1014200004497B6813430B6000BF0C37BD4680BC8A
:10143000704700BF0020024080B483B000AF034675
:101440003960FB7197F90730002B0CDB3B68DBB28E
:101450000E4A97F9071008461B01D9B213180A461D
:1014600083F800230CE03B68DAB2094997F90730AA
:10147000DBB203F00F03043B1201D2B20B441A7625
:1014800000BF0C37BD4680BC704700BF00E100E0E4
:1014900000ED00E080B582B000AF78607B68013B72
:1014A000B3F1807F01D301230FE00A4A7B68013B3F
:1014B00053600F214FF0FF30FFF7BEFF054B0022B6
:1014C0009A60044B07221A60002318460837BD466D
:1014D00080BD00BF10E000E080B400AF064B1B6889
:1014E000002B04D0044B1B68013B034A136000BF70
:1014F000BD4680BC704700BF2C00002080B582B084
:1015000000AF7860FEF7E0FE154B1B68154AA2FBA2
:1015100003239B091846FFF7BDFF134BDB6803F05D
:101520008073002B0CBF01230023DBB2002B0ED0F5
:101530000D4BDB680C4A43F08073D3600B4B0022E9
:101540005A600A4B1B68094A43F0010313607B6829
:1015500000221A607B6818460837BD4680BD00BF70
:1015600000000020D34D6210F0ED00E0001000E01C
:1015700080B483B000AF78603960064A3B6813607E
:10158000044B1B68002B00D0FAE700BF0C37BD46A8
:1015900080BC70472C00002080B584B000AF78601C
:1015A0003960786800F01EF80346DB43FB600C4BA3
:1015B0001A683B6802FB03F3BB60786800F012F81E
:1015C0000246FB681344BA689A428CBF0123002389
:1015D000DBB2002B00D0F0E700BF1037BD4680BD66
:1015E0003000002080B483B000AF7860034B5B68AC
:1015F00018460C37BD4680BC704700BF001000E0A5
:1016000080B483B000AF786039607B68012B0CD167
:101610003B684FF6FF72934207D1064B1B68064AA0
:10162000A2FB03239B0C054A136000BF0C37BD4689
:1016300080BC70470000002083DE1B433000002088
:1016400080B500AF4FF6FF710120FFF7D9FF80BDD5
:1016500080B582B000AFFEF749FF4FF48030FEF74F
:1016600073FFFEF79FFF0346FB71FB79012B32D11D
:101670001020FFF7C9FE0220FFF7AAFE0020FFF7A7
:101680001DF80020FFF752F84FF48060FFF732F8A2
:101690004FF4E0114FF48030FEF7B8FF0120FEF761
:1016A000D3FF3920FFF76EF90346002B0CBF01234F
:1016B0000023DBB2002B00D0F3E70220FEF7D4FFBB
:1016C000FEF7EEFF0346082B14BF01230023DBB215
:1016D000002B01D0F4E7FEE700BF0837BD4680BD10
:1016E00080B584B000AF7860084611461A460346BC
:1016F0007B800B467B7013463B707B68224A93428B
:1017000002D10423FB6029E07B68204A934202D186
:101710000823FB6022E07B681D4A934202D110231C
:10172000FB601BE07B681B4A934202D12023FB60D5
:1017300014E07B68184A934202D14023FB600DE01D
:101740007B68164A934202D18023FB6006E07B68E7
:10175000134A934213D14FF48073FB600121F86860
:10176000FFF7D4F87B883B817B78FB723B78BB72B8
:1017700007F1080319467868FFF73CF900E000BF5D
:101780001037BD4680BD00BF00080140000C01407D
:10179000001001400014014000180140001C0140ED
:1017A0000020014080B584B000AFF860B9601346F6
:1017B000FB80FB68BA681A60FB68FA889A80F9882F
:1017C00003231022B868FFF78BFFFB6801229A60A1
:1017D000FB6818461037BD4680BD80B582B000AFAB
:1017E00078607B681A687B689B8819461046FFF70B
:1017F000CBF97B6801229A6000BF0837BD4680BDE7
:1018000080B582B000AF78607B681A687B689B887F
:1018100019461046FFF7AAF97B6800229A6000BFBC
:101820000837BD4680BD80B582B000AF78607B6868
:101830009B68002B03D07868FFF7E2FF02E078682E
:10184000FFF7CBFF00BF0837BD4680BD80B483B033
:1018500000AF0346FB7197F90730002B0DDB97F9BA
:101860000730DBB203F01F02064997F907305B0926
:10187000012000FA02F241F8232000BF0C37BD46D8
:1018800080BC704700E100E098B500AF114B1B88A9
:101890009BB203F02003002B14BF01230023DBB213
:1018A000002B15D00C4B1B681B78632B10D80948F4
:1018B000FFF7C0FA03461C46084B1968064B1B6825
:1018C0001A78501CC0B2187013460B44E2B21A705A
:1018D00000BF98BD003801403C00002034000020CB
:1018E00098B500AF114B1B889BB203F02003002B6F
:1018F00014BF01230023DBB2002B15D00C4B1B6857
:101900001B78632B10D80948FFF794FA03461C464E
:10191000084B1968064B1B681A78501CC0B2187027
:1019200013460B44E2B21A7000BF98BD0044004059
:10193000400000203800002080B500AF4FF4005078
:10194000FFF7B6FC00210248FFF778FC00BF80BD1E
:101950004400024080B500AF4FF00070FFF7A8FCD4
:1019600000210248FFF76AFC00BF80BD80000240F2
:1019700080B58AB002AFF860B9607A607B80FB689E
:10198000002283F8D020BB68012B23D1FB686C3385
:10199000464A1360FB68D033454A1360012144F284
:1019A0000400FEF7B3FF01210120FEF791FF25237C
:1019B000FB77404BBB614FF40073FB824FF48063B5
:1019C000BB82FB683C4A1A60FB683C4A9A660E235D
:1019D000FB7427E0BB68022B24D1FB686C33384AC8
:1019E0001360FB68D033374A136001210420FEF7EF
:1019F0008DFF01214FF40030FEF7A6FF01210220E8
:101A0000FEF766FF2623FB772A4BBB610423FB828C
:101A10000823BB82FB682C4A1A60FB682B4A9A6633
:101A20001123FB74F86800F076F8FB7F1946F8681C
:101A300000F09AF8F98A03231822B869FFF750FEDC
:101A4000B98A03230422B869FFF74AFE398D7A88E0
:101A5000BB8D00930B467968F86800F039F8FB6895
:101A60001B6801211846FFF75DF9FB681B6801221E
:101A700080211846FFF7BBF9FB689B6E012202210B
:101A80001846FFF7F7FB97F913301846FFF7DEFE0D
:101A9000FB681B68012240F225511846FFF761F9E7
:101AA000FB6818462037BD4680BD00BF34000020CB
:101AB0003C00002000080140003801404400024082
:101AC0003800002040000020004400408000024018
:101AD00080B588B000AFF860B96011461A460B4671
:101AE000FB801346BB80BB683B61FB88BB82BB8825
:101AF000FB823B8D3B830023BB830C237B83FB68F2
:101B00001B6807F1100211461846FFF74BF800BF9B
:101B10002037BD4680BD80B58EB000AF78607B6851
:101B20001B680433FB607B6804333B6110237B61DB
:101B30006423BB610023FB6180233B6200237B6243
:101B40000023BB620023FB6200233B6300237B6313
:101B50007B689B6E07F10C0211461846FFF730FBBD
:101B600000BF3837BD4680BD80B584B000AF786017
:101B70000B46FB70FB783B7300237B730023BB7326
:101B80000123FB7307F10C031846FEF7AFFA00BF01
:101B90001037BD4680BD80B584B000AF7860396035
:101BA0000023FB603A68FB6813441B78002B0DD0C0
:101BB0003A68FB68134419787A68FB681344043365
:101BC0000A461A70FB680133FB60EBE77B689B6E8B
:101BD00000211846FFF732FB7B689B6EFA685A605B
:101BE0007B689B6E01211846FFF728FB00BF10376A
:101BF000BD4680BD80B588B000AF78600B46FB70F5
:101C00001346BB707B68BA781A71FB78012B0CD134
:101C10007B68264A1A60264BFB61C0237B83012127
:101C20004FF40010FEF790FE0FE0FB78022B0CD172
:101C30007B68204A1A601E4BFB614FF440637B8334
:101C400001214FF48000FEF77FFE01210820FEF7FE
:101C50005DFE01210120FEF759FE174BBB600023FA
:101C6000BB814BF6FF73FB8115233B824FF48063EE
:101C70007B824FF48043BB827B681B6807F10802BC
:101C800011461846FFF7E6F8798B03231C22F86902
:101C9000FFF726FD7B681B6801211846FFF79CF9BA
:101CA0007B6818462037BD4680BD00BF0054004009
:101CB000000C014000580040A086010080B582B0B1
:101CC00000AF78600B46FB707B681B684FF40031F7
:101CD0001846FFF739FA0346002B14BF01230023EF
:101CE000DBB2002B00D0EFE77B681B6801211846B0
:101CF000FFF791F97B681B681F491846FFF7F5F954
:101D00000346002B0CBF01230023DBB2002B00D0C5
:101D1000F0E77B6818687B681B795B00DBB2FA78B8
:101D20001946FFF7C5F9FB78002B0ED17B681B68BD
:101D300012491846FFF7D9F90346002B0CBF0123BF
:101D40000023DBB2002B12D0F0E7FB78012B0ED181
:101D50007B681B680A491846FFF7C7F90346002B42
:101D60000CBF01230023DBB2002B00D0F0E700BF43
:101D70000837BD4680BD00BF010003008200070098
:101D80000200030080B582B000AF78600B46FB70A4
:101D90007B681B68FA7811461846FFF77AF97B686A
:101DA0001B6808491846FFF7A0F90346002B0CBF33
:101DB00001230023DBB2002B00D0F0E700BF08377F
:101DC000BD4680BD8400070080B582B000AF78605A
:101DD0007B681B6801211846FFF73CF90849094850
:101DE000FFF783F90346002B0CBF01230023DBB26E
:101DF000002B00D0F2E700BF0837BD4680BD00BF12
:101E0000840007000054004080B584B000AFF86043
:101E1000B9607A60FB70FB68BA681A60FB687A6820
:101E20005A60FB6800221A72FB6800225A72FB7823
:101E3000012B06D9FB685B7A43F00803DAB2FB6832
:101E40005A72FB6800229A72FB689B7A43F0040383
:101E5000DAB2FB689A72FB680022DA72FB68DB7AFE
:101E600043F00203DAB2FB68DA72FB685B68322186
:101E70001846FFF77DFBFB681B6800211846FFF73B
:101E80001DFFFB681B6800211846FFF77BFFFB68FE
:101E90001B681846FFF798FFFB685B684FF47A7180
:101EA0001846FFF765FB3021F86800F044F8FB683E
:101EB0005B6805211846FFF75BFB3021F86800F0EE
:101EC0003AF8FB685B6805211846FFF751FB3021A3
:101ED000F86800F030F8FB685B6896211846FFF759
:101EE0005BFB2021F86800F026F8FB685B7A43F082
:101EF0002003DBB21946F86800F084F8FB689B7A8F
:101F000043F00803DBB21946F86800F07BF8F86884
:101F100000F098F8FB68DB7A43F00403DBB2194663
:101F2000F86800F06FF8F86800F09EF8FB68184653
:101F30001037BD4680BD80B582B000AF78600B46DB
:101F4000FB707B681B7A002B03D0FB7843F00803FF
:101F5000FB707B681B6800211846FFF7AFFE7B68AB
:101F60001B68FA7811461846FFF70CFF7B681A6861
:101F7000FB7843F00403DBB219461046FFF702FF7B
:101F80007B685B6801211846FFF706FB7B681A68CF
:101F9000FB7823F00403DBB219461046FFF7F2FE8C
:101FA0007B685B6832211846FFF7F6FA7B681B688E
:101FB0001846FFF709FF00BF0837BD4680BD80B552
:101FC00082B000AF78600B46FB701346BB70FB78A5
:101FD00023F00F03DAB2BB781343DBB219467868FB
:101FE000FFF7A9FFFB781B015AB297F902301343A0
:101FF0005BB2DBB219467868FFF79DFF00BF083778
:10200000BD4680BD80B582B000AF78600B46FB70E6
:10201000FB78002219467868FFF7D1FF00BF083728
:10202000BD4680BD80B582B000AF78600B46FB70C6
:10203000FB78012219467868FFF7C1FF00BF083717
:10204000BD4680BD80B582B000AF78600121786860
:10205000FFF7D8FF7B685B6802211846FFF788FA14
:1020600000BF0837BD4680BD80B582B000AF786044
:1020700002217868FFF7C6FF7B685B68022118467B
:10208000FFF776FA00BF0837BD4680BD80B582B045
:1020900000AF78600B46FB701346BB70BB78002B1B
:1020A00001D0402200E00022FB781344DBB25BB297
:1020B00063F07F035BB2DBB219467868FFF7A2FFDB
:1020C00000BF0837BD4680BD80B582B000AF7860E4
:1020D0000B46FB70FB78002B03D07B6801221A7241
:1020E00002E07B6800221A727B681B680021184698
:1020F000FFF7E4FD7B681A687B681B7A002B01D030
:10210000082300E0002319461046FFF73BFE7B68DA
:102110001B681846FFF758FE00BF0837BD4680BD54
:1021200080B582B000AF786039603B681B78002BC7
:1021300008D03B685A1C3A601B7819467868FFF74C
:1021400071FFF2E700BF0837BD4680BD80B500AF24
:1021500004214FF08040FFF701F90346002B14BF24
:1021600001230023DBB2002B3DD004214FF080403F
:10217000FFF71DF91D4B1A881D4B1A804FF0804048
:10218000FFF7B0F803461A46184B1A80174B1A8807
:10219000174B1B889A4207D3144B1B881A46144BC3
:1021A0001B88D31A1A4608E0114B1B88C3F57F43DE
:1021B000FF330E4A128813441A460E4B1A604FF42E
:1021C00080614FF08040FFF799F80346002B14BF61
:1021D00001230023DBB2002B05D04FF480614FF0C8
:1021E0008040FFF7ABF800BF80BD00BF4600002075
:1021F000440000204800002080B582B000AF786025
:10220000396039687868FFF7C6FC7B68184608377C
:10221000BD4680BD80B5C0B002AFFFF719FA07F127
:10222000F4031846FFF76AF907F120000023019331
:102230000023009300234FF4E1320121FFF798FBC4
:1022400007F114034FF400521D491846FFF7AAFA8C
:1022500007F10C03272201211846FFF7CBFC07F1F9
:10226000F40207F10C0138460223FFF7CDFD07F118
:10227000200314491846FFF7BFFF3B4601211846CB
:10228000FFF722FF3B4610491846FFF749FF3B4640
:10229000012200211846FFF7F9FE3B460B4918467C
:1022A000FFF73EFF07F1F4034FF47A711846FFF78A
:1022B0005FF907F114031846FFF7B5FAF2E700BF1C
:1022C00000100140082300082423000838230008D8
:1022D0008C3D25000D0A5761697420666F7220726B
:1022E000656365697665206F662074696D656F75D5
:1022F00074732E2E2E0000000D0A526563656976F8
:1023000065643A000D0A2D0048656C6C6F2E0D0A4D
:102310005553415254312069732072656164792E9E
:102320000D0A000048656C6C6F204B617465726922
:102330006E61203D29000000476F6F64206E696761
:04234000687421009C
:1023440000A24A040000000000000000010203048F
:102354000607080900000000010203040102030447
:0C236400060708090204060841160008DC
:0400000508000000EF
:00000001FF
