:020000040800F2
:1000000000500020A9010008EF010008F1010008DC
:10001000F3010008F5010008F701000800000000E6
:10002000000000000000000000000000F9010008CE
:10003000FB01000800000000FD010008D5100008C9
:100040000302000805020008070200080902000870
:100050000B0200080D0200080F0200081102000840
:100060001302000815020008170200081902000810
:100070001B0200081D0200081F02000821020008E0
:1000800023020008250200082702000829020008B0
:100090002B0200082D0200082F0200083102000880
:1000A0003302000835020008370200083902000850
:1000B0003B0200083D0200083F0200084102000820
:1000C00043020008450200084702000849020008F0
:1000D0004B0200086D1400084F020008510200088E
:1000E00053020008550200085702000880B487B088
:1000F00000AF786000237B6100233B610F23FB602E
:100100007B68DB78002B38D0254BDB68DB431B0A90
:1001100003F007037B617B69C3F104033B61FA6869
:100120007B6922FA03F3FB607B685B781A463B69C4
:1001300002FA03F37B617B689B781A46FB681340E5
:100140007A6913437B617B691B017B61154A7B687C
:100150001B787969C9B213440A4683F800237B6887
:100160001B7803F01F020F497B681B785B1101208D
:1001700000FA02F241F823200DE07B681B7803F0BF
:100180001F0208497B681B785B11012000FA02F20C
:10019000203341F8232000BF1C37BD4680BC704788
:1001A00000ED00E000E100E00649074A074B9A42F3
:1001B000BEBF51F8040B42F8040BF8E7044880472F
:1001C00004480047BA1D0008000000202800002055
:1001D00061020008D90100081F49204A002301E0FC
:1001E00041F8043B9142FBD301F094FCFEE7FEE7AB
:1001F000FEE7FEE7FEE7FEE7FEE7FEE7FEE7FEE7D7
:10020000FEE7FEE7FEE7FEE7FEE7FEE7FEE7FEE7C6
:10021000FEE7FEE7FEE7FEE7FEE7FEE7FEE7FEE7B6
:10022000FEE7FEE7FEE7FEE7FEE7FEE7FEE7FEE7A6
:10023000FEE7FEE7FEE7FEE7FEE7FEE7FEE7FEE796
:10024000FEE7FEE7FEE7FEE7FEE7FEE7FEE7FEE786
:10025000FEE7FEE7FEE7FEE7280000204000002062
:1002600080B500AF154B1B68144A43F001031360BF
:10027000124B5A681149124B13404B600F4B1B68CD
:100280000E4A23F0847323F4803313600B4B1B68F6
:100290000A4A23F480231360084B5B68074A23F45F
:1002A000FE035360054B4FF41F029A6000F07EF886
:1002B000044B4FF000629A6000BF80BD0010024006
:1002C0000000FFF800ED00E080B485B000AF00232F
:1002D000FB600023BB6000237B602F4B5B6803F057
:1002E0000C03FB60FB68042B07D0082B09D0002B04
:1002F00038D12A4B2A4A1A6038E0284B284A1A601B
:1003000034E0254B5B6803F47013BB60224B5B68E1
:1003100003F480337B60BB689B0C0233BB607B685B
:10032000002B06D1BB681F4A02FB03F31B4A136074
:100330001CE0194B5B6803F40033002B14BF01234E
:100340000023DBB2002B06D0BB68164A02FB03F386
:10035000124A13600AE0BB68114A02FB03F30F4A1A
:10036000136003E00D4B0E4A1A6000BF0A4B5B6836
:100370001B0903F00F030C4AD35CDBB2FB60074B95
:100380001A68FB6822FA03F3044A136000BF1437AB
:10039000BD4680BC704700BF001002400000002036
:1003A00000127A0000093D000400002080B500AF73
:1003B00000F002F800BF80BD80B483B000AF00231E
:1003C0007B6000233B60474B1B68464A43F4803305
:1003D0001360444B1B6803F400333B607B680133BC
:1003E0007B603B68002B05D17B68B3F5A06F01D023
:1003F000012300E00023002B00D0EAE7394B1B6803
:1004000003F40033002B14BF01230023DBB2002BC5
:1004100002D001233B6001E000233B603B68012BDD
:100420000CBF01230023DBB2002B55D02E4B1B68E1
:100430002D4A43F0100313602B4B1B682A4A23F00C
:1004400003031360284B1B68274A43F00203136021
:10045000244B244A5B685360224B224A5B685360FA
:10046000204B5B681F4A43F4806353601D4B5B68FD
:100470001C4A23F47C1353601A4B5B68194A43F4FB
:10048000E8135360174B1B68164A43F080731360E0
:10049000144B1B6803F00073002B0CBF01230023D7
:1004A000DBB2002B00D0F3E70E4B5B680D4A23F064
:1004B000030353600B4B5B680A4A43F0020353602B
:1004C000084B5B6803F00C03082B14BF01230023C7
:1004D000DBB2002B00D0F3E700BF0C37BD4680BC79
:1004E000704700BF001002400020024080B400AFFF
:1004F000134B1B68124A43F001031360104B5A68F8
:100500000F49104B13404B600D4B1B680C4A23F0F6
:10051000847323F480331360094B1B68084A23F467
:1005200080231360064B5B68054A23F4FE03536087
:10053000034B4FF41F029A6000BFBD4680BC70475A
:10054000001002400000FFF880B483B000AF786074
:10055000134B1B68124A23F480331360104B1B6843
:100560000F4A23F4802313607B68B3F5803F03D0E8
:10057000B3F5802F07D00DE0094B1B68084A43F400
:100580008033136006E0064B1B68054A43F4A02342
:10059000136000BF00BF0C37BD4680BC704700BF72
:1005A0000010024080B584B000AF0023BB60002380
:1005B000FB710023FB73312000F0C6F90346FB7387
:1005C000BB680133BB60BB68B3F5A06F04D0FB7B95
:1005D000002B01D1012300E00023002B00D0EAE72B
:1005E000312000F0B1F90346002B14BF0123002392
:1005F000DBB2002B02D00123FB7101E00023FB7171
:10060000FB7918461037BD4680BD000080B485B028
:1006100000AF786039600023FB600A4B5B68FB60C9
:10062000FB6823F47C13FB607A683B681343FA6829
:100630001343FB60034AFB68536000BF1437BD4699
:1006400080BC70470010024080B483B000AF034606
:10065000FB71044AFB79136000BF0C37BD4680BCB8
:10066000704700BF6000424280B485B000AF786040
:100670000023FB60094B5B68FB60FB6823F003030E
:10068000FB60FA687B681343FB60044AFB685360B5
:1006900000BF1437BD4680BC704700BF0010024049
:1006A00080B400AF044B5B68DBB203F00C03DBB239
:1006B0001846BD4680BC70470010024080B485B02B
:1006C00000AF78600023FB60094B5B68FB60FB6850
:1006D00023F0F003FB60FA687B681343FB60044A75
:1006E000FB68536000BF1437BD4680BC704700BF35
:1006F0000010024080B485B000AF78600023FB603A
:10070000094B5B68FB60FB6823F4E063FB60FA68FD
:100710007B681343FB60044AFB68536000BF1437D7
:10072000BD4680BC704700BF0010024080B485B059
:1007300000AF78600023FB60094B5B68FB60FB68DF
:1007400023F46053FB607B68DB00FA681343FB60B3
:10075000034AFB68536000BF1437BD4680BC704736
:100760000010024080B487B000AF786000237B6146
:1007700000233B610023FB600023BB604F4B5B68A1
:1007800003F00C037B617B69042B07D0082B09D095
:10079000002B38D17B684A4A1A6038E07B68484AA7
:1007A0001A6034E0454B5B6803F470133B61434BC4
:1007B0005B6803F48033FB603B699B0C02333B6155
:1007C000FB68002B06D13B693E4A02FB03F27B68C3
:1007D0001A601CE0394B5B6803F40033002B14BF34
:1007E00001230023DBB2002B06D03B69354A02FB14
:1007F00003F27B681A600AE03B69314A02FB03F2AC
:100800007B681A6003E07B682D4A1A6000BF2B4B9F
:100810005B6803F0F0037B617B691B097B612A4AFB
:100820007B6913441B78DBB2BB607B681A68BB68CA
:10083000DA407B685A60214B5B6803F4E0637B61BC
:100840007B691B0A7B61204A7B6913441B78DBB2FE
:10085000BB607B685A68BB68DA407B689A60174B5C
:100860005B6803F460537B617B69DB0A7B61164A3A
:100870007B6913441B78DBB2BB607B685A68BB683A
:10088000DA407B68DA600D4B5B6803F440437B61C0
:100890007B699B0B7B610D4A7B6913441B78DBB240
:1008A000BB607B68DA68BB68B2FBF3F27B681A61F5
:1008B00000BF1C37BD4680BC704700BF001002401F
:1008C00000127A0000093D001400002024000020DE
:1008D00080B483B000AF78600B46FB70FB78002BD0
:1008E00006D0094B9A6908497B6813438B6106E07F
:1008F000054B9A697B68DB43034913408B6100BF5A
:100900000C37BD4680BC70470010024080B483B0F5
:1009100000AF78600B46FB70FB78002B06D0094BCC
:10092000DA6908497B681343CB6106E0054BDA6955
:100930007B68DB4303491340CB6100BF0C37BD46E6
:1009400080BC70470010024080B487B000AF0346FF
:10095000FB710023FB6000237B610023FB74FB79A8
:100960005B11FB60FB68012B03D1124B1B687B61A1
:1009700009E0FB68022B03D10E4B1B6A7B6102E08E
:100980000C4B5B6A7B61FB7903F01F03FB607A69A8
:10099000FB6822FA03F303F00103002B02D00123CA
:1009A000FB7401E00023FB74FB7C18461C37BD463A
:1009B00080BC70470010024080B489B000AF7860FE
:1009C00039600023FB6100233B610023BB610023EE
:1009D000FB6000237B610023BB603B68DB7803F096
:1009E0000F03FB613B68DB7803F01003002B05D09D
:1009F0003B689B781A46FB691343FB613B681B8885
:100A0000DBB2002B44D07B681B687B610023BB6199
:100A1000BB69072B39D80122BB6902FA03F3FB60DB
:100A20003B681B881A46FB6813403B613A69FB68C8
:100A30009A4226D1BB699B00FB600F22FB6802FA39
:100A400003F3BB60BB68DB437A6913407B61FA69DF
:100A5000FB6802FA03F37A6913437B613B68DB7836
:100A6000282B05D10122BB699A407B685A6108E0B6
:100A70003B68DB78482B04D10122BB699A407B6834
:100A80001A61BB690133BB61C2E77B687A691A608E
:100A90003B681B88FF2B46D97B685B687B61002322
:100AA000BB61BB69072B3BD8BB690833012202FA43
:100AB00003F3FB603B681B881A46FB6813403B61ED
:100AC0003A69FB689A4227D1BB699B00FB600F2201
:100AD000FB6802FA03F3BB60BB68DB437A6913402F
:100AE0007B61FA69FB6802FA03F37A6913437B615D
:100AF0003B68DB78282B05D1BB69083301229A407B
:100B00007B685A613B68DB78482B05D1BB690833A9
:100B100001229A407B681A61BB690133BB61C0E75F
:100B20007B687A695A6000BF2437BD4680BC704735
:100B300080B485B000AF78600B467B800023FB73E8
:100B40007B689A687B881340002B14BF0123002325
:100B5000DBB2002B02D00123FB7301E00023FB7307
:100B6000FB7B18461437BD4680BC704780B483B009
:100B700000AF78600B467B807A887B681A6100BF83
:100B80000C37BD4680BC704780B483B000AF78603E
:100B90000B467B807A887B685A6100BF0C37BD4664
:100BA00080BC704780B58CB000AF7860396000239E
:100BB000FB620023BB6200237B6200233B620023B5
:100BC000FB617B68FB617B681B8A9BB2FB62FA6AF4
:100BD0004CF6FF731340FB623B68DB881A46FB6AE6
:100BE0001343FB62FB6A9AB27B681A827B689B891B
:100BF0009BB2FB62FA6A4EF6F3131340FB623B684A
:100C00009A883B681B8913439AB23B685B891343FC
:100C10009BB21A46FB6A1343FB62FB6A9AB27B687B
:100C20009A817B689B8A9BB2FB62FA6A4FF6FF430C
:100C30001340FB623B689B891A46FB6A1343FB62C5
:100C4000FB6A9AB27B689A8207F108031846FFF79D
:100C500089FDFB69314A934202D17B69BB6201E0A5
:100C60003B69BB627B689B899BB21BB29BB2DB0B6F
:100C7000DBB2002B0CD0BA6A13469B0013449A00D7
:100C80001A443B681B685B00B2FBF3F37B620BE02A
:100C9000BA6A13469B0013449A001A443B681B68C7
:100CA0009B00B2FBF3F37B627B6A1D4AA2FB03232A
:100CB0005B091B01FB62FB6A1B09642202FB03F355
:100CC0007A6AD31A3B627B689B899BB21BB29BB248
:100CD000DB0BDBB2002B0CD03B6ADB003233104A5B
:100CE000A2FB03235B0903F00703FA6A1343FB62C9
:100CF0000BE03B6A1B013233094AA2FB03235B0969
:100D000003F00F03FA6A1343FB62FB6A9AB27B6833
:100D10001A8100BF3037BD4680BD00BF003801409A
:100D20001F85EB5180B483B000AF78600B46FB7039
:100D3000FB78002B08D07B689B899BB243F400535F
:100D40009AB27B689A8107E07B689B899BB223F407
:100D500000539AB27B689A8100BF0C37BD4680BCB5
:100D6000704780B487B000AF78600B467B80134635
:100D70007B7000233B610023FB600023BB600023EA
:100D80007B617B687B617B88DBB25B113B617B882D
:100D900003F01F03FB600122FB6802FA03F3BB6050
:100DA0003B69012B03D17B690C337B6109E03B6913
:100DB000022B03D17B6910337B6102E07B69143322
:100DC0007B617B78002B06D07B6919687B69BA68E8
:100DD0000A431A6006E07B691968BB68DA437B69DD
:100DE0000A401A6000BF1C37BD4680BC704780B403
:100DF00083B000AF78600B467B807B88C3F3080329
:100E00009AB27B689A8000BF0C37BD4680BC7047A1
:100E100080B483B000AF78607B689B889BB2C3F3DB
:100E200008039BB218460C37BD4680BC704780B49F
:100E300085B000AF78600B467B800023FB737B6836
:100E40001B889AB27B8813409BB2002B14BF0123EE
:100E50000023DBB2002B02D00123FB7301E000234F
:100E6000FB73FB7B18461437BD4680BC70470000FF
:100E700080B58AB000AF786039600023FB8400231E
:100E80007B840423BB84574BFB617B689B88FB847A
:100E9000FB8C23F03F03FB8407F108031846FFF7A0
:100EA00061FC3B69FB61FB694F4AA2FB03239B0C7E
:100EB0007B84FA8C7B8C1343FB847B68FA8C9A804E
:100EC0007B681B889BB223F001039AB27B681A806F
:100ED0000023FB843B681B68444A934215D83B6857
:100EE0001B685B00FA69B2FBF3F3BB84BB8C032B7A
:100EF00001D80423BB84FA8CBB8C1343FB847B8C0A
:100F000001339AB27B681A8440E03B68DB884BF679
:100F1000FF72934209D13B681A6813465B00134481
:100F2000FA69B2FBF3F3BB840EE03B681A68134620
:100F30009B0013449A001344FA69B2FBF3F3BB8499
:100F4000BB8C43F48043BB84BB8CC3F30B03002BEB
:100F500003D1BB8C43F00103BB84BA8CFB8C1343DD
:100F60009BB26FEA43436FEA5343FB847B8C4FF49D
:100F7000967202FB03F31E4A82FB03129211DB17E7
:100F8000D31A9BB201339AB27B681A847B68FA8CBD
:100F90009A837B681B889BB243F001039AB27B68FB
:100FA0001A807B681B88FB84FB8C23F4816323F00D
:100FB0000203FB843B689A883B685B8913439AB2BF
:100FC000FB8C1343FB847B68FA8C1A803B689A89FC
:100FD0003B681B8913439AB27B681A8100BF28378C
:100FE000BD4680BD00127A0083DE1B43A08601004F
:100FF000D34D621080B483B000AF78600B46FB70B5
:10100000FB78002B08D07B681B889BB243F0010360
:101010009AB27B681A8007E07B681B889BB223F03A
:1010200001039AB27B681A8000BF0C37BD4680BCB2
:101030007047000080B483B000AF03463960FB7195
:1010400097F90730002B0DDA3B68DAB20E4997F9B1
:101050000730DBB203F00F03043B1201D2B20B44A2
:101060001A760BE03B68DBB2084A97F9071008468E
:101070001B01D9B213180A4683F8002300BF0C37AE
:10108000BD4680BC704700BF00ED00E000E100E01D
:1010900080B582B000AF78607B68B3F1807F01D308
:1010A000012311E07B6823F07F43094A013B536031
:1010B0000F214FF0FF30FFF7BDFF054B00229A6074
:1010C000034B07221A60002318460837BD4680BD2F
:1010D00010E000E080B400AF064B1B68002B04D08A
:1010E000044B1B68013B034A136000BFBD4680BC34
:1010F000704700BF2C00002080B582B000AF786040
:10110000FFF7E2F8194B1B68194AA2FB03239B095E
:101110001846FFF7BDFF154B1B68164AA2FB0323B9
:101120009A0C7B681A60144BDB6803F08073002B09
:101130000CBF01230023DBB2002B0ED00E4BDB686B
:101140000D4A43F08073D3600C4B00225A600B4B66
:101150001B680A4A43F001031360094A7B68136065
:101160007B6818460837BD4680BD00BF00000020E0
:10117000D34D621083DE1B43F0ED00E0001000E071
:101180002800002080B483B000AF78603960064A40
:101190003B681360044B1B68002B00D0FAE700BFCC
:1011A0000C37BD4680BC70472C00002080B485B051
:1011B00000AF786039600C4B5A687B681B683968EF
:1011C00001FB03F31344FB60074B5B681A46FB68A3
:1011D000D31ADB0FDBB2002B00D0F5E700BF1437CA
:1011E000BD4680BC704700BF001000E080B485B0F1
:1011F00000AF786039601F4BBB600023FB60FB6869
:10120000092B08DC1C4AFB68134430221A70FB6867
:101210000133FB60F3E7FB685A1EFA60164A0021AF
:10122000D154FB68002B01DA134B1EE03A687B684F
:10123000B3FBF2F102FB01F29B1ABA68134419786E
:101240000D4AFB6813440A461A703B687A68B2FB81
:10125000F3F37B607B68002B03D1FB68064A1344E1
:1012600003E0FB68013BFB60DBE718461437BD4633
:1012700080BC7047101D00083000002080B582B08F
:1012800000AFFFF733F94FF48030FFF75DF9FFF758
:1012900089F90346FB71FB79012B2CD10020FFF764
:1012A0000DFA0020FFF742FA4FF48060FFF722FAB0
:1012B0004FF4E0114FF48030FFF7A8F90120FFF759
:1012C000C3F93920FFF740FB0346002B0CBF012375
:1012D0000023DBB2002B00D0F3E70220FFF7C4F9B4
:1012E000FFF7DEF90346082B14BF01230023DBB20E
:1012F000002B01D0F4E7FEE700BF0837BD4680BDF4
:1013000080B584B000AF7860084611461A4603469F
:101310007B800B467B7013463B707B68224A93426E
:1013200002D10423FB6029E07B68204A934202D16A
:101330000823FB6022E07B681D4A934202D1102300
:10134000FB601BE07B681B4A934202D12023FB60B9
:1013500014E07B68184A934202D14023FB600DE001
:101360007B68164A934202D18023FB6006E07B68CB
:10137000134A934213D14FF48073FB600121F86844
:10138000FFF7A6FA7B883B817B78FB723B78BB72C8
:1013900007F1080319467868FFF70EFB00E000BF6D
:1013A0001037BD4680BD00BF00080140000C014061
:1013B000001001400014014000180140001C0140D1
:1013C0000020014080B584B000AFF860B9601346DA
:1013D000FB80FB68BA681A60FB68FA889A80F98813
:1013E00003231022B868FFF78BFFFB6801229A6085
:1013F000FB6818461037BD4680BD80B582B000AF8F
:1014000078607B681A687B689B8819461046FFF7EE
:10141000BBFB7B6801229A6000BF0837BD4680BDD8
:1014200080B582B000AF78607B681A687B689B8863
:1014300019461046FFF79AFB7B6800229A6000BFAE
:101440000837BD4680BD80B582B000AF78607B684C
:101450009B68002B03D07868FFF7E2FF02E0786812
:10146000FFF7CBFF00BF0837BD4680BD98B500AF82
:101470000C4B1B889BB203F02003002B14BF0123ED
:101480000023DBB2002B0AD0074B1C680548FFF78E
:10149000BFFC0346DBB21946204600F0B0F800BF9F
:1014A00098BD00BF003801403C00002080B58AB0E4
:1014B00002AFF860B9607A607B80FB68002283F835
:1014C0006820BB68012B37D1012144F20400FFF7EB
:1014D000FFF92523FB771B4BBB614FF40073FB82A5
:1014E0004FF48063BB82FB68174A1A60FB7F3B7432
:1014F00000237B740023BB740123FB7407F11003EA
:101500001846FEF7F3FDF98A03231822B869FFF79E
:10151000F7FEB98A03230422B869FFF7F1FE398D7B
:101520007A88BB8D00930B467968F86800F010F854
:10153000064AFB68136000E000BFFB6818462037CE
:10154000BD4680BD00080140003801403C0000203D
:1015500080B588B000AFF860B96011461A460B46F6
:10156000FB801346BB80BB683B61FB88BB82BB88AA
:10157000FB823B8D3B830023BB830C237B83FB6877
:101580001B6807F1100211461846FFF70BFBFB68BA
:101590001B6801211846FFF7C5FBFB681B68012289
:1015A00040F225511846FFF7DCFB00BF2037BD464F
:1015B00080BD80B582B000AF786039603B681B7831
:1015C000002B18D07B6818683B685A1C3A601B785F
:1015D0009BB21946FFF70BFC7B681B68402118463D
:1015E000FFF725FC0346002B0CBF01230023DBB2D1
:1015F000002BE3D0F0E700BF0837BD4680BD80B4C4
:1016000083B000AF78600B46FB707B6893F868305E
:10161000632B0CD87B6893F868305A1CD1B27A6877
:1016200082F868101A467B681344FA781A7100BF72
:101630000C37BD4680BC704780B483B000AF786083
:101640007B6893F8683018460C37BD4680BC7047FD
:1016500080B483B000AF78607B68043318460C37E1
:10166000BD4680BC7047000080B584B000AFF86014
:10167000B9601346FB80FB68BA681A60FB68FA8899
:101680009A80FB68104A06331188927819809A7004
:10169000FB680E4A09331188927819809A70FB68AA
:1016A0000B4A0C331268114619800233120C1A705F
:1016B000F98803231422B868FFF722FEFB68184656
:1016C0001037BD4680BD00BF241D0008281D00083E
:1016D0002C1D000880B584B000AFF860B9603B6095
:1016E0001346FB80FB68BA681A60FB68FA889A8028
:1016F0003B681A78FB689A713B685A78FB68DA7124
:101700003B689A78FB681A72BB691A78FB685A7250
:10171000BB695A78FB689A72BB699A78FB68DA727F
:10172000FB691A78FB681A73FB695A78FB685A736D
:10173000FB699A78FB689A73F98803231422B868C6
:10174000FFF7DEFDFB6818461037BD4680BD000080
:1017500080B584B000AF78600B46FB70194B1B68F6
:10176000FB607B681A687B689B8819461046FFF708
:101770000BFA7B685B7A1946F868FFF717FDFB7870
:10178000002B07D07B681A687B689B881946104637
:10179000FFF7ECF97B689B7A1946F868FFF706FDBE
:1017A0007B681A687B689B8819461046FFF7DEF94C
:1017B0007B68DB7A1946F868FFF7F8FC00BF103742
:1017C000BD4680BD2800002080B584B000AF7860A1
:1017D000194B1B68FB607B681A687B689B881946FD
:1017E0001046FFF7D1F97B681B7B1946F868FFF7B5
:1017F000DDFC7B681A687B689B8819461046FFF7FA
:10180000B5F97B685B7B1946F868FFF7CFFC7B680E
:101810001A687B689B8819461046FFF789F90346CA
:10182000FB727B689B7B1946F868FFF7BFFCFB7A6D
:1018300018461037BD4680BD2800002080B584B012
:1018400000AF7860214B1B68FB607B681A687B687F
:101850009B8819461046FFF797F97B689B791A46D3
:1018600013469B0013445B001946F868FFF79EFC83
:101870007B681A687B689B8819461046FFF776F9E3
:101880007B68DB791A4613469B0013445B001946BC
:10189000F868FFF78BFC7B681A687B689B881946A1
:1018A0001046FFF745F90346FB727B681B7A1A4620
:1018B00013469B0013445B001946F868FFF776FC5B
:1018C000FB7A18461037BD4680BD00BF28000020B7
:1018D00080B584B000AF78600B46FB700023FB60DE
:1018E000FB68072B0EDCFB7803F00103DBB2194623
:1018F0007868FFF72DFFFB785B10FB70FB68013306
:10190000FB60EDE700BF1037BD4680BD80B584B0F9
:1019100000AF78600023FB730023BB60BB68072B1C
:101920000EDC7868FFF750FF03461A46FB7B134432
:10193000FB73FB7B5B00FB73BB680133BB60EDE7B4
:10194000FB7B18461037BD4680BD90B587B000AF11
:10195000F8600B467A60FB72F868FFF76FFF03468A
:10196000002B14BF01230023DBB2002B01D0012385
:1019700016E0FB7A1946F868FFF7AAFF00237B619F
:101980007B69072B0BDC7B697A68D418F868FFF752
:10199000BDFF034623707B6901337B61F0E70023C1
:1019A00018461C37BD4690BD80B588B000AF786042
:1019B0000B46FB701346BB707B68BA781A71FB78D4
:1019C000012B13D17B681D4A1A601D4BFB61C0239C
:1019D0007B8301210820FEF77BFF01210120FEF718
:1019E00077FF01214FF40010FEF790FF154BBB600D
:1019F0000023BB814BF6FF73FB8115233B824FF421
:101A000080637B824FF48043BB827B681B6807F155
:101A1000080211461846FFF72BFA798B03231C2284
:101A2000F869FFF76DFC7B681B6801211846FFF71A
:101A3000E1FA7B6818462037BD4680BD005400405F
:101A4000000C0140A086010080B582B000AF786034
:101A5000396039687868FFF7ACFD7B68184608374D
:101A6000BD4680BD80B586B000AF7860244B1B6852
:101A70003B61244B1B68FB6023493869FFF7E4FF97
:101A80003869FFF7D9FD0346082B94BF01230023D3
:101A9000DBB2002B03D06421F868FFF773FB1B490E
:101AA0003869FFF7D1FF00237B617B69082B22DCBB
:101AB00017493869FFF7C8FF3869FFF7C9FD0246C3
:101AC0007B6913441B780A211846FFF78FFB0346F6
:101AD00019463869FFF7B8FF3869FFF7B9FD0246C4
:101AE0007B691A447B6979680B4412781A707B69A8
:101AF00001337B61D9E700BF1837BD4680BD00BF09
:101B00003C00002028000020301D0008541D000863
:101B1000601D000880B5B4B002AFFFF7AFFB07F15E
:101B2000B4031846FFF7E8FA07F1480000230193D1
:101B30000023009300234FF4E1320121FFF7B6FCAC
:101B400007F13C034FF4005267491846FFF73AFC8F
:101B500007F13403272201211846FFF725FF634BC5
:101B60001B68C7F8BC30624B1B68C7F8B8306149C6
:101B7000D7F8BC00FFF768FF07F11C034FF4807231
:101B80005D491846FFF770FD5C49D7F8BC00FFF7C8
:101B90005BFF07F12C0207F11C0333211846FFF706
:101BA000D4FE0346002B14BF01230023DBB2002B1D
:101BB00005D05349D7F8BC00FFF746FF04E0514970
:101BC000D7F8BC00FFF740FF4F49D7F8BC00FFF73C
:101BD0003BFF0023C7F8C430D7F8C430072B1ADC0A
:101BE00007F12C02D7F8C43013441B781021184693
:101BF000FFF7FCFA03461946D7F8BC00FFF724FFAD
:101C00004249D7F8BC00FFF71FFFD7F8C4300133B3
:101C1000C7F8C430E0E74FF47A71D7F8B800FFF79F
:101C2000B1FA07F13C031846FFF70DFC07F110036A
:101C30001846FFF717FF07F11002384607F11003A7
:101C40000633019307F110030333009313464FF457
:101C500080722949FFF73EFD2849D7F8BC00FFF7FD
:101C6000F3FE07F12C0207F11C0333211846FFF79E
:101C70006CFE0346002B14BF01230023DBB2002BB4
:101C800005D01F49D7F8BC00FFF7DEFE04E01D4970
:101C9000D7F8BC00FFF7D8FE1B49D7F8BC00FFF708
:101CA000D3FE0023C7F8C030D7F8C030072BB2DC12
:101CB00007F12C02D7F8C03013441B7810211846C6
:101CC000FFF794FA03461946D7F8BC00FFF7BCFEAD
:101CD0000E49D7F8BC00FFF7B7FED7F8C030013384
:101CE000C7F8C030E0E700BF001001403C00002012
:101CF00028000020641D000800080140801D000825
:101D0000981D0008A01D0008A41D0008B81D0008AB
:101D10003031323334353637383941424344454621
:101D2000000000003C0A3200035A050001075A0077
:101D30000D0A5761697420666F7220726563656968
:101D40007665206F662074696D656F7574732E2ECD
:101D50002E0000000D0A52656365697665643A00DD
:101D60000D0A2D0048656C6C6F2E0D0A55534152BB
:101D700054312069732072656164792E0D0A000068
:101D80006F6E655F776972652073656E643A2030A7
:101D90007833332C2000000053756363000000008B
:101DA000457272000D0A6F6E655F77697265207209
:0A1DB0006573703A200000002C005B
:101DBA0000A24A040000000000000000010203041F
:101DCA0006070809000000000102030401020304D7
:081DDA000607080902040608CF
:0400000508000000EF
:00000001FF
